:100A0A00E4F508750903FB7A0079087F0312039E4F
:100A1A00E4F50875090CFB7A0079087F0502039E44
:10006600750840750901750D00750CC2750B017593
:100076000A00750F01E4F510751101F512F513FB71
:090086007A0079087F010207C825
:100A2A00E4F508F509750A01F50BF50C750DFF7566
:0E0A3A000E10750F01FB7A007908FF0200A66E
:10002600120A0A120066120A2AD2AF7F0A120A5B65
:10003600E520D3940040F4D520F1E51FD394004089
:100046000BE4FFEFC3951F50030F80F7E4F51F8005
:01005600DACF
:03000B00020003ED
:03000300B2CB324B
:03001B00020006DA
:0100060032C7
:0300630002000791
:0100070032C6
:03009B0002000858
:0100080032C5
:0300A3000200094F
:0100090032C4
:1000A600AD07EDD3940440037F0122ED6003020106
:1000B60068C28C90000212060BB40104D2A9800219
:1000C600C2A990000112060BFED3940340037F02DF
:1000D60022EE700553B7FDC2B990000112060BB4AB
:1000E600010553B7FDD2B990000112060BFFB40209
:1000F6000543B702C2B9EFB4030543B702D2B9123A
:1001060005F2FEC3940340037F0222E58954FC4EA8
:10011600F58990000312060BFFB40103538E7FEF9F
:100126007003438E80EFB40205438904800353892C
:10013600FB90000412060BB40105438F01800353A4
:100146008FFE900005120638E5F0F58C900005123A
:100156000638F58A90000712060BB40102D28C7F8E
:100166000022ED64016003020226C28E9000021294
:10017600060BB40104D2AB8002C2AB90000112069A
:100186000BFED3940340037F0222EE700553B7F7AC
:10019600C2BB90000112060BB4010553B7F7D2BBE0
:1001A60090000112060BFFB4020543B708C2BBEF6D
:1001B600B4030543B708D2BB1205F2FEC39403404D
:1001C600037F0222EEC454F0FFE58954CF4FF58930
:1001D60090000312060BFFB40103538EBFEF7003AA
:1001E600438E40EFB4020543894080035389BF9094
:1001F600000412060BB40105438F028003538FFDE2
:10020600900005120638E5F0F58D900005120638C7
:10021600F58B90000712060BB40102D28E7F0022E6
:10022600ED64027078538EEF90000212060BB40153
:100236000543AF04800353AFFB90000312060BFE89
:10024600D3940240037F0222EEB40103538EFB9047
:10025600000312060B7003438E0490000312060B74
:10026600B40205438E088003538EF79000041206ED
:100276000BB40105438F048003538FFB90000512D6
:100286000638E5F0F5D6900005120638F5D7900049
:100296000712060BB40103438E107F0022ED6403A0
:1002A600707853D1F790000212060BB4010543AFE4
:1002B60020800353AFDF90000312060BFED3940297
:1002C60040037F0222EEB4010353D1FD90000312D6
:1002D600060B700343D10290000312060BB402050D
:1002E60043D104800353D1FB90000412060BB401E2
:1002F6000543D101800353D1FE900005120638E56F
:10030600F0F5D4900005120638F5D59000071206D0
:100316000BB4010343D1087F0022ED6404707653C9
:10032600D17F90000212060BB4010543AF40800353
:1003360053AFBF90000312060BFED3940240037F17
:100346000222EEB4010353D1DF90000312060B70B4
:100356000343D12090000312060BB4020543D1409B
:10036600800353D1BF90000412060BB4010543D19C
:1003760010800353D1EF900005120638FDACF0EC67
:10038600F5D2AF058FD390000712060BB4010343D5
:08039600D1807F00227F0222CA
:0F0A5B007D607C09ED1D70011C144C70F7DFF1FC
:010A6A002269
:10039E00EFD3940740037F01221205F2FED394039C
:1003AE0040037F0222EF7041EE700B9000011206A7
:1003BE000BF4529352941205F2B4010B90000112F9
:1003CE00060B4293F452941205F2FEB4020A900008
:1003DE000112060B42934294EEB4030D90000112EB
:1003EE00060BFEF45293EE4294EF64017043120535
:1003FE00F2FE700B90000112060BF452915292EE27
:10040E00B4010B90000112060B4291F452921205A8
:10041E00F2B4020A90000112060B429142921205AA
:10042E00F2B4030D90000112060BFEF45291EE424F
:10043E0092EF640270431205F2FE700B90000112EF
:10044E00060BF452955296EEB4010B900001120673
:10045E000B4295F452961205F2B4020A9000011264
:10046E00060B429542961205F2B4030D900001124E
:10047E00060BFEF45295EE4296EF6403704312059E
:10048E00F2FE700B90000112060BF452B152B2EE56
:10049E00B4010B90000112060B42B1F452B21205D8
:1004AE00F2B4020A90000112060B42B142B21205DA
:1004BE00F2B4030D90000112060BFEF452B1EE429F
:1004CE00B2EF640470431205F2FE700B900001123D
:1004DE00060BF452B352B4EEB4010B9000011206A7
:1004EE000B42B3F452B41205F2B4020A9000011298
:1004FE00060B42B342B41205F2B4030D9000011282
:10050E00060BFEF452B3EE42B4EF640570431205CF
:10051E00F2FE700B90000112060BF452C952CAEE95
:10052E00B4010B90000112060B42C9F452CA120517
:10053E00F2B4020A90000112060B42C942CA120519
:10054E00F2B4030D90000112060BFEF452C9EE42F6
:10055E00CAEF640670431205F2FE700B9000011292
:10056E00060BF452CB52CCEEB4010B9000011206E6
:10057E000B42CBF452CC1205F2B4020A90000112D7
:10058E00060B42CB42CC1205F2B4030D90000112C1
:10059E00060BFEF452CBEE42CCEF6407704312050D
:1005AE00F2FF700B90000112060BF452E152E2EFD3
:1005BE00B4010B90000112060B42E1F452E2120557
:1005CE00F2B4020A90000112060B42E142E2120559
:1005DE00F2B4030D90000112060BFFF452E1EF424C
:0405EE00E27F002286
:0607C8008B148A1589164E
:1007CE00EF6401600302097B751B01F51CF51DF535
:1007DE001EF51FF520F5217F80900080E4F0A3DF49
:1007EE00FC7F80900000E4F0A3DFFCAB14AA15A9F7
:1007FE001690000A12060BFED3940340037F0222CA
:10080E00EE700553B7EFC2BC90000A12060BB4018E
:10081E000553B7EFD2BC90000A12060BFFB40205C7
:10082E0043B710C2BCEFB4030543B710D2BC1205D8
:10083E00F2D394C040037F02221205F2FFE59854D2
:10084E003F4FF598EF64C06008EF64406003020903
:10085E00109000021207627F807E8D7D5B7C0012FD
:10086E0006AC8F1A8E198D188C17E4FFFE7D01FCD5
:10087E00AB1AAA19A918A817C312073E40037F0284
:10088E0022C3E4951AF51AE49519F5197401951811
:10089E00F518E49517F517AB14AA15A916900001D3
:1008AE0012060BFB6401702CC28E538EFE5389BF51
:1008BE005389CF438E40AF1AAE19AD18AC177808D6
:1008CE0012074F8F8D851A8BC2AB5389BF538FFD85
:1008DE00D28E8062EB64027026538EEF438E0153EC
:1008EE008EF7438E04AF1AAE19AD18AC17780812F6
:1008FE00074F8FD6851AD753AFFB438E1080377FA5
:10090E000222AB14AA15A9161205F2FF701390005D
:10091E000812060BB40105438E20801A538EDF8019
:10092E0015EFB4801190000812060BB40105438731
:10093E0080800353877FAB14AA15A9169000091265
:10094E00060BB40104D2AC8002C2AC9000071206B2
:10095E000BB40104D29C8002C29C90000B12060BB9
:0F096E0054C0FFE5A2543F4FF5A27F00227F0245
:01097D002257
:1009E7007480251DF582E43400F583EFF0051DE5DD
:1009F7001DC394804003E4F51DE51E7005751E01B7
:030A0700D299225F
:100A48001205F2FF600C1209E7740129F9E43AFA79
:030A580080EE220B
:0300230002097E51
:10097E00C0E0C083C082C0D075D000C007309824BC
:10098E00C298E521701EE51FC394804003751F00B9
:10099E00AF1F051F74002FF582E43400F583E5992F
:1009AE00F0752005309927C299E51C651D601C74F1
:1009BE0080251CF582E43400F583E0F599051CE5ED
:1009CE001CC394804008751C008003751E00D00760
:0909DE00D0D0D082D083D0E032E9
:0300000002000EED
:0C000E00787FE4F6D8FD75812102002601
:1005F200BB010689828A83E0225002E722BBFE0207
:09060200E32289828A83E4932239
:10060B00BB010CE58229F582E5833AF583E02250A4
:10061B0006E92582F8E622BBFE06E92582F8E222EE
:0D062B00E58229F582E5833AF583E4932208
:10063800BB0110E58229F582E5833AF583E0F5F000
:10064800A3E0225009E92582F886F008E622BBFEDD
:100658000AE92582F8E2F5F008E222E5832AF58323
:08066800E993F5F0A3E99322E8
:1006700075F008758200EF2FFFEE33FECD33CDCC41
:1006800033CCC58233C5829BED9AEC99E5829840C4
:100690000CF582EE9BFEED9AFDEC99FC0FD5F0D6A1
:1006A000E4CEFBE4CDFAE4CCF9A88222B800C1B9CB
:1006B0000059BA002DEC8BF084CFCECDFCE5F0CB09
:1006C000F97818EF2FFFEE33FEED33FDEC33FCEB42
:1006D00033FB10D703994004EB99FB0FD8E5E4F9FD
:1006E000FA227818EF2FFFEE33FEED33FDEC33FCEA
:1006F000C933C910D7059BE99A4007EC9BFCE99ADE
:10070000F90FD8E0E4C9FAE4CCFB2275F010EF2F22
:10071000FFEE33FEED33FDCC33CCC833C810D70722
:100720009BEC9AE899400AED9BFDEC9AFCE899F85D
:0E0730000FD5F0DAE4CDFBE4CCFAE4C8F922F0
:10073E00EB9FF5F0EA9E42F0E99D42F0E89C45F011
:01074E002288
:10074F00E8600FECC313FCED13FDEE13FEEF13FF88
:03075F00D8F122AC
:10076200BB010DE58229F582E5833AF58302079FF5
:100772005007E92582F8020792BBFE07E92582F8B5
:100782000207ABE58229F582E5833AF5830207B8D1
:0D079200E6FB08E6F908E6FA08E6CBF822D7
:0C079F00E0F8A3E0F9A3E0FAA3E0FB22DD
:0D07AB00E2FB08E2F908E2FA08E2CBF822CE
:1007B800E493F8740193F9740293FA740393FB2297
:00000001FF
