:100003005570202564D0D0202564C1D00D0A00444A
:100013006F776E202564D0D0202564C1D00D0A00EF
:0E0DA100900136EFF0120CCB900136E0FF22ED
:100C1D00E4900109F0A37430F07B017A0179097F2A
:100C2D000312038BE4900109F0A37403F07B017AA6
:100C3D000179097F0412038BE4900109F0A374C8B4
:100C4D00F07B017A017909E4FF12038BE49001092D
:100C5D00F0A37480F07B017A0179097F0102038B87
:100C9D009001097440F0A37401F0A31207530001F1
:100CAD00C2009001107401F0E4A3F0A304F0E4A3DA
:0E0CBD00F0A3F07B017A0179097F0102081291
:100D33007BFF7A007903900111E4F0A3EFF0AF0594
:090D4300A3E4F0A3EFF00200911B
:100D4C007BFF7A007912900111E4F0A3EFF0AF056C
:090D5C00A3E4F0A3EFF002009102
:100D1800120C1D120C9D120D65D2AF7F14120D918D
:0B0D28007B017A017907120A0C80F0B1
:0F0D91007D607C09ED1D70011C144C70F7DFF1C3
:010DA0002230
:0B081200900115EBF0A3EAF0A3E9F061
:10081D00EF64016003020A0990000004F0E4A3F004
:10082D00A3F0A3F0A3F0A3F0A3F07F80900087E4E2
:10083D00F0A3DFFC7F80900007E4F0A3DFFC9001C4
:10084D0015E0FBA3E0FAA3E0F990000A1205F8FE0B
:10085D00D3940340037F0222EE700553B7EFC2BC61
:10086D0090000A1205F8B4010553B7EFD2BC900001
:10087D000A1205F8FFB4020543B710C2BCEFB4036A
:10088D000543B710D2BC1205DFD394C040037F02DD
:10089D00221205DFFFE598543F4FF598EF64C060D5
:1008AD0008EF644060030209949000021207177F5D
:1008BD00807E8D7D5B7C00120661900118120747CA
:1008CD00E4FFFE7D01FC900118E0F8A3E0F9A3E040
:1008DD00FAA3E0FBC31206F340037F022290011836
:1008ED00E0F8A3E0F9A3E0FAA3E0FBC3E49BFFE487
:1008FD009AFE740199FDE498FC9001181207479037
:10090D000115E0FBA3E0FAA3E0F99000011205F850
:10091D00FB64017038C28E538EFE5389BF5389CF4D
:10092D00438E40900118E0FCA3E0FDA3E0FEA3E0A0
:10093D00FF78081207048F8D900118A3A3A3E0F58B
:10094D008BC2AB5389BF538FFDD28E8073EB640284
:10095D007032538EEF438E01538EF7438E04900108
:10096D0018E0FCA3E0FDA3E0FEA3E0FF780812076A
:10097D00048FD6900118A3A3A3E0F5D753AFFB4383
:10098D008E10803C7F0222900115E0FBA3E0FAA3BC
:10099D00E0F91205DFFF70139000081205F8B4019D
:1009AD0005438E20801A538EDF8015EFB480119091
:1009BD0000081205F8B40105438780800353877F33
:1009CD00900115E0FBA3E0FAA3E0F99000091205F0
:1009DD00F8B40104D2AC8002C2AC9000071205F845
:1009ED00B40104D29C8002C29C90000B1205F854F5
:0E09FD00C0FFE5A2543F4FF5A27F00227F020B
:010A0B0022C8
:100CCB00900002E02487F582E43400F583EFF09086
:100CDB000002E004F0C394804002E4F0900003E0D3
:070CEB00700404F0D299220D
:100D7E001205DFFF600C120CCB740129F9E43AFA6C
:030D8E0080EE22D2
:03002300020B9E2F
:100B9E00C0E0C083C082C0D075D000C006C0073090
:100BAE00982DC298900006E07025900004E0C39442
:100BBE00804002E4F0900004E0FF04F074072FF58B
:100BCE0082E43400F583E599F09000057405F03069
:100BDE009930C299900002E0FF900001E0FE6F6034
:100BEE001C74872EF582E43400F583E0F5999000AD
:100BFE0001E004F0C394804009E4F0800590000306
:0F0C0E00E4F0D007D006D0D0D082D083D0E0322F
:10038B00EFD3940740037F01221205DFFED39403C2
:10039B0040037F0222EF7041EE700B9000011205BB
:1003AB00F8F4529352941205DFB4010B9000011232
:1003BB0005F84293F452941205DFFEB4020A900042
:1003CB00011205F842934294EEB4030D9000011212
:1003DB0005F8FEF45293EE4294EF6401704312055C
:1003EB00DFFE700B9000011205F8F452915292EE61
:1003FB00B4010B9000011205F84291F452921205D0
:10040B00DFB4020A9000011205F8429142921205E4
:10041B00DFB4030D9000011205F8FEF45291EE4289
:10042B0092EF640270431205DFFE700B9000011215
:10043B0005F8F452955296EEB4010B90000112059B
:10044B00F84295F452961205DFB4020A900001129D
:10045B0005F8429542961205DFB4030D9000011288
:10046B0005F8FEF45295EE4296EF640370431205C5
:10047B00DFFE700B9000011205F8F452B152B2EE90
:10048B00B4010B9000011205F842B1F452B21205FF
:10049B00DFB4020A9000011205F842B142B2120514
:1004AB00DFB4030D9000011205F8FEF452B1EE42D9
:1004BB00B2EF640470431205DFFE700B9000011263
:1004CB0005F8F452B352B4EEB4010B9000011205CF
:1004DB00F842B3F452B41205DFB4020A90000112D1
:1004EB0005F842B342B41205DFB4030D90000112BC
:1004FB0005F8FEF452B3EE42B4EF640570431205F7
:10050B00DFFE700B9000011205F8F452C952CAEECF
:10051B00B4010B9000011205F842C9F452CA12053E
:10052B00DFB4020A9000011205F842C942CA120553
:10053B00DFB4030D9000011205F8FEF452C9EE4230
:10054B00CAEF640670431205DFFE700B90000112B8
:10055B0005F8F452CB52CCEEB4010B90000112050E
:10056B00F842CBF452CC1205DFB4020A9000011210
:10057B0005F842CB42CC1205DFB4030D90000112FB
:10058B0005F8FEF452CBEE42CCEF64077043120534
:10059B00DFFF700B9000011205F8F452E152E2EF0D
:1005AB00B4010B9000011205F842E1F452E212057E
:1005BB00DFB4020A9000011205F842E142E2120593
:1005CB00DFB4030D9000011205F8FFF452E1EF4286
:0405DB00E27F002299
:050DAF00420137FFFFC7
:100CF200EF7005A28333FF22EFB40104A2868012B3
:100D0200EFB40204A287800AEFB40304A297800220
:060D1200A283E433FF227E
:100C6D00EF7008C2B4D2B5D2C0D2C1EFB40108D270
:100C7D00B4C2B5D2C0D2C1EFB40208D2B4D2B5C29B
:100C8D00C0D2C1EFB40308D2B4D2B5D2C0C2C12212
:100D650053943753933753B2CF53B1CF53B4FC5346
:090D7500B3FC53927F53917F22DD
:0B0A0C00900109EBF0A3EAF0A3E9F071
:100A1700E490010DF090010DE0FFC3940440030240
:100A27000B11120C6DE490010CF090010CE0FFC368
:100A370094044003020B08120CF2EF705AA3E0FC77
:100A470025E025E0FF90010CE0FD2FFF900137E046
:100A5700FEA3E0A807088005CEC313CE13D8F9304C
:100A6700E035AF04120D4C90010DE025E025E0FFC5
:100A770090010CE02FFF7E007401A807088005C3D2
:100A870033CE33CED8F9F4FFEEF4FE900137E05EB3
:100A9700F0A3E05FF0806190010CE0FF120CF2EF31
:100AA70064017054A3E0FC25E025E0FF90010CE011
:100AB700FD2FFF900137E0FEA3E0A807088005CED1
:100AC700C313CE13D8F920E02FAF04120D339001D2
:100AD7000DE025E025E0FF90010CE02FFF7E00747C
:100AE70001A807088005C333CE33CED8F9FF90019C
:100AF70037E04EF0A3E04FF090010CE004F0020A5B
:0A0B07003190010DE004F0020A1C19
:010B110022C1
:03000000020B12DE
:0C0B1200787FE4F6D8FD758121020B59B4
:1005DF00BB010689828A83E0225002E722BBFE021A
:0905EF00E32289828A83E493224D
:1005F800BB010CE58229F582E5833AF583E02250B8
:1006080006E92582F8E622BBFE06E92582F8E22201
:0D061800E58229F582E5833AF583E493221B
:1006250075F008758200EF2FFFEE33FECD33CDCC8C
:1006350033CCC58233C5829BED9AEC99E58298400F
:100645000CF582EE9BFEED9AFDEC99FC0FD5F0D6EC
:10065500E4CEFBE4CDFAE4CCF9A88222B800C1B916
:100665000059BA002DEC8BF084CFCECDFCE5F0CB54
:10067500F97818EF2FFFEE33FEED33FDEC33FCEB8D
:1006850033FB10D703994004EB99FB0FD8E5E4F948
:10069500FA227818EF2FFFEE33FEED33FDEC33FC35
:1006A500C933C910D7059BE99A4007EC9BFCE99A29
:1006B500F90FD8E0E4C9FAE4CCFB2275F010EF2F6E
:1006C500FFEE33FEED33FDCC33CCC833C810D7076E
:1006D5009BEC9AE899400AED9BFDEC9AFCE899F8A9
:0E06E5000FD5F0DAE4CDFBE4CCFAE4C8F9223C
:1006F300EB9FF5F0EA9E42F0E99D42F0E89C45F05D
:0107030022D3
:10070400E8600FECC313FCED13FDEE13FEEF13FFD3
:03071400D8F122F7
:10071700BB010DE58229F582E5833AF5830207A33C
:100727005007E92582F8020796BBFE07E92582F8FC
:100737000207AFE58229F582E5833AF5830207BC14
:0C074700ECF0A3EDF0A3EEF0A3EFF02225
:10075300A8828583F0D083D08212076A12076A12B7
:10076300076A12076AE473E493A3C583C5F0C583DC
:10077300C8C582C8F0A3C583C5F0C583C8C582C8F0
:010783002253
:10002600E5082411F582E43401F583E00508229001
:10003600010E300703900111E475F0011207CC029E
:1000460005DF2000E97F2ED2008018EF540F2490A0
:10005600D43440D4FF30040BEF24BFB41A0050034D
:100066002461FFE50960021509050CE50C7002051F
:100076000B30070E90010EE475F0011207CCEF026B
:100086000784020DA17403D2078003E4C207F508B2
:1000960090010E1207E3E4F509F50BF50CE509608E
:1000A600077F2012006980F5750AFFC201C200C2EF
:1000B60002C203C205C206C208120035FF700D3027
:1000C60007057F0012007AAF0CAE0B22B4255FC283
:1000D600D5C204120035FF24D0B40A00501A75F0B8
:1000E6000A780930D50508B6FF0106C6A426F6200B
:1000F600D5047002D20380D924CFB41A00EF50047D
:10010600C2E5D20402027BD20180C6D20080C0D2F0
:100116000280BCD2D580BAD20580B47F2012006995
:100126002002077401B5090040F1120026FF1200F3
:10013600690200A3D208D2068095120026FB12009F
:1001460026FA120026F94A4B7006794C7A037BFF91
:1001560020022EE509602A7E008E82758300120534
:10016600F860060EEE650A70F0C2D5EBC0E0EAC094
:10017600E0E9C0E0EE1202C2D0E0F9D0E0FAD0E049
:10018600FB1205DFFF60AAEBC0E0EAC0E0E9C0E0D1
:10019600120069D0E02401F9D0E03400FAD0E0FB87
:1001A600E50A0460DCD50AD980877BFF7A0279BE2E
:1001B600D202809C791080027908C206C2088008A3
:1001C600D2D5790A8004790AC2D5E50A047002F507
:1001D6000AE4FAFDFEFF120026FC7B08200113123A
:1001E6000026FD7B1030000A120026FE120026FFB4
:1001F6007B20EC3382D592D55013C3E43000069FA2
:10020600FFE49EFEE42001039DFDE49CFCE4CBF8A4
:10021600C201EC700CCFCECDCCE824F8F870F38098
:1002260017C3EF33FFEE33FEED33FDEC33FCEB3358
:10023600FB994002FB0FD8E9EB300105F8D0E0C48A
:1002460048B201C0E00AEC4D4E4F78207B0070C2E8
:10025600EAB50A0040BCC0E01202C4D0F0D0E020EB
:100266000104C4C0E0C4B201C0F0120052D0F0D5FF
:10027600F0EB0200A31207EC01405301BA5801113A
:100286004C010D4201BE4F01C64401C64901264339
:0802960001CC5501B04601B096
:10029E004501B047036C5001152D01192E013C2B61
:1002AE00011D23013A2003552A00D54800000134D0
:1002BE003F3F3F00790AA2D5200314300509B9103B
:1002CE00020404B9080104A2D5200602500104203C
:1002DE0002689202B509005034C0E07F2030031945
:1002EE007F30A20272067205500F12031BC202C2A9
:1002FE0006C205C2087F30800F300503E9C0E01248
:10030E000069300503D0E0F9D0E0B509CC3005170F
:10031E007F30B9100C1200697F583004077F788047
:10032E0003B908031200693002057F2D0200697FB0
:10033E00202008F87F2B2006F322920280CF286E11
:10034E00756C6C2900D2011200263001F8C20178BA
:10035E000930D50108F60200D52D50434958120038
:10036E00262403B405004001E49003679312005A5B
:0D037E00743A12005AD2037509040201BA44
:100B1E00020D18E493A3F8E493A34003F68001F2C8
:100B2E0008DFF48029E493A3F85407240CC8C333D8
:100B3E00C4540F4420C8834004F456800146F6DFA7
:100B4E00E4800B0102040810204080900DAFE47E7B
:100B5E00019360BCA3FF543F30E509541FFEE4939C
:100B6E00A360010ECF54C025E060A840B8E493A363
:100B7E00FAE493A3F8E493A3C8C582C8CAC583CA8E
:100B8E00F0A3C8C582C8CAC583CADFE9DEE780BE46
:010DB400003E
:10078400BB010689828A83F0225002F722BBFE0154
:02079400F3224E
:0D079600E6FB08E6F908E6FA08E6CBF822D3
:0C07A300E0F8A3E0F9A3E0FAA3E0FB22D9
:0D07AF00E2FB08E2F908E2FA08E2CBF822CA
:1007BC00E493F8740193F9740293FA740393FB2293
:1007CC00F8E0FBA3A3E0F925F0F0E58215827002B6
:0707DC001583E0FA38F0225A
:0907E300EBF0A3EAF0A3E9F02217
:1007EC00D083D082F8E4937012740193700DA3A39C
:1007FC0093F8740193F5828883E4737402936860B0
:06080C00EFA3A3A380DFAF
:00000001FF
