:021BF4001BC50F
:021BF6001BDFF3
:021BF80018BE15
:101B3400C6F4B6AFD1B2CFDF0D0A00CDA3D6B9D16A
:101B4400B2CFDF0D0A007461736B3220737461725B
:041B5400740D0A0002
:041BEB004101BF00F5
:0E1BB70090018AEFF0121B0D90018AE0FF22D0
:101B8F009001087403F0E4900107F07B017A01796A
:061B9F00077F03020F9016
:101A32009001077440F0A37401F0A312084600015C
:101A4200C20090010E7401F0E4A3F0A304F0E4A339
:0E1A5200F0A3F07B017A0179077F010213E611
:101BA500121B8F121A32120003121BD2121B76D28D
:021BB500AF225D
:0D1BC500121BA57F01120E1FE4FF020EA8E7
:101991009001BFE07BFF700E7A1B79341209B37F8F
:1019A10002120E1F800F7A1B793F1209B37F0212B8
:1019B1000EA8121AE39001BFE070047F0180027F3C
:0719C100009001BFEFF022CE
:01000A0022D3
:0C1BDF00121B587D047F02120F3180F4AD
:1018BE007BFF7A1B794A1209B37B017A0179601298
:1018CE0015E0900160E07002A3E070077F50121ADD
:1018DE00B98028C3900160E06480948050077F50E7
:1018EE001219C88016D3900161E09400900160E057
:1018FE006480948040057F501219567D017F02123C
:04190E000F3180B560
:100F9000EFD3940740037F01221205B9FED39403D7
:100FA00040037F0222EF7041EE700B9000011205AA
:100FB000D2F4529352941205B9B4010B900001126D
:100FC00005D24293F452941205B9FEB4020A90007D
:100FD000011205D242934294EEB4030D9000011227
:100FE00005D2FEF45293EE4294EF64017043120571
:100FF000B9FE700B9000011205D2F452915292EE9C
:10100000B4010B9000011205D24291F452921205E4
:10101000B9B4020A9000011205D24291429212051F
:10102000B9B4030D9000011205D2FEF45291EE42C4
:1010300092EF640270431205B9FE700B900001122A
:1010400005D2F452955296EEB4010B9000011205B0
:10105000D24295F452961205B9B4020A90000112D8
:1010600005D2429542961205B9B4030D90000112C3
:1010700005D2FEF45295EE4296EF640370431205DA
:10108000B9FE700B9000011205D2F452B152B2EECB
:10109000B4010B9000011205D242B1F452B2120514
:1010A000B9B4020A9000011205D242B142B212054F
:1010B000B9B4030D9000011205D2FEF452B1EE4214
:1010C000B2EF640470431205B9FE700B9000011278
:1010D00005D2F452B352B4EEB4010B9000011205E4
:1010E000D242B3F452B41205B9B4020A900001120C
:1010F00005D242B342B41205B9B4030D90000112F7
:1011000005D2FEF452B3EE42B4EF6405704312050B
:10111000B9FE700B9000011205D2F452C952CAEE0A
:10112000B4010B9000011205D242C9F452CA120553
:10113000B9B4020A9000011205D242C942CA12058E
:10114000B9B4030D9000011205D2FEF452C9EE426B
:10115000CAEF640670431205B9FE700B90000112CD
:1011600005D2F452CB52CCEEB4010B900001120523
:10117000D242CBF452CC1205B9B4020A900001124B
:1011800005D242CB42CC1205B9B4030D9000011236
:1011900005D2FEF452CBEE42CCEF64077043120549
:1011A000B9FF700B9000011205D2F452E152E2EF48
:1011B000B4010B9000011205D242E1F452E2120593
:1011C000B9B4020A9000011205D242E142E21205CE
:1011D000B9B4030D9000011205D2FFF452E1EF42C1
:0411E000E27F002288
:10002600EF640160030202E943BA809000291205D9
:10003600D2FED394035027EE700653B6FB53B5FB9E
:10004600EEB4010653B6FB43B504EEB4020643B65E
:100056000453B5FBEEB4030643B60443B50490005F
:100066002A1205D2FED394035027EE700653B6F734
:1000760053B5F7EEB4010653B6F743B508EEB4022E
:100086000643B60853B5F7EEB4030643B60843B5C0
:100096000890002B1205D2FED394035027EE70066B
:1000A60053EEEF53DFEFEEB4010653EEEF43DF10EE
:1000B600EEB4020643EE1053DFEFEEB4030643EE52
:1000C6001043DF1090002C1205D2FED39403502764
:1000D600EE700653EEDF53DFDFEEB4010653EEDFBC
:1000E60043DF20EEB4020643EE2053DFDFEEB40317
:1000F6000643EE2043DF2090FECCE4F0A3F0120589
:10010600B9FE90FEC8E0548F4EF09000011205D261
:10011600FE90FEC9E0548F4EF09000021205D2FE0A
:1001260090FECAE0548F4EF09000031205D2FE9066
:10013600FECBE0548F4EF09000271205D290FEC8F9
:10014600B40106E04408F08004E054F7F09000287B
:100156001205D290FEC8B40106E04404F08004E023
:1001660054FBF090001B1205D290FECCB40106E0C1
:100176004401F08004E054FEF090001C1205D29079
:10018600FECCB40106E04404F08004E054FBF09099
:10019600001D1205D290FECCB40106E04410F0809A
:1001A60004E054EFF090001E1205D290FECCB4018C
:1001B60006E04440F08004E054BFF090001F1205B2
:1001C600D290FECDB40106E04401F08004E054FE76
:1001D600F09000201205D290FECDB40106E0440452
:1001E600F08004E054FBF09000211205D290FECD81
:1001F600B40106E04410F08004E054EFF0900022D1
:100206001205D290FECDB40106E04440F08004E031
:1002160054BFF0900008120672FD90FED2E5F0F091
:10022600A3EDF090000A120672FD90FED5E5F0F0FF
:10023600A3EDF090000C120672FD90FED7E5F0F0EB
:10024600A3EDF090000E120672FD90FED9E5F0F0D7
:10025600A3EDF0900010120672FD90FEDBE5F0F0C3
:10026600A3EDF090002F1205D290FEC17007E05466
:10027600FEFEF08005E04401FEF090FEC1EEF09037
:1002860000301205D290FEB2F090002E1205D290E8
:10029600FEB1F090001A1205D290FEDEF090003208
:1002A6001205D290FEDDB40106E04410F08004E0B1
:1002B60054EFF09000331205D290FEDDB40106E053
:1002C6004480F08004E0547FF09000311205D29013
:1002D600FEC0B40107E04401F00204BAE054FEF0A7
:1002E6000204BAEF640260030204C043BA809000BD
:1002F6002D1205D2FFD394035027EF700653EEBF9D
:1003060053DFBFEFB4010653EEBF43DF40EFB40245
:100316000643EE4053DFBFEFB4030643EE4043DF30
:100326004090FEECE4F0A3F09000041205D2FF909A
:10033600FEE8E0548F4FF09000051205D2FF90FEC4
:10034600E9E0548F4FF09000061205D2FF90FEEAC6
:10035600E0548F4FF09000071205D2FF90FEEBE0BD
:10036600548F4FF09000271205D290FEE8B4010694
:10037600E04408F08004E054F7F09000281205D21B
:1003860090FEE8B40106E04404F08004E054FBF07B
:100396009000231205D290FEECB40106E04401F071
:1003A6008004E054FEF09000241205D290FEECB4D6
:1003B6000106E04410F08004E054EFF090002512AE
:1003C60005D290FEEDB40106E04401F08004E0544D
:1003D600FEF09000261205D290FEEDB40106E04430
:1003E60010F08004E054EFF0900008120672FF90BF
:1003F600FEF2E5F0F0A3EFF0900012120672FF9005
:10040600FEF5E5F0F0A3EFF0900014120672FF90EF
:10041600FEF7E5F0F0A3EFF0900016120672FF90DB
:10042600FEF9E5F0F0A3EFF0900018120672FF90C7
:10043600FEFBE5F0F0A3EFF090002F1205D290FE40
:10044600C17007E054FEFFF08005E04401FFF09024
:10045600FEC1EFF09000301205D290FEB6F090008B
:100466002E1205D290FEB5F090001A1205D290FE1B
:10047600FEF09000321205D290FEFDB40106E04473
:1004860010F08004E054EFF09000331205D290FE95
:10049600FDB40106E04480F08004E0547FF0900053
:1004A600311205D290FEE0B40106E04401F080046A
:0D04B600E054FEF053BA7F7F00227F022247
:1017BA0043BA80EF64017039120647FF90FED5E5FF
:1017CA00F0F0A3EFF0900002120672FF90FED7E548
:1017DA00F0F0A3EFF0900004120672FF90FED9E534
:1017EA00F0F0A3EFF0900006120672FF90FEDB8085
:1017FA003A900008120672FF90FEF5E5F0F0A3EFAA
:10180A00F090000A120672FF90FEF7E5F0F0A3EFDF
:10181A00F090000C120672FF90FEF9E5F0F0A3EFCB
:10182A00F090000E120672FF90FEFBE5F0F0A3EFB7
:05183A00F053BA7F220B
:0B13E600900113EBF0A3EAF0A3E9F084
:1013F100EF640160030215DD90000004F0E4A3F046
:10140100A3F0A3F0A3F0A3F0A3F07F80900087E402
:10141100F0A3DFFC7F80900007E4F0A3DFFC9001E4
:1014210013E0FBA3E0FAA3E0F990000A1205D2FE53
:10143100D3940340037F0222EE700553B7EFC2BC81
:1014410090000A1205D2B4010553B7EFD2BC900047
:101451000A1205D2FFB4020543B710C2BCEFB403B0
:101461000543B710D2BC1205B9D394C040037F0223
:10147100221205B9FFE598543F4FF598EF64C0601B
:1014810008EF6440600302156890000212080A7FA9
:10149100807E8D7D5B7C0012075490011612083A04
:1014A100E4FFFE7D01FC900116E0F8A3E0F9A3E062
:1014B100FAA3E0FBC31207E640037F022290011664
:1014C100E0F8A3E0F9A3E0FAA3E0FBC3E49BFFE4A7
:1014D1009AFE740199FDE498FC90011612083A9065
:1014E1000113E0FBA3E0FAA3E0F99000011205D299
:1014F100FB64017038C28E538EFE5389BF5389CF6E
:10150100438E40900116E0FCA3E0FDA3E0FEA3E0C2
:10151100FF78081207F78F8D900116A3A3A3E0F5BA
:101521008BC2AB5389BF538FFDD28E8073EB6402A4
:101531007032538EEF438E01538EF7438E04900128
:1015410016E0FCA3E0FDA3E0FEA3E0FF780812078C
:10155100F78FD6900116A3A3A3E0F5D753AFFB43B2
:101561008E10803C7F0222900113E0FBA3E0FAA3DE
:10157100E0F91205B9FF70139000081205D2B40109
:1015810005438E20801A538EDF8015EFB4801190B1
:1015910000081205D2B40105438780800353877F79
:1015A100900113E0FBA3E0FAA3E0F9900009120512
:1015B100D2B40104D2AC8002C2AC9000071205D2B1
:1015C100B40104D29C8002C29C90000B1205D2543B
:0E15D100C0FFE5A2543F4FF5A27F00227F022B
:0115DF0022E9
:101B0D00900002E02487F582E43400F583EFF09035
:101B1D000002E004F0C394804002E4F0900003E082
:071B2D00700404F0D29922BC
:10000E001205B9FF600C121B0D740129F9E43AFABE
:03001E0080EE224F
:0300230002183F81
:10183F00C0E0C083C082C0D075D000C006C00730E2
:10184F00982DC298900006E07025900004E0C39494
:10185F00804002E4F0900004E0FF04F074072FF5DD
:10186F0082E43400F583E599F09000057405F030BB
:10187F009930C299900002E0FF900001E0FE6F6086
:10188F001C74872EF582E43400F583E0F5999000FF
:10189F0001E004F0C394804009E4F0800590000358
:0F18AF00E4F0D007D006D0D0D082D083D0E03282
:03000B00020CB232
:100CAD00C2AF80FE32120CB185D00B75D008AAE010
:100CBD00C28CE58A24F7F58AE58C34D8F58CD28C74
:100CCD00EC2424F8E6BC020274FFC39581B4140031
:100CDD0040CE7903781816E608700BC2AFE630E106
:100CED00034418F6D2AF08D9EDEA8BD030120122A9
:100CFD00D50DFCC0E0C0D0C0F0C083C082C000C024
:100D0D0001C002C003C004C005C006C007E50C2326
:100D1D002419F87440C2AF46F6D2AFD212E50CFFDB
:100D2D00232419F80F0808BF03047F007819E63053
:100D3D00E4F200E50CC39F5020050C7423250CF83C
:100D4D00E6FDA68108E6AE0CBE020274FFCDF8E802
:100D5D006D60E008E6C0E080F6E50CD39F4027E526
:100D6D000C2424F8E6AE0CBE020274FFFD18E6CD8D
:100D7D00F8E5816D6006D0E0F61880F5E50C2423CA
:100D8D00C8F6150C80D3750D05E50C232419F87FD5
:100D9D0004C2AFE610E61E30E00310E20C7F003017
:050DAD00E10730E30442
:100DB2007F0854F4547CC6D2AF54804207C2122238
:100DC200F6D2AFD007D006D005D004D003D002D0DF
:100DD20001D000D082D083D0F0D0D0D0E0C2122295
:100DE2007823A68174026006FF0876FFDFFB7F038B
:100DF200E47818F608F608DFFA78197630901BF4D2
:100E0200740193C0E0E493C0E0750D054389017558
:0D0E12008AF0758CD8D28CD2AFD2A9220202
:100E1F00EFD3940240037FFF2274192F2FF8E6209F
:100E2F00E5F4C2AFE64430F6D2AFAE0CEEC39F503E
:100E3F00210E74232EF8E6F908E618BE020274FF9D
:100E4F00FDED69600909E71919F7090980F316160D
:100E5F0080DAEED39F400405810581EED39F4022B7
:100E6F0074232EF808E6F9EEB50C02A981180606D0
:100E7F00E6FDED6960091919E70909F71980F31EF5
:100E8F0080D9EF2423F8E604F8EF2F04901BF49396
:090E9F00F608EF2F93F67F002204
:100EA800EFD3940240037FFF22EF232419F8E630A2
:100EB800E5F4C2AFE6548CF6D2AFE50CB5070A7478
:100EC800232FF8E6F581020D28502E74242FF8E61A
:100ED800BF020274FFFD18E6F974232FF8FBE6FC45
:100EE800E96C6008A805E7F61D1980F4A803A605B3
:100EF8001FE50CB507E37F002274242FF8E6FD18E0
:100F080086010F74232FF8A601088604E50CB5079F
:100F180002AC81ED6C60080D09A805E6F780F4E5E0
:090F28000CB507DE89817F00226F
:100F31008FF0E4FFFEE50C232418F8C2A930F70D69
:100F41007F08E6600B2DF660325030800730F106E5
:100F5100EDF660277E020830F010C2AFE610E725FB
:100F61000E30E20CD2AF7F048014C2AFE610E71559
:100F710054EC4EF6D2AFD2A9020D287F0808EF44F7
:0F0F810083F4C2AF56C6D2AFD2A954804FFF221D
:041BEF004101C001EF
:0700030053B27F53B17F22CD
:101B580020B70C9001C0E0B40105E4F002000A309F
:0E1B6800B70B9001C0E0700504F01219912235
:1011E40090017C745DF0A374BFF0E490018EF090E4
:1011F40001A2F09001A4F090016CE0FD9001A260C6
:1012040008E04440F044808006E054BFF0547FF08E
:101214009001A4E0F0ED60047F0180027F00900162
:1012240095EFF090016CE060047F0180027F0090F4
:101234000196EFF09001777460F0E49001A0F090D3
:101244000170E0FFE4FCFDFE7BBF7A5DF9F8120655
:10125400C9E47B64FAF9F8121912900184EEF0A340
:10126400EFF090016EE0FD9001A26008E04410F000
:1012740044208006E054EFF054DFF09001A4E0F045
:10128400ED60047F0180027F00900193EFF09001F4
:101294006EE060047F0180027F00900194EFF09083
:1012A40001767470F0E490019FF0900172E0FFE425
:1012B400FCFDFE7BBF7A5DF9F81206C9E47B64FA93
:1012C400F9F8121912900182EEF0A3EFF090016D7B
:1012D400E0FD9001A26010E04401F04402F09001AE
:1012E400A4E04401F0800EE054FEF054FDF09001BF
:1012F400A4E054FEF0ED60047F0180027F009001C1
:101304008FEFF090016DE060047F0180027F009018
:101314000190EFF09001747470F0E490019DF090EE
:101324000171E0FFE4FCFDFE7BBF7A5DF9F8120673
:10133400C9E47B64FAF9F812191290017EEEF0A365
:10134400EFF090016FE0FD9001A26010E04404F022
:101354004408F09001A4E04404F0800EE054FBF053
:1013640054F7F09001A4E054FBF0ED60047F018099
:10137400027F00900191EFF090016FE060047F0123
:1013840080027F00900192EFF09001757460F0E4A8
:1013940090019EF0900173E0FFE4FCFDFE7BBF7AB8
:1013A4005DF9F81206C9E47B64FAF9F8121912908F
:1013B4000180EEF0A3EFF090016BE0FF60047E018A
:1013C40080027E009001A7EEF0EF60047F018002AE
:1013D4007F009001A5EFF07B017A0179747F01020F
:0213E4000026E1
:101A6000FD121A79A3EFF0AF06121A79A3EFF0AFC7
:091A700006121A79A3EFF0AF068B
:101A7900ED600AEFC313FFC374329FFF22EFC31354
:041A89002432FF22E2
:0D1BD20053920F53910F5396F05395F0224C
:021AB900AE0776
:101ABB009001627401F0A3F0A3F0A3F0A3F0121A4B
:101ACB0060A3EFF0786B7C017B017A0179627E0079
:081ADB007F091205930211E4DA
:021A8D00AE07A2
:101A8F009001A87401F0A3F0A3F0A3F0A3F0E41267
:101A9F001A60A3EFF07B01786B7C010D7A0179A8B6
:0A1AAF007E007F091205930211E486
:0219C800AE0768
:1019CA009001627401F0A3F0A3F0A3F0A3F0FDE488
:1019DA00FF121A79A3EFF0E4FF121A69A3EFF07865
:1019EA006B7C017B017A0179627E007F0912059383
:0319FA000211E4F3
:02195600AE07DA
:101958009001627401F0A3F0A3F0A3F0A3F0FD12CC
:101968001A71A3EFF0E4FF121A79A3EFF0E4FF1263
:101978001A79A3EFF0786B7C017B017A0179627E9A
:09198800007F091205930211E42D
:0219FD00AE0733
:1019FF009001B17401F0A3F0A3F0A3F0A3F0FD12D6
:101A0F001A71A3EFF0AF061D121A71A3EFF07B014D
:101A1F00786B7C010D7A0179B17E007F09120593F5
:031A2F000211E4BD
:101AE300E490011AF0A3F0A3F0A3F0A3F0A3F0A3F2
:101AF300F0A3F0A3F0786B7C017D017B017A01797F
:0A1B03001AFE7F091205930211E497
:101B760053B47F53B37F53CAFE53C9FE5394BF5326
:091B860093BF53B2F353B1F322F3
:101691009001BAEBF0A3EAF0A3E9F09001BAE0FB04
:1016A100A3E0FAA3E0F920C7071205B944018005B8
:1016B1001205B954FE1205FF9001BAE0FBA3E0FA4E
:1016C100A3E0F92086071205B9440280051205B985
:1016D10054FD1205FF9001BAE0FBA3E0FAA3E0F983
:1016E10020C8071205B9440480051205B954FB123C
:1016F10005FF9001BAE0FBA3E0FAA3E0F920B207ED
:101701001205B9440880051205B954F71205FF9076
:1017110001BAE0FBA3E0FAA3E0F920B3071205B98F
:0D172100441080051205B954EF1205FF2297
:0B15E000900162EBF0A3EAF0A3E9F039
:1015EB00E4A3F0A3F0FFFE30C710E02440F090011D
:1015FB0065E03400F00FBF00010E308613900166DA
:10160B00E02420F0900165E03400F00FBF00010EE4
:10161B0030C8050FBF00010E30B213900166E024F5
:10162B00E0F0900165E034FFF00FBF00010E30B326
:10163B0013900166E024C0F0900165E034FFF00FD9
:10164B00BF00010EEF4E70159001BDE0F9A3E0FF56
:10165B00900162E0FBA3E0FAA3E0C98023AC06ADE6
:10166B0007900165E0FEA3E0FF1206119001BDEEAD
:10167B00F0A3EFF0900162E0FBA3E0FAA3E0F9EE38
:05168B008FF01206AA19
:011690002237
:0300000002172EB6
:0C172E00787FE4F6D8FD75812502177560
:1004C300E709F608DFFA8046E709F208DFFA803E1B
:1004D30088828C83E709F0A3DFFA8032E309F60808
:1004E300DFFA8078E309F208DFFA807088828C8370
:1004F300E309F0A3DFFA806489828A83E0A3F60824
:10050300DFFA805889828A83E0A3F208DFFA804CFD
:1005130080D280FA80C680D4806980F280338010D4
:1005230080A680EA809A80A880DA80E280CA80333D
:1005330089828A83ECFAE493A3C8C582C8CCC583B5
:10054300CCF0A3C8C582C8CCC583CCDFE9DEE78085
:100553000D89828A83E493A3F608DFF9ECFAA9F004
:10056300EDFB2289828A83ECFAE0A3C8C582C8CC5A
:10057300C583CCF0A3C8C582C8CCC583CCDFEADE73
:10058300E880DB89828A83E493A3F208DFF980CCD5
:1005930088F0EF60010E4E60C388F0ED2402B404CE
:1005A3000050B9F582EB2402B4040050AF23234575
:0605B30082239005137382
:1005B900BB010689828A83E0225002E722BBFE0240
:0905C900E32289828A83E4932273
:1005D200BB010CE58229F582E5833AF583E02250DE
:1005E20006E92582F8E622BBFE06E92582F8E22228
:0D05F200E58229F582E5833AF583E4932242
:1005FF00BB010689828A83F0225002F722BBFE01DB
:02060F00F322D4
:10061100C2D5EC30E709B2D5E4C39DFDE49CFCEE04
:1006210030E715B2D5E4C39FFFE49EFE120877C3FD
:10063100E49DFDE49CFC800312087730D507C3E4F8
:060641009FFFE49EFE2273
:10064700BB010A89828A83E0F5F0A3E0225006877E
:10065700F009E71922BBFE07E3F5F009E319228940
:0B066700828A83E493F5F07401932273
:10067200BB0110E58229F582E5833AF583E0F5F0C6
:10068200A3E0225009E92582F886F008E622BBFEA3
:100692000AE92582F8E2F5F008E222E5832AF583E9
:0806A200E993F5F0A3E99322AE
:1006AA00BB010A89828A83F0E5F0A3F0225006F79B
:0F06BA0009A7F01922BBFE06F3E5F009F3192298
:1006C900E88FF0A4CC8BF0A42CFCE98EF0A42CFCD0
:1006D9008AF0EDA42CFCEA8EF0A4CDA8F08BF0A44E
:1006E9002DCC3825F0FDE98FF0A42CCD35F0FCEBAD
:1006F9008EF0A4FEA9F0EB8FF0A4CFC5F02ECD3972
:0F070900FEE43CFCEAA42DCE35F0FDE43CFC22DE
:1007180075F008758200EF2FFFEE33FECD33CDCC98
:1007280033CCC58233C5829BED9AEC99E58298401B
:100738000CF582EE9BFEED9AFDEC99FC0FD5F0D6F8
:10074800E4CEFBE4CDFAE4CCF9A88222B800C1B922
:100758000059BA002DEC8BF084CFCECDFCE5F0CB60
:10076800F97818EF2FFFEE33FEED33FDEC33FCEB99
:1007780033FB10D703994004EB99FB0FD8E5E4F954
:10078800FA227818EF2FFFEE33FEED33FDEC33FC41
:10079800C933C910D7059BE99A4007EC9BFCE99A35
:1007A800F90FD8E0E4C9FAE4CCFB2275F010EF2F7A
:1007B800FFEE33FEED33FDCC33CCC833C810D7077A
:1007C8009BEC9AE899400AED9BFDEC9AFCE899F8B5
:0E07D8000FD5F0DAE4CDFBE4CCFAE4C8F92248
:10191200C2D5E830E70FB2D5E4C39BFBE49AFAE400
:1019220099F9E498F8EC30E717B2D5121948120782
:1019320054E4C39BFBE49AFAE499F9E498F880032F
:1019420012075430D50DE4C39FFFE49EFEE49DFDD3
:04195200E49CFC22F3
:1007E600EB9FF5F0EA9E42F0E99D42F0E89C45F069
:0107F60022E0
:1007F700E8600FECC313FCED13FDEE13FEEF13FFE0
:03080700D8F12203
:10080A00BB010DE58229F582E5833AF5830208D911
:10081A005007E92582F80208CCBBFE07E92582F8D1
:10082A000208E5E58229F582E5833AF5830208F2B2
:0C083A00ECF0A3EDF0A3EEF0A3EFF02231
:10084600A8828583F0D083D08212085D12085D12DB
:10085600085D12085DE473E493A3C583C5F0C58300
:10086600C8C582C8F0A3C583C5F0C583C8C582C8FC
:01087600225F
:10094800E5132465F582E43401F583E0051322906C
:100958000162301003900165E475F001120902028A
:1009680005B92009E97F2ED2098018EF540F249089
:10097800D43440D4FF300D0BEF24BFB41A00500319
:100988002461FFE514600215140517E517700205C8
:100998001630100E900162E475F001120902EF02A0
:1009A80005FF021BB77403D2108003E4C210F513CD
:1009B800900162120919E4F514F516F517E51460AB
:1009C800077F2012098B80F57515FFC20AC209C27C
:1009D8000BC20CC20EC20FC211120957FF700D30A4
:1009E80010057F0012099CAF17AE1622B4255FC20E
:1009F800D5C20D120957FF24D0B40A00501A75F059
:100A08000A781430D50508B6FF0106C6A426F620D4
:100A1800D5047002D20C80D924CFB41A00EF500448
:100A2800C2E5D20D020B9DD20A80C6D20980C0D27F
:100A38000B80BCD2D580BAD20E80B47F2012098B2D
:100A4800200B077401B5140040F1120948FF120980
:100A58008B0209C5D211D20F8095120948FB1209E1
:100A680048FA120948F94A4B7006796E7A0C7BFFEE
:100A7800200B2EE514602A7E008E827583001205F5
:100A8800D260060EEE651570F0C2D5EBC0E0EAC084
:100A9800E0E9C0E0EE120BE4D0E0F9D0E0FAD0E0F3
:100AA800FB1205B9FF60AAEBC0E0EAC0E0E9C0E0CC
:100AB80012098BD0E02401F9D0E03400FAD0E0FB31
:100AC800E5150460DCD515D980877BFF7A0B79E0C2
:100AD800D20B809C791080027908C20FC21180085D
:100AE800D2D5790A8004790AC2D5E515047002F5D1
:100AF80015E4FAFDFEFF120948FC7B08200A1312D0
:100B08000948FD7B1030090A120948FE120948FFFE
:100B18007B20EC3382D592D55013C3E43009069F6D
:100B2800FFE49EFEE4200A039DFDE49CFCE4CBF870
:100B3800C20AEC700CCFCECDCCE824F8F870F38064
:100B480017C3EF33FFEE33FEED33FDEC33FCEB332D
:100B5800FB994002FB0FD8E9EB300A05F8D0E0C456
:100B680048B20AC0E00AEC4D4E4F78207B0070C2B4
:100B7800EAB5150040BCC0E0120BE6D0F0D0E0208A
:100B88000A04C4C0E0C4B20AC0F0120974D0F0D597
:100B9800F0EB0209C51209220A62530ADC580A332B
:100BA8004C0A2F420AE04F0AE8440AE8490A484337
:080BB8000AEE550AD2460AD2EA
:100BC000450AD2470C8E500A372D0A3B2E0A5E2B5F
:100BD0000A3F230A5C200C772A09F74800000A56CE
:100BE0003F3F3F00790AA2D5200C14300E09B910FE
:100BF000020404B9080104A2D5200F025001042008
:100C00000B68920BB514005034C0E07F20300C19F3
:100C10007F30A20B720F720E500F120C3DC20BC22E
:100C20000FC20EC2117F30800F300E03E9C0E012F8
:100C3000098B300E03D0E0F9D0E0B514CC300E179C
:100C40007F30B9100C12098B7F58300D077F7880E8
:100C500003B9080312098B300B057F2D02098B7F26
:100C6000202011F87F2B200FF322920B80CF286ECB
:100C7000756C6C2900D20A120948300AF8C20A7849
:100C80001430D50108F60209F72D504349581209CE
:100C9000482403B405004001E4900C899312097CB8
:0D0CA000743A12097CD20C751404020ADCAF
:10173A00020DE2E493A3F8E493A34003F68001F2D6
:10174A0008DFF48029E493A3F85407240CC8C333B0
:10175A00C4540F4420C8834004F456800146F6DF7F
:10176A00E4800B0102040810204080901BEBE47E09
:10177A00019360BCA3FF543F30E509541FFEE49374
:10178A00A360010ECF54C025E060A840B8E493A33B
:10179A00FAE493A3F8E493A3C8C582C8CAC583CA66
:1017AA00F0A3C8C582C8CAC583CADFE9DEE780BE1E
:011BF30000F1
:10087700BC000BBE0029EF8DF084FFADF022E4CC65
:10088700F875F008EF2FFFEE33FEEC33FCEE9DEC2E
:10089700984005FCEE9DFE0FD5F0E9E4CEFD22ED74
:1008A700F8F5F0EE8420D21CFEADF075F008EF2FBE
:1008B700FFED33FD4007985006D5F0F222C398FDAF
:0508C7000FD5F0EA224C
:0D08CC00E6FB08E6F908E6FA08E6CBF8229C
:0C08D900E0F8A3E0F9A3E0FAA3E0FB22A2
:0D08E500E2FB08E2F908E2FA08E2CBF82293
:1008F200E493F8740193F9740293FA740393FB225C
:10090200F8E0FBA3A3E0F925F0F0E582158270027E
:070912001583E0FA38F02222
:09091900EBF0A3EAF0A3E9F022DF
:10092200D083D082F8E4937012740193700DA3A364
:1009320093F8740193F5828883E473740293686078
:06094200EFA3A3A380DF78
:00000001FF
