:03000300012200D7
:10006600E4F508750920FB7A0079087F0412039EDF
:10007600E4F5087509CFFB7A0079087F0212039E22
:10008600E4F508750930FB7A0079087F0102039EC2
:100BE800750840750901750D00750CC2750B017506
:100BF8000A00750F01E4F510751101F512F513FBE4
:090C08007A0079087F010207C897
:100C3400E4F508F509750A01F50BF50C750DFF755A
:0E0C44000E10750F01FB7A007908FF0200A662
:100B9000E520D394004025D52022E51FD3940040C2
:100BA00018E4FFEFC3951F501074002FF582E43452
:0C0BB00000F583E0F5220F80EAE4F51F59
:010BBC002216
:10097E00E4F508F509E50945087003C38001D39233
:10098E00A7E509640145087003C38001D392A6E56B
:10099E0009640245087003C38001D39295E509648A
:1009AE000345087003C38001D39294E5096404459E
:1009BE00087003C38001D392A3E50964054508704E
:1009CE0003C38001D392A2E509640645087003C3F0
:1009DE008001D392A1E509640745087003C3800125
:1009EE00D392A07FFA120C650509E509700205087D
:0E09FE00C39408E508648094805003020983C6
:010A0C0022C7
:100A0D00750800750908E50945087003C38001D311
:100A1D0092A7E509640145087003C38001D392A62E
:100A2D00E509640245087003C38001D39295E50979
:100A3D00640345087003C38001D39294E5096404EF
:100A4D0045087003C38001D392A3E50964054508E9
:100A5D007003C38001D392A2E509640645087003B3
:100A6D00C38001D392A1E509640745087003C380D3
:100A7D0001D392A07FFA120C65E5091509700215D4
:0D0A8D0008C3E508648094804003020A134A
:010A9A002239
:100BBD00120066120BE8120C34D2AFC2C57F0A12B6
:100BCD000C65E522700812097E75220280EFE52280
:0B0BDD00B401EA120A0D75220280E24A
:10039E00EFD3940740037F01221205F2FED394039C
:1003AE0040037F0222EF7041EE700B9000011206A7
:1003BE000BF4529352941205F2B4010B90000112F9
:1003CE00060B4293F452941205F2FEB4020A900008
:1003DE000112060B42934294EEB4030D90000112EB
:1003EE00060BFEF45293EE4294EF64017043120535
:1003FE00F2FE700B90000112060BF452915292EE27
:10040E00B4010B90000112060B4291F452921205A8
:10041E00F2B4020A90000112060B429142921205AA
:10042E00F2B4030D90000112060BFEF45291EE424F
:10043E0092EF640270431205F2FE700B90000112EF
:10044E00060BF452955296EEB4010B900001120673
:10045E000B4295F452961205F2B4020A9000011264
:10046E00060B429542961205F2B4030D900001124E
:10047E00060BFEF45295EE4296EF6403704312059E
:10048E00F2FE700B90000112060BF452B152B2EE56
:10049E00B4010B90000112060B42B1F452B21205D8
:1004AE00F2B4020A90000112060B42B142B21205DA
:1004BE00F2B4030D90000112060BFEF452B1EE429F
:1004CE00B2EF640470431205F2FE700B900001123D
:1004DE00060BF452B352B4EEB4010B9000011206A7
:1004EE000B42B3F452B41205F2B4020A9000011298
:1004FE00060B42B342B41205F2B4030D9000011282
:10050E00060BFEF452B3EE42B4EF640570431205CF
:10051E00F2FE700B90000112060BF452C952CAEE95
:10052E00B4010B90000112060B42C9F452CA120517
:10053E00F2B4020A90000112060B42C942CA120519
:10054E00F2B4030D90000112060BFEF452C9EE42F6
:10055E00CAEF640670431205F2FE700B9000011292
:10056E00060BF452CB52CCEEB4010B9000011206E6
:10057E000B42CBF452CC1205F2B4020A90000112D7
:10058E00060B42CB42CC1205F2B4030D90000112C1
:10059E00060BFEF452CBEE42CCEF6407704312050D
:1005AE00F2FF700B90000112060BF452E152E2EFD3
:1005BE00B4010B90000112060B42E1F452E2120557
:1005CE00F2B4020A90000112060B42E142E2120559
:1005DE00F2B4030D90000112060BFFF452E1EF424C
:0405EE00E27F002286
:0F0C65007D607C09ED1D70011C144C70F7DFF1F0
:010C7400225D
:0607C8008B148A1589164E
:1007CE00EF6401600302097B751B01F51CF51DF535
:1007DE001EF51FF520F5217F80900080E4F0A3DF49
:1007EE00FC7F80900000E4F0A3DFFCAB14AA15A9F7
:1007FE001690000A12060BFED3940340037F0222CA
:10080E00EE700553B7EFC2BC90000A12060BB4018E
:10081E000553B7EFD2BC90000A12060BFFB40205C7
:10082E0043B710C2BCEFB4030543B710D2BC1205D8
:10083E00F2D394C040037F02221205F2FFE59854D2
:10084E003F4FF598EF64C06008EF64406003020903
:10085E00109000021207627F807E8D7D5B7C0012FD
:10086E0006AC8F1A8E198D188C17E4FFFE7D01FCD5
:10087E00AB1AAA19A918A817C312073E40037F0284
:10088E0022C3E4951AF51AE49519F5197401951811
:10089E00F518E49517F517AB14AA15A916900001D3
:1008AE0012060BFB6401702CC28E538EFE5389BF51
:1008BE005389CF438E40AF1AAE19AD18AC177808D6
:1008CE0012074F8F8D851A8BC2AB5389BF538FFD85
:1008DE00D28E8062EB64027026538EEF438E0153EC
:1008EE008EF7438E04AF1AAE19AD18AC17780812F6
:1008FE00074F8FD6851AD753AFFB438E1080377FA5
:10090E000222AB14AA15A9161205F2FF701390005D
:10091E000812060BB40105438E20801A538EDF8019
:10092E0015EFB4801190000812060BB40105438731
:10093E0080800353877FAB14AA15A9169000091265
:10094E00060BB40104D2AC8002C2AC9000071206B2
:10095E000BB40104D29C8002C29C90000B12060BB9
:0F096E0054C0FFE5A2543F4FF5A27F00227F0245
:01097D002257
:100C11007480251DF582E43400F583EFF0051DE5B0
:100C21001DC394804003E4F51DE51E7005751E018A
:030C3100D2992233
:100C52001205F2FF600C120C11740129F9E43AFA40
:030C620080EE22FF
:03002300020B27A6
:100B2700C0E0C083C082C0D075D000C00730982411
:100B3700C298E521701EE51FC394804003751F000E
:100B4700AF1F051F74002FF582E43400F583E59984
:100B5700F0752005309927C299E51C651D601C7446
:100B670080251CF582E43400F583E0F599051CE542
:100B77001CC394804008751C008003751E00D007B5
:090B8700D0D0D082D083D0E0323E
:03000B00020026CA
:10002600C0E0C0F0C083C082C0D075D000C000C0A0
:1000360001C002C003C004C005C006C007120B9071
:10004600D007D006D005D004D003D002D001D0000E
:0B005600D0D0D082D083D0F0D0E032B8
:03001B00020007D9
:03000700B2EE3224
:0300630002000E8A
:03000E00B2ED321E
:03009B000200114F
:03001100B2EC321C
:0300A30002001444
:03001400B2EB321A
:1000A600AD07EDD3940440037F0122ED6003020106
:1000B60068C28C90000212060BB40104D2A9800219
:1000C600C2A990000112060BFED3940340037F02DF
:1000D60022EE700553B7FDC2B990000112060BB4AB
:1000E600010553B7FDD2B990000112060BFFB40209
:1000F6000543B702C2B9EFB4030543B702D2B9123A
:1001060005F2FEC3940340037F0222E58954FC4EA8
:10011600F58990000312060BFFB40103538E7FEF9F
:100126007003438E80EFB40205438904800353892C
:10013600FB90000412060BB40105438F01800353A4
:100146008FFE900005120638E5F0F58C900005123A
:100156000638F58A90000712060BB40102D28C7F8E
:100166000022ED64016003020226C28E9000021294
:10017600060BB40104D2AB8002C2AB90000112069A
:100186000BFED3940340037F0222EE700553B7F7AC
:10019600C2BB90000112060BB4010553B7F7D2BBE0
:1001A60090000112060BFFB4020543B708C2BBEF6D
:1001B600B4030543B708D2BB1205F2FEC39403404D
:1001C600037F0222EEC454F0FFE58954CF4FF58930
:1001D60090000312060BFFB40103538EBFEF7003AA
:1001E600438E40EFB4020543894080035389BF9094
:1001F600000412060BB40105438F028003538FFDE2
:10020600900005120638E5F0F58D900005120638C7
:10021600F58B90000712060BB40102D28E7F0022E6
:10022600ED64027078538EEF90000212060BB40153
:100236000543AF04800353AFFB90000312060BFE89
:10024600D3940240037F0222EEB40103538EFB9047
:10025600000312060B7003438E0490000312060B74
:10026600B40205438E088003538EF79000041206ED
:100276000BB40105438F048003538FFB90000512D6
:100286000638E5F0F5D6900005120638F5D7900049
:100296000712060BB40103438E107F0022ED6403A0
:1002A600707853D1F790000212060BB4010543AFE4
:1002B60020800353AFDF90000312060BFED3940297
:1002C60040037F0222EEB4010353D1FD90000312D6
:1002D600060B700343D10290000312060BB402050D
:1002E60043D104800353D1FB90000412060BB401E2
:1002F6000543D101800353D1FE900005120638E56F
:10030600F0F5D4900005120638F5D59000071206D0
:100316000BB4010343D1087F0022ED6404707653C9
:10032600D17F90000212060BB4010543AF40800353
:1003360053AFBF90000312060BFED3940240037F17
:100346000222EEB4010353D1DF90000312060B70B4
:100356000343D12090000312060BB4020543D1409B
:10036600800353D1BF90000412060BB4010543D19C
:1003760010800353D1EF900005120638FDACF0EC67
:10038600F5D2AF058FD390000712060BB4010343D5
:08039600D1807F00227F0222CA
:03000000020A9B56
:0C0A9B00787FE4F6D8FD758122020AE2A3
:1005F200BB010689828A83E0225002E722BBFE0207
:09060200E32289828A83E4932239
:10060B00BB010CE58229F582E5833AF583E02250A4
:10061B0006E92582F8E622BBFE06E92582F8E222EE
:0D062B00E58229F582E5833AF583E4932208
:10063800BB0110E58229F582E5833AF583E0F5F000
:10064800A3E0225009E92582F886F008E622BBFEDD
:100658000AE92582F8E2F5F008E222E5832AF58323
:08066800E993F5F0A3E99322E8
:1006700075F008758200EF2FFFEE33FECD33CDCC41
:1006800033CCC58233C5829BED9AEC99E5829840C4
:100690000CF582EE9BFEED9AFDEC99FC0FD5F0D6A1
:1006A000E4CEFBE4CDFAE4CCF9A88222B800C1B9CB
:1006B0000059BA002DEC8BF084CFCECDFCE5F0CB09
:1006C000F97818EF2FFFEE33FEED33FDEC33FCEB42
:1006D00033FB10D703994004EB99FB0FD8E5E4F9FD
:1006E000FA227818EF2FFFEE33FEED33FDEC33FCEA
:1006F000C933C910D7059BE99A4007EC9BFCE99ADE
:10070000F90FD8E0E4C9FAE4CCFB2275F010EF2F22
:10071000FFEE33FEED33FDCC33CCC833C810D70722
:100720009BEC9AE899400AED9BFDEC9AFCE899F85D
:0E0730000FD5F0DAE4CDFBE4CCFAE4C8F922F0
:10073E00EB9FF5F0EA9E42F0E99D42F0E89C45F011
:01074E002288
:10074F00E8600FECC313FCED13FDEE13FEEF13FF88
:03075F00D8F122AC
:10076200BB010DE58229F582E5833AF58302079FF5
:100772005007E92582F8020792BBFE07E92582F8B5
:100782000207ABE58229F582E5833AF5830207B8D1
:100AA700020BBDE493A3F8E493A34003F68001F29D
:100AB70008DFF48029E493A3F85407240CC8C33350
:100AC700C4540F4420C8834004F456800146F6DF1F
:100AD700E4800B0102040810204080900003E47EAC
:100AE700019360BCA3FF543F30E509541FFEE49314
:100AF700A360010ECF54C025E060A840B8E493A3DB
:100B0700FAE493A3F8E493A3C8C582C8CAC583CA05
:100B1700F0A3C8C582C8CAC583CADFE9DEE780BEBD
:0100060000F9
:0D079200E6FB08E6F908E6FA08E6CBF822D7
:0C079F00E0F8A3E0F9A3E0FAA3E0FB22DD
:0D07AB00E2FB08E2F908E2FA08E2CBF822CE
:1007B800E493F8740193F9740293FA740393FB2297
:00000001FF
