:0500260025640D0A0035
:10158000E4F524752503FB7A0079247F03020BD24E
:10155E0075241FE4F52A752B01F5257526017527CF
:10156E0001F528F529FB7A0079241212E27F010297
:02157E0015A0B6
:101512007524407525017529007528C27527017546
:101522002600752B01E4F52C752D01F52EF52FFB08
:091532007A0079247F01020E26E3
:0815AB008F4012153BAF4022F6
:1014D80012158012151212155E1215B3D2AF12131F
:1014E8008B8E228F237BFF7A0079268522278523FE
:1014F800281207C57FFA1215907FFA1215907FFA05
:0A1508001215907FFA12159080D49E
:1012E200900001120588FFE5DE54F04FF5DE900014
:1012F20002120588B4010543BC80800353BC7F9071
:101302000003120588B4010543DE20800353DEDFAB
:10131200900005120588B40104D2AD8002C2AD90DE
:101322000004120588FFD39403505DEF700553B794
:10133200DFC2BDEFB4010553B7DFD2BDEFB4020582
:1013420043B720C2BDEFB4030543B720D2BD120597
:101352006FFFD3941F5031900006120588FED3947C
:10136200015025900007120588FDD39403501943BC
:10137200BA80EDC43354E0FDEEC433333354804DB0
:091382004F90FEA8F053BA7F223F
:0B15A000BF010443BC802253BC7F222B
:10140200EFD3940F40028060E4F5BDF5BEE5BC5415
:10141200F044404FF5BC0000000000000000000056
:10142200E4FDE5BC30E53D53BCDFE5DEAFBD30E5B4
:101432000EEFFEACBEECFBEEF528EBF52980207535
:1014420028008F29E5BEC4540FFBE529C4F8540FC8
:10145200C868FFE528C454F048F528EF4BF529AEDB
:0C14620028AF29220DBDFABA7E107F00D1
:01146E00225B
:03002B000215BA01
:0415BA0053BCDF320D
:0F1590007D607C09ED1D70011C144C70F7DFF1BC
:01159F002229
:100BD200EFD3940740037F012212056FFED39403E3
:100BE20040037F0222EF7041EE700B90000112056C
:100BF20088F45293529412056FB4010B90000112C3
:100C020005884293F4529412056FFEB4020A9000D2
:100C12000112058842934294EEB4030D9000011232
:100C22000588FEF45293EE4294EF6401704312057C
:100C32006FFE700B900001120588F452915292EEF1
:100C4200B4010B9000011205884291F452921205F0
:100C52006FB4020A90000112058842914292120575
:100C62006FB4030D900001120588FEF45291EE421A
:100C720092EF6402704312056FFE700B9000011236
:100C82000588F452955296EEB4010B9000011205BC
:100C9200884295F4529612056FB4020A900001122E
:100CA20005884295429612056FB4030D9000011219
:100CB2000588FEF45295EE4296EF640370431205E6
:100CC2006FFE700B900001120588F452B152B2EE21
:100CD200B4010B90000112058842B1F452B2120520
:100CE2006FB4020A90000112058842B142B21205A5
:100CF2006FB4030D900001120588FEF452B1EE426A
:100D0200B2EF6404704312056FFE700B9000011283
:100D12000588F452B352B4EEB4010B9000011205EF
:100D22008842B3F452B412056FB4020A9000011261
:100D3200058842B342B412056FB4030D900001124C
:100D42000588FEF452B3EE42B4EF64057043120517
:100D52006FFE700B900001120588F452C952CAEE60
:100D6200B4010B90000112058842C9F452CA12055F
:100D72006FB4020A90000112058842C942CA1205E4
:100D82006FB4030D900001120588FEF452C9EE42C1
:100D9200CAEF6406704312056FFE700B90000112D9
:100DA2000588F452CB52CCEEB4010B90000112052F
:100DB2008842CBF452CC12056FB4020A90000112A1
:100DC200058842CB42CC12056FB4030D900001128C
:100DD2000588FEF452CBEE42CCEF64077043120555
:100DE2006FFF700B900001120588F452E152E2EF9E
:100DF200B4010B90000112058842E1F452E212059F
:100E02006FB4020A90000112058842E142E2120523
:100E12006FB4030D900001120588FFF452E1EF4216
:040E2200E27F002249
:060E26008B308A31893295
:100E2C00EF64016003020FD9750801F509F50AF5A5
:100E3C000BF50CF50DF50E7F80900080E4F0A3DF30
:100E4C00FC7F80900000E4F0A3DFFCAB30AA31A95A
:100E5C003290000A120588FED3940340037F0222CD
:100E6C00EE700553B7EFC2BC90000A120588B401AE
:100E7C000553B7EFD2BC90000A120588FFB40205E7
:100E8C0043B710C2BCEFB4030543B710D2BC120574
:100E9C006FD394C040037F022212056FFFE5985474
:100EAC003F4FF598EF64C06008EF64406003020F99
:100EBC006E9000021206C77F807E8D7D5B7C0012D7
:100ECC0006038F368E358D348C33E4FFFE7D01FCAA
:100EDC00AB36AA35A934A833C31206A340037F024C
:100EEC0022C3E49536F536E49535F5357401953421
:100EFC00F534E49533F533AB30AA31A932900001C7
:100F0C00120588FB6401702CC28E538EFE5389BF70
:100F1C005389CF438E40AF36AE35AD34AC33780801
:100F2C001206B48F8D85368BC2AB5389BF538FFDA0
:100F3C00D28E8062EB64027026538EEF438E015387
:100F4C008EF7438E04AF36AE35AD34AC3378081221
:100F5C0006B48FD68536D753AFFB438E1080377FC0
:100F6C000222AB30AA31A93212056FFF7013900028
:100F7C0008120588B40105438E20801A538EDF8039
:100F8C0015EFB48011900008120588B40105438751
:100F9C0080800353877FAB30AA31A93290000912AD
:100FAC000588B40104D2AC8002C2AC9000071205D3
:100FBC0088B40104D29C8002C29C90000B1205885C
:0F0FCC0054C0FFE5A2543F4FF5A27F00227F02E1
:010FDB0022F3
:10153B007480250AF582E43400F583EFF0050AE5A3
:10154B000AC394804003E4F50AE50B7005750B01A3
:03155B00D2992200
:1000030012056FFF600C12153B740129F9E43AFAEB
:0300130080EE225A
:0300230002146F55
:10146F00C0E0C083C082C0D075D000C007309824C0
:10147F00C298E50E701EE50CC394804003750C00F6
:10148F00AF0C050C74002FF582E43400F583E59959
:10149F00F0750D05309927C299E509650A601C742E
:1014AF00802509F582E43400F583E0F5990509E517
:1014BF0009C3948040087509008003750B00D0079D
:0914CF00D0D0D082D083D0E032ED
:10117800E3F2D8A8CDDAC380B99BB029A7259E8D04
:10118800965C8E9087258017796373046CF8673BAB
:1011980061CA5CA157BC53194EB44A8B469B42E0C6
:1011A8003F583C0138D735D9330530582DD02B6AF4
:1011B8002927270224FC231121411F8B1DEC1C63C6
:1011C8001AF019911844170A15E114C713BD12C172
:1011D80011D210F0101A0F500E900DDA0D2E0C8B44
:1011E8000BF10B5E0AD30A4F09D3095C08EC08819E
:1011F800081C07BA0761070A06B8066A062005D957
:1012080005960556051A04E004A904750444041457
:1012180003E803BD0394036D03480325030302E3B6
:1012280002C502A7028C027102580240022802126B
:1012380001FD01E901D601C401B201A101910182B8
:10124800017301660158014B013E01320127011C5F
:101258000112010800FE00F500EC00E400DC00D4F7
:1012680000CD00C600BF00B800B200AC00A600A0C8
:10127800009B00960091008C00870083007E007A16
:1012880000760073006F006B006800650061005E07
:10129800005B0059005600530051004E004C004AB4
:1012A8000047004500430041003F003D003C003A34
:1012B800003800370035003400320031002F002E8E
:1012C800002D002B002A00290028002700260025D1
:0A12D8000024002300220021002062
:0315BE0002140212
:080FDC008F2B8E2A8D298C2831
:100FE400901178E493FC740193FDE412034AAB2B53
:100FF400AA2AA929A8281202CC901178E493FC7497
:101004000193FDE4500D12034AAB2BAA2AA929A887
:1010140028801312034AA804A905AA06AB07AF2B1C
:10102400AE2AAD29AC281200318F338E328D318C2B
:1010340030E4F52EF52FF52CF52DE52D25E0FFE513
:101044002C33FE74782FF58274113EF583E493FCFF
:10105400740193FDE412034AAB2BAA2AA929A828F8
:101064001202CCE52D502625E0FFE52C33FE7478E2
:101074002FF58274113EF583E493FC740193FDE42F
:1010840012034AAB2BAA2AA929A828802C25E0FF01
:10109400E52C33FE74782FF58274113EF583E493C6
:1010A400FC740193FDE412034AA804A905AA06AB43
:1010B40007AF2BAE2AAD29AC28120031AB33AA32CC
:1010C400A931A8301202CC60025003021162E52D4E
:1010D40025E0FFE52C33FE74782FF58274113EF57C
:1010E40083E493FC740193FDE412034AAB2BAA2A14
:1010F400A929A8281202CCE52D502625E0FFE52CCD
:1011040033FE74782FF58274113EF583E493FC74F6
:101114000193FDE412034AAB2BAA2AA929A828802B
:101124002C25E0FFE52C33FE74782FF58274113EF4
:10113400F583E493FC740193FDE412034AA804A923
:1011440005AA06AB07AF2BAE2AAD29AC2812003195
:101154008F338E328D318C30852C2E852D2F052D9D
:10116400E52D7002052C64B5452C600302103EAEDB
:031174002EAF2F6C
:011177002255
:0715B3004393105394EF2253
:10138B007F0C1215BEAD07AC06E412034AE4FBFA60
:10139B0079207840120126E4FBFA79807845120215
:1013AB002F8F278E268D258C24AB27AA26A925A81F
:1013BB00247F337E337D537C40120031C004C00543
:1013CB00C006C007E4FFFE7D207C41AB27AA26A9FF
:1013DB0025A824120126D003D002D001D00012027E
:1013EB002FE4FBFA79C87842120126120FDCEF24A6
:0613FB00C9FFEE34FFFE05
:0114010022C8
:10002E000203B8E86480F8E933E83360110460F045
:10003E00ED33EC337009E8FCE9FDEAFEEBFF220438
:10004E0060DED3EB9FEA9EE99DE8C2E78CF0C2F733
:10005E0095F0400CE8CCF8E9CDF9EACEFAEBCFFBFF
:10006E0012038385D0F05804700320D5B3E80470D2
:10007E00075002B2D50203C292D5EC0460F7E4CC6D
:10008E00C0E0C398F8603B94186008400DD0E0FBC8
:10009E0002039AE4FBFAC9FC8028E830E406E4C9BE
:1000AE00FBE4CAFCE830E305E4C9CACBFCE854071C
:1000BE006010F8C3E913F9EA13FAEB13FBEC13FC27
:1000CE00D8F130F52FC3E49CFCEF9BFFEE9AFEEDCA
:1000DE0099FDD0E0FBEF4E4D4C701222DB03020374
:1000EE00BFEC2CFCEF33FFEE33FEED33FDED30E7CE
:1000FE00EB02039AEF2BFFEE3AFEED39FDD0E0FB5B
:10010E0050130BBB00030203C2ED13FDEE13FEEF03
:08011E0013FFEC13FC02039A2D
:10012600EC4D6011E8497017ED33EC3304600DE4D3
:10013600FCFFFEFD22E933E8330470F80203B8122F
:10014600038358046009E4CC248150062850090230
:1001560003C22840030203BFC0E0EB4A7044B980E3
:1001660006D0E0FB0203AEEF4E701CBD8008EBFF2D
:10017600EAFEE9FD80EBE98DF0A4FEE5F002020F50
:10018600E9CDF9EAFEEBFFEF89F0A4FCE5F0CE89B4
:10019600F0A42EFFE435F0CD89F0A42DFEE435F071
:1001A6008067EF4E7005BD80D780C3EF8BF0A4AC9F
:1001B600F0EE8BF0A42CFCE435F0F8EF8AF0A42CDA
:1001C600E5F038FCE433CB8DF0A42CFCE5F03BF8ED
:1001D600EE8AF0A42CFCE5F038F8E433CF89F0A4DD
:1001E6002CFCE5F038CF3400CE89F0A42FFFE5F0E3
:1001F6003EFEE433C98DF0A42EFEE5F039CD8AF03B
:10020600A42FFFE5F03EFEE43DFD33D0E0FB5007B2
:100216000BBB000F0203C2EC2CFCEF33FFEE33FEE8
:06022600ED33FD02039A16
:10022C000203C2EC5D046005E8590470030203B8D4
:10023C00120383580460F6EC4860F2EC7004FDFE87
:10024C00FF22C860DB2481C85009C39860025006A5
:10025C000203BF9850CAF582E9294B4A7005AB825C
:10026C000203AE75F0007C1A7880C3EF9BEE9AED1A
:10027C0099400DC3EF9BFFEE9AFEED99FDE842F01D
:10028C00DC23ACF0D0E0FFD0E0FED0E0FDAB822070
:10029C00E7101BEB60BAEC2CFCEF33FFEE33FEEDFA
:1002AC0033FD02039AE803F830E705C0F075F0005F
:1002BC00EF2FFFEE33FEED33FD40B830E7C280AADE
:1002CC0074F8CC6480CCC86480C8F58204604FC3D9
:1002DC00EB9FF5F0EA9E42F0E99D42F0E89C45F078
:1002EC00603C501DE5825FFFE582D313CB5BCBF402
:1002FC002B5582FB50280ABA002409B9002008802B
:10030C001DE5825BFBE582D313CF5FCFF4C3132FC4
:10031C005582FF50090EBE00050DBD00010CC3EB4C
:10032C009FF5F0EA9E42F0E99D42F0E89C45F060B2
:09033C0007CC4820E701B3EC22D4
:1003450075F020800E75F010800575F0087D007E33
:10035500007F003392D530D503120695EC3340105B
:10036500EF33FFEE33FEED33FDEC33FCD5F0ED223C
:0E037500E5F0247EA2D513CC92E7CDCEFF2278
:10076300E53B2427F8E6053B227824300702782767
:10077300E475F0011206F702056F2000EB7F2ED21D
:10078300008018EF540F2490D43440D4FF30040B6E
:10079300EF24BFB41A0050032461FFE53C60021547
:1007A3003C053FE53F7002053E30070D7824E475B4
:1007B300F0011206F7EF0205B50215AB7403D20779
:1007C3008003E4C207F53B8B248A258926E4F53CA4
:1007D300F53EF53FE53C60077F2012079E80F575E7
:1007E3003DFFC201C200C202C203C205C206C20863
:1007F30012076CFF700D3007057F001207AFAF3F84
:10080300AE3E22B4255FC2D5C20412076CFF24D0CA
:10081300B40A00501A75F00A783C30D50508B6FFC3
:100823000106C6A426F620D5047002D20380D9247B
:10083300CFB41A00EF5004C2E5D204020A9CD201DD
:1008430080C6D20080C0D20280BCD2D580BAD20585
:1008530080B47F2012079E2002077401B53C00403C
:10086300F1120763FF12079E0207D7D208D2068050
:1008730095120763FB120763FA120763F94A4B7079
:100883000679937A0B7BFF20022EE53C602A7E00DB
:100893008E8275830012058860060EEE653D70F04A
:1008A300C2D5EBC0E0EAC0E0E9C0E0EE120AFCD03A
:1008B300E0F9D0E0FAD0E0FB12056FFF60AAEBC0CD
:1008C300E0EAC0E0E9C0E012079ED0E02401F9D0DD
:1008D300E03400FAD0E0FBE53D0460DCD53DD9808F
:1008E30087D20280A2120ADF60F7E53D700104128D
:1008F30003CDA93D600DE53D600914F53D120B865E
:10090300EF60F3EA30E702F404C3995077EAF42581
:100913003D0430E701E404F53D800D120ADF60C1B8
:10092300EA053D253D1203CDEA783AF630E701E4C6
:10093300253D04D53D0420050114120AFCE4C0E062
:10094300120B86783AE6601320E70714F61207863F
:10095300802204F6D0E014C0E07F00120786E53D54
:10096300600712077D153D800B30050312077DD00C
:10097300E00207D7D0E00480C5120ADF60A0E53D9E
:10098300041203CD783AEAF6E53D2005026001043E
:050993002404120AFC1F
:1009980074FF04C0E0120B86120786E53D200502AD
:1009A800600312077DD0E0B53DE87F4512079078D7
:1009B8003AE67F2B30E7047F2DF404C0E012079E4F
:1009C800D0E075F00A84C0F0120787D0E0120787DC
:1009D8000207D7791080027908C206C2088008D2B7
:1009E800D5790A8004790AC2D5E53D047002F53D3F
:1009F800E4FAFDFEFF120763FC7B082001131207CF
:100A080063FD7B1030000A120763FE120763FF7B49
:100A180020EC3382D592D55013C3E43000069FFFF3
:100A2800E49EFEE42001039DFDE49CFCE4CBF8C2B7
:100A380001EC700CCFCECDCCE824F8F870F3801719
:100A4800C3EF33FFEE33FEED33FDEC33FCEB33FB4A
:100A5800994002FB0FD8E9EB300105F8D0E0C44813
:100A6800B201C0E00AEC4D4E4F78207B0070C2EA1C
:100A7800B53D0040BCC0E0120AFED0F0D0E0200135
:100A880004C4C0E0C4B201C0F0120787D0F0D5F0AA
:100A9800EB0207D712070708745309DB5808454CBF
:100AA80008414209DF4F09E74409E749085A430961
:100AB800ED55091E46097C4508E8470BB35008491F
:100AC8002D084D2E08702B085123086E200B9C2AE8
:100AD80008094800000868E53DB4FF03753D0612A3
:100AE8000763FC120763FD120763FE120763FF78B2
:100AF800330203FC790AA2D5200314300509B91082
:100B0800020404B9080104A2D520060250010420F9
:100B180002689202B53C005034C0E07F20300319CF
:100B28007F30A20272067205500F120B55C202C224
:100B380006C205C2087F30800F300503E9C0E01205
:100B4800079E300503D0E0F9D0E0B53CCC3005175E
:100B58007F30B9100C12079E7F583004077F7880C9
:100B680003B9080312079E3002057F2D02079E7FF6
:100B7800202008F87F2B2006F322920280CF7F00E6
:100B8800B4070050052433F8E6FF22286E756C6C14
:100B98002900D2011207633001F8C201783C30D530
:100BA8000108F60208092D50434958120763240327
:100BB800B405004001E4900BAE9312078F743A120B
:0A0BC800078FD203753C040209DB1D
:10038300E9D2E7C933E833F892D5EDD2E7CD33ECC0
:0703930033FC5002B2D52239
:10039A00EC30E7100FBF000C0EBE00080DBD0004C4
:1003AA000BEB6014A2D5EB13FCED92E7FD2274FF70
:1003BA00FCFDFEFF22E480F8A2D574FF13FC7D80C9
:0303CA00E480EFDD
:1003CD00F920E72824F950037907E4F42402FB18F7
:1003DD00DBFDE624FB5014E9600DE4F618E604F6A7
:0F03ED00B40A08E4F6D9F57401F60A22C2D52243
:1003FC00ED33EC3392D5FA602AB4FF33EDC2E77BD0
:10040C00FF60067A047921E4227A04792A20D50443
:10041C007A047925224E614E002B494E46002D4917
:10042C004E4600E47A08F608DAFC7B00740722E8F2
:10043C00C0E0ECC0E0EDC0E0EEC0E0EFC0E0EA757B
:10044C00F010A4CAABF075F04DA42BFBE435F0FC16
:10045C00EA2410FAEB34C5FBEC34D9FCEDC2E7FF0F
:10046C0075F056A4F42411C5F0F434C58FF0A42A09
:10047C00E5F03BE43CF620E71412052FD0E0FFD06A
:10048C00E0FED0E0FDD0E0FC12022F8014F4041248
:10049C00052FD0E0FFD0E0FED0E0FDD0E0FC120153
:1004AC0026D0E0F8E6FAEDD2E7CD33EC332482FB2C
:1004BC00E4C3CF33CFCE33CECD33CD33DBF37B0799
:1004CC0075F00A846004F6081B0AE5F0F6088FF054
:1004DC00740AA4FFACF08EF0740AA42CFEACF0509D
:1004EC00010C8DF0740AA42CFDE435F0F608DBDE6B
:0304FC0074072260
:1004FF003F8000004120000042C80000447A000005
:10050F00461C400047C35000497424004B18968086
:10051F004CBEBC205A0E1BCA6753C21C749DC5AE7D
:10052F00FB60065407601C232312055DEB543860F3
:10053F0009120549120558120126ECF8EDF9EEFAE9
:10054F00EFCB22EB12055880F1543803241C900492
:10055F00FFFE93FC0EEE93FD0EEE930ECE93FF2255
:03000000020016E5
:0C001600787FE4F6D8FD7581400214D814
:10056F00BB010689828A83E0225002E722BBFE028A
:09057F00E32289828A83E49322BD
:10058800BB010CE58229F582E5833AF583E0225028
:1005980006E92582F8E622BBFE06E92582F8E22272
:0D05A800E58229F582E5833AF583E493228C
:1005B500BB010689828A83F0225002F722BBFE0125
:0205C500F3221F
:1005C70075F008758200EF2FFFEE33FECD33CDCCEB
:1005D70033CCC58233C5829BED9AEC99E58298406E
:1005E7000CF582EE9BFEED9AFDEC99FC0FD5F0D64B
:1005F700E4CEFBE4CDFAE4CCF9A88222B800C1B975
:100607000059BA002DEC8BF084CFCECDFCE5F0CBB2
:10061700F97818EF2FFFEE33FEED33FDEC33FCEBEB
:1006270033FB10D703994004EB99FB0FD8E5E4F9A6
:10063700FA227818EF2FFFEE33FEED33FDEC33FC93
:10064700C933C910D7059BE99A4007EC9BFCE99A87
:10065700F90FD8E0E4C9FAE4CCFB2275F010EF2FCC
:10066700FFEE33FEED33FDCC33CCC833C810D707CC
:100677009BEC9AE899400AED9BFDEC9AFCE899F807
:0E0687000FD5F0DAE4CDFBE4CCFAE4C8F9229A
:0E069500C3E49FFFE49EFEE49DFDE49CFC2276
:1006A300EB9FF5F0EA9E42F0E99D42F0E89C45F0AD
:0106B3002224
:1006B400E8600FECC313FCED13FDEE13FEEF13FF24
:0306C400D8F12248
:1006C700BB010DE58229F582E5833AF58302073AF6
:1006D7005007E92582F802072DBBFE07E92582F8B6
:1006E700020746E58229F582E5833AF58302075337
:1006F700FAE6FB0808E6F925F0F618E6CA3AF62204
:10070700D083D082F8E4937012740193700DA3A381
:1007170093F8740193F5828883E473740293686095
:06072700EFA3A3A380DF95
:0D072D00E6FB08E6F908E6FA08E6CBF8223C
:0C073A00E0F8A3E0F9A3E0FAA3E0FB2242
:0D074600E2FB08E2F908E2FA08E2CBF82233
:10075300E493F8740193F9740293FA740393FB22FC
:00000001FF
