:100B38005035312055500D0A0050353120444F575B
:100B48004E0D0A005035322055500D0A00503532EE
:100B580020444F574E0D0A005035332055500D0A8A
:100B68000050353320444F574E0D0A00503534207D
:100B780055500D0A0050353420444F574E0D0A0089
:03001E00011D0FB2
:080016008F1C120BB1AF1C227C
:100BD40075091E7508017B007A0079087F050203F8
:010BE400828E
:100B8800750840750901750D00750CC2750B017566
:100B98000A00750F01E4F510751101F512F513FB44
:090BA8007A0079087F010207BC04
:10097200120BD4120B88D2AF30C910E51D20E00B48
:10098200431D017BFF7A0B7938801120C911E51DC7
:1009920030E00C531DFE7BFF7A0B79411200883048
:1009A200CA14E51D5402FFC313700B431D027BFFE3
:1009B2007A0B794C801620CA16E51D5402C313FF28
:1009C200BF010C531DFD7BFF7A0B79551200883055
:1009D200CB16E51D5404FF1313543F700B431D0443
:1009E2007BFF7A0B7960801820CB18E51D54041325
:1009F20013543FFFBF010C531DFB7BFF7A0B796938
:100A020012008830CC17E51D5408FF131313541F2E
:100A1200700B431D087BFF7A0B7974801920CC1967
:100A2200E51D5408131313541FFFBF010C531DF788
:100A32007BFF7A0B797D1200887F14120BE5020985
:010A42007A39
:0F0BE5007D607C09ED1D70011C144C70F7DFF171
:010BF40022DE
:10038200EFD3940740037F01221205D6FED39403D4
:1003920040037F0222EF7041EE700B9000011205C4
:1003A200EFF4529352941205D6B4010B900001124D
:1003B20005EF4293F452941205D6FEB4020A90005D
:1003C200011205EF42934294EEB4030D9000011224
:1003D20005EFFEF45293EE4294EF6401704312056E
:1003E200D6FE700B9000011205EFF452915292EE7C
:1003F200B4010B9000011205EF4291F452921205E2
:10040200D6B4020A9000011205EF429142921205FF
:10041200D6B4030D9000011205EFFEF45291EE42A4
:1004220092EF640270431205D6FE700B9000011227
:1004320005EFF452955296EEB4010B9000011205AD
:10044200EF4295F452961205D6B4020A90000112B8
:1004520005EF429542961205D6B4030D90000112A3
:1004620005EFFEF45295EE4296EF640370431205D7
:10047200D6FE700B9000011205EFF452B152B2EEAB
:10048200B4010B9000011205EF42B1F452B2120511
:10049200D6B4020A9000011205EF42B142B212052F
:1004A200D6B4030D9000011205EFFEF452B1EE42F4
:1004B200B2EF640470431205D6FE700B9000011275
:1004C20005EFF452B352B4EEB4010B9000011205E1
:1004D200EF42B3F452B41205D6B4020A90000112EC
:1004E20005EF42B342B41205D6B4030D90000112D7
:1004F20005EFFEF452B3EE42B4EF64057043120509
:10050200D6FE700B9000011205EFF452C952CAEEEA
:10051200B4010B9000011205EF42C9F452CA120550
:10052200D6B4020A9000011205EF42C942CA12056E
:10053200D6B4030D9000011205EFFEF452C9EE424B
:10054200CAEF640670431205D6FE700B90000112CA
:1005520005EFF452CB52CCEEB4010B900001120520
:10056200EF42CBF452CC1205D6B4020A900001122B
:1005720005EF42CB42CC1205D6B4030D9000011216
:1005820005EFFEF452CBEE42CCEF64077043120546
:10059200D6FF700B9000011205EFF452E152E2EF28
:1005A200B4010B9000011205EF42E1F452E2120590
:1005B200D6B4020A9000011205EF42E142E21205AE
:1005C200D6B4030D9000011205EFFFF452E1EF42A1
:0405D200E27F0022A2
:0607BC008B148A1589165A
:1007C200EF6401600302096F752201F523F524F538
:1007D20025F526F527F5287F80900080E4F0A3DF39
:1007E200FC7F80900000E4F0A3DFFCAB14AA15A903
:1007F2001690000A1205EFFED3940340037F0222F3
:10080200EE700553B7EFC2BC90000A1205EFB401B7
:100812000553B7EFD2BC90000A1205EFFFB40205F0
:1008220043B710C2BCEFB4030543B710D2BC1205E4
:10083200D6D394C040037F02221205D6FFE5985416
:100842003F4FF598EF64C06008EF6440600302090F
:100852000490000212070E7F807E8D7D5B7C001269
:1008620006588F1A8E198D188C17E4FFFE7D01FC35
:10087200AB1AAA19A918A817C31206EA40037F02E5
:1008820022C3E4951AF51AE49519F519740195181D
:10089200F518E49517F517AB14AA15A916900001DF
:1008A2001205EFFB6401702CC28E538EFE5389BF7A
:1008B2005389CF438E40AF1AAE19AD18AC177808E2
:1008C2001206FB8F8D851A8BC2AB5389BF538FFDE6
:1008D200D28E8062EB64027026538EEF438E0153F8
:1008E2008EF7438E04AF1AAE19AD18AC1778081202
:1008F20006FB8FD6851AD753AFFB438E1080377F06
:100902000222AB14AA15A9161205D6FF7013900085
:10091200081205EFB40105438E20801A538EDF8042
:1009220015EFB480119000081205EFB4010543875A
:1009320080800353877FAB14AA15A9169000091271
:1009420005EFB40104D2AC8002C2AC9000071205DC
:10095200EFB40104D29C8002C29C90000B1205EFFE
:0F09620054C0FFE5A2543F4FF5A27F00227F0251
:010971002263
:100BB10074802524F582E43400F583EFF00524E503
:100BC10024C394804003E4F524E5257005752501CF
:030BD100D2992294
:100003001205D6FF600C120BB1740129F9E43AFA18
:0300130080EE225A
:03002300020ACFFF
:100ACF00C0E0C083C082C0D075D000C0073098246A
:100ADF00C298E528701EE526C39480400375260052
:100AEF00AF26052674002FF582E43400F583E599CF
:100AFF00F0752705309927C299E5236524601C748A
:100B0F00802523F582E43400F583E0F5990523E58C
:100B1F0023C3948040087523008003752500D007F8
:090B2F00D0D0D082D083D0E03296
:03000000020A43AE
:0C0A4300787FE4F6D8FD758128020A8A4D
:1005D600BB010689828A83E0225002E722BBFE0223
:0905E600E32289828A83E4932256
:1005EF00BB010CE58229F582E5833AF583E02250C1
:1005FF0006E92582F8E622BBFE06E92582F8E2220B
:0D060F00E58229F582E5833AF583E4932224
:10061C0075F008758200EF2FFFEE33FECD33CDCC95
:10062C0033CCC58233C5829BED9AEC99E582984018
:10063C000CF582EE9BFEED9AFDEC99FC0FD5F0D6F5
:10064C00E4CEFBE4CDFAE4CCF9A88222B800C1B91F
:10065C000059BA002DEC8BF084CFCECDFCE5F0CB5D
:10066C00F97818EF2FFFEE33FEED33FDEC33FCEB96
:10067C0033FB10D703994004EB99FB0FD8E5E4F951
:10068C00FA227818EF2FFFEE33FEED33FDEC33FC3E
:10069C00C933C910D7059BE99A4007EC9BFCE99A32
:1006AC00F90FD8E0E4C9FAE4CCFB2275F010EF2F77
:1006BC00FFEE33FEED33FDCC33CCC833C810D70777
:1006CC009BEC9AE899400AED9BFDEC9AFCE899F8B2
:0E06DC000FD5F0DAE4CDFBE4CCFAE4C8F92245
:1006EA00EB9FF5F0EA9E42F0E99D42F0E89C45F066
:0106FA0022DD
:1006FB00E8600FECC313FCED13FDEE13FEEF13FFDD
:03070B00D8F12200
:10070E00BB010DE58229F582E5833AF58302075D8B
:10071E005007E92582F8020750BBFE07E92582F84B
:10072E00020769E58229F582E5833AF583020776A9
:10002600E517240BF8E60517227808300702780B47
:10003600E475F0011207860205D62000EB7F2ED26A
:10004600008018EF540F2490D43440D4FF30040BB2
:10005600EF24BFB41A0050032461FFE518600215AF
:1000660018051BE51B7002051A30070D7808E475A4
:10007600F001120786EF02073E0200167403D2074C
:100086008003E4C207F5178B088A09890AE4F51884
:10009600F51AF51BE51860077F2012006180F575DB
:1000A60019FFC201C200C202C203C205C206C208CB
:1000B60012002FFF700D3007057F00120072AF1B74
:1000C600AE1A22B4255FC2D5C20412002FFF24D077
:1000D600B40A00501A75F00A781830D50508B6FF2C
:1000E6000106C6A426F620D5047002D20380D924C0
:1000F600CFB41A00EF5004C2E5D204020272D20154
:1001060080C6D20080C0D20280BCD2D580BAD205C9
:1001160080B47F201200612002077401B5180040E8
:10012600F1120026FF12006102009AD208D2068060
:1001360095120026FB120026FA120026F94A4B7089
:100146000679437A037BFF20022EE518602A7E009B
:100156008E827583001205EF60060EEE651970F04B
:10016600C2D5EBC0E0EAC0E0E9C0E0EE1202B9D0C9
:10017600E0F9D0E0FAD0E0FB1205D6FF60AAEBC0AA
:10018600E0EAC0E0E9C0E0120061D0E02401F9D065
:10019600E03400FAD0E0FBE5190460DCD519D9801B
:1001A600877BFF7A0279B5D202809C79108002792A
:1001B60008C206C2088008D2D5790A8004790AC224
:1001C600D5E519047002F519E4FAFDFEFF120026C2
:1001D600FC7B08200113120026FD7B1030000A125A
:1001E6000026FE120026FF7B20EC3382D592D550E6
:1001F60013C3E43000069FFFE49EFEE42001039D46
:10020600FDE49CFCE4CBF8C201EC700CCFCECDCC67
:10021600E824F8F870F38017C3EF33FFEE33FEEDF2
:1002260033FDEC33FCEB33FB994002FB0FD8E9EBD3
:10023600300105F8D0E0C448B201C0E00AEC4D4EEA
:100246004F78207B0070C2EAB5190040BCC0E012AE
:1002560002BBD0F0D0E0200104C4C0E0C4B201C0AB
:10026600F012004AD0F0D5F0EB02009A1207960180
:10027600375301B15801084C01044201B54F01BD85
:0F0286004401BD49011D4301C35501A74601A70E
:100295004501A747036350010C2D01102E01332B97
:1002A500011423013120034C2A00CC480000012B06
:1002B5003F3F3F00790AA2D5200314300509B91044
:1002C500020404B9080104A2D52006025001042045
:1002D50002689202B518005034C0E07F203003193F
:1002E5007F30A20272067205500F120312C202C2BB
:1002F50006C205C2087F30800F300503E9C0E01251
:100305000061300503D0E0F9D0E0B518CC30051711
:100315007F30B9100C1200617F583004077F788058
:1003250003B908031200613002057F2D0200617FC9
:10033500202008F87F2B2006F322920280CF286E1A
:10034500756C6C2900D2011200263001F8C20178C3
:100355001830D50108F60200CC2D5043495812003B
:10036500262403B405004001E490035E9312005275
:0D037500743A120052D2037518040201B14F
:100A4F00020972E493A3F8E493A34003F68001F242
:100A5F0008DFF48029E493A3F85407240CC8C333A8
:100A6F00C4540F4420C8834004F456800146F6DF77
:100A7F00E4800B010204081020408090001EE47EE9
:100A8F00019360BCA3FF543F30E509541FFEE4936C
:100A9F00A360010ECF54C025E060A840B8E493A333
:100AAF00FAE493A3F8E493A3C8C582C8CAC583CA5E
:100ABF00F0A3C8C582C8CAC583CADFE9DEE780BE16
:0100210000DE
:10073E00BB010689828A83F0225002F722BBFE019A
:02074E00F32294
:0D075000E6FB08E6F908E6FA08E6CBF82219
:0C075D00E0F8A3E0F9A3E0FAA3E0FB221F
:0D076900E2FB08E2F908E2FA08E2CBF82210
:10077600E493F8740193F9740293FA740393FB22D9
:10078600FAE6FB0808E6F925F0F618E6CA3AF62274
:10079600D083D082F8E4937012740193700DA3A3F2
:1007A60093F8740193F5828883E473740293686006
:0607B600EFA3A3A380DF06
:00000001FF
