:030000000218E201
:0C18E200787FE4F6D8FD75812E02152FEA
:1008BB000003050911FF118905C300E000F000F8E2
:1008CB00000000000000004428FF11AA44000000B3
:1008DB00000000000000000000000000000000000D
:1008EB0000000000000000000000000000000000FD
:1008FB0000000000000000000000000000000000ED
:10090B0000000000000000000000830138448292C8
:10091B0092740183000000000000007C44FF017D05
:10092B007D7D017D7D7D7D017D7D7D7D7D01FF005B
:10093B0000000000000100010001000100010001A6
:10094B00000000000000000000010100000000009A
:10095B00000000000000000000000000000000008C
:10096B00000000000000000000000000000000007C
:10097B00000000000000000000000000000000006C
:10098B00000000000000000000000101000000005A
:10099B000000010100000000000000000001010147
:1009AB00010101010101010101010101010101002D
:1009BB00000000000000000000000000000000002C
:1009CB000000000000000000000000003F3F030398
:1009DB00F31311111111111101F1116181010101B8
:1009EB00816111F1010101014141F101010101019C
:1009FB00C1211111111121C1010101014141F1016C
:100A0B000101010101010101011111111111D33377
:100A1B0003033F3F00000000000000000000000047
:100A2B0000000000000000000000000000000000BB
:100A3B0000000000000000000000000000000000AB
:100A4B00000000000000000000000000E0E00000DB
:100A5B007F01010101010100007F00000106180662
:100A6B000100007F0000000040407F40400000007C
:100A7B001F2040404040201F0000000040407F40AE
:100A8B004000000000600000000040300C0300003C
:100A9B000000E0E00000000000000000000000008B
:100AAB00000000000000000000000000000000003B
:100ABB00000000000000000000000000000000002B
:100ACB000000000000000000000000000707060601
:100ADB0006060404048444444484040484444444C7
:100AEB008404040484C4040404048444444484043B
:100AFB00040404048444444484040404040484442B
:100B0B0044448404048444444484040404040606D6
:100B1B0006060707000000000000000000000000B0
:100B2B0000000000000000000000000000000000BA
:100B3B0000000000000000000000000000000000AA
:100B4B00000000000000000000000000000000009A
:100B5B000000000000101814121100000F101010EC
:100B6B000F000000101F10000000081012120D00E3
:100B7B00001800000D1212120D00001800001018C2
:100B8B0014121100001018141211000000000000C4
:100B9B00000000000000000000000000000000004A
:100BAB00000000000000000000000000000000003A
:100BBB00000000000000000000000000000000002A
:100BCB00000000000000000000000000000000001A
:100BDB00000000000000000000000000000000000A
:100BEB0000000000000000000000000080808080FA
:100BFB0080808080000000000000000000000000EA
:100C0B0000000000000000000000000000000000D9
:100C1B0000000000000000000000000000000000C9
:100C2B0000000000000000000000000000000000B9
:100C3B00007F030C300C037F000038545458000025
:100C4B007C04047800003C40407C00000000000065
:100C5B000000000000000000000000000000000089
:100C6B00000000000000000000000000FFAAAAAA7C
:100C7B00280800FF0000000000000000000000003A
:100C8B000000000000000000000000000000000059
:100C9B000000000000000000007F030C300C037FFD
:100CAB000000264949493200007F020408107F00EA
:100CBB000000000000000000000000000000000029
:100CCB000000000000000000000000000000000019
:100CDB000000000000000000000000000000000009
:100CEB0000000000000000000000000000000000F9
:100CFB0000000000000000000000000000000000E9
:100D0B0000000000000000000000000000000000D8
:100D1B0000000000000000000000000000000000C8
:100D2B0000000000000000000000000000000000B8
:100D3B0000000000000000000000000000000000A8
:100D4B000000000000000000000000000000000098
:100D5B000000000000000000000000000000000088
:100D6B000000000000000000000000000000000078
:100D7B000000000000000000000000000000000068
:100D8B000000000000000000000000000000000058
:100D9B000000000000000000000000000000000048
:100DAB000000000000000000000000000000000038
:100DBB000000000000000000000000000000000028
:100DCB000000000000000000000000000080404018
:100DDB004000000000000000000000202020202028
:100DEB0020E0404040404040C000000000000000B8
:100DFB000000000000000000000000000000008068
:100E0B0080808080000000000000000000000000D7
:100E1B0000000000000000000000000000000000C7
:100E2B0000000000000000000000000000000000B7
:100E3B0000000000000000000000000000000000A7
:100E4B00000000000000000000000000001F70C048
:100E5B008000000080800000000000000000000007
:100E6B000001FF0000000000000000000000000077
:100E7B00000000000000C0300C060301010001005F
:100E8B000000000000000000000000000000000057
:100E9B000000000000000000000000000000000047
:100EAB000000000000000000000000000000000037
:100EBB000000000000000000000000000000000027
:100ECB000000000000000000000000000000000017
:100EDB000101010101000000000000000000000002
:100EEB00003E0100000000000000000000000000B8
:100EFB00000000000000030E1810302020202020DE
:100F0B0020202020203018000000000000000000EE
:100F1B0000000000000000000000000000000000C6
:100F2B0000000000000000000000000000000000B6
:100F3B0000000000000000000000000000000000A6
:100F4B000000000000000000000000000000000096
:100F5B000000000000000000000000000000000086
:100F6B000000000000000000000000000000000076
:100F7B000000000000000000000000000000000066
:100F8B000000000000000000000000000000000056
:100F9B000000000000000000000000000000000046
:100FAB000000000000000000000000000000000036
:100FBB000000000000000000000000000000000026
:100FCB000000000000000000000000000000000016
:100FDB000000000000000000000000000000000006
:100FEB0000000000000000000000000000000000F6
:100FFB0000000000000000000000000000000000E6
:10100B0000000000000000000000000000000000D5
:10101B0000000000000000000000000000000000C5
:10102B0000000000000000000000000000000000B5
:10103B0000000000000000000000000000000000A5
:10104B000000000000000000000000000000000095
:10105B000000000000000000000000000000000085
:10106B000000000000000000000000000000000075
:10107B000000000000000000000000000000000065
:10108B000000000000000000000000000000000055
:07109B00000000000000004E
:10152F00E4F593F594F591F592F595F596F5B1F5FA
:10153F00B2F5B3F5B4F5C9F5CAF5CBF5CCF5E1F5D0
:10154F00E2D2AF1213C3E4FF121870E4FF1217C7F1
:10155F00752010E4FB7D02FF1215CC7520107B0166
:10156F007D027F0A1215CC7520107B027D027F242D
:10157F001215CC7520107B037D027F381215CC75A8
:10158F0020107B047D027F4C1215CC7520107B59E7
:10159F007D047F1E1212F67520107B597D047F3259
:1015AF001212F67520107B447D047F461212F675D9
:0D15BF0020107B537D047F5A1212F680939A
:100003000000000000000000002F000000000700B7
:10001300070000147F147F1400242A7F2A12006231
:1000230064081323003649552250000005030000DD
:1000330000001C224100000041221C000014083E65
:1000430008140008083E0808000000A0600000082B
:10005300080808080000606000000020100804027F
:10006300003E5149453E0000427F4000004261513D
:100073004946002141454B31001814127F100027D7
:1000830045454539003C4A4949300001710905039A
:1000930000364949493600064949291E00003636CB
:1000A300000000005636000000081422410000142E
:1000B300141414140000412214080002015109060B
:1000C30000324959513E007C1211127C007F49498C
:1000D3004936003E41414122007F4141221C007FBD
:1000E30049494941007F09090901003E4149497ACB
:1000F300007F0808087F0000417F41000020404145
:100103003F01007F08142241007F40404040007FB0
:10011300020C027F007F0408107F003E4141413EF4
:10012300007F09090906003E4151215E007F09193C
:1001330029460046494949310001017F0101003F39
:100143004040403F001F2040201F003F4038403FB9
:10015300006314081463000708700807006151491D
:10016300454300007F41410000552A552A550000B0
:1001730041417F000004020102040040404040402E
:10018300000001020400002054545478007F4844C6
:10019300443800384444442000384444487F0038FD
:1001A3005454541800087E0901020018A4A4A47C26
:1001B300007F080404780000447D400000408084F0
:1001C3007D00007F102844000000417F4000007C38
:1001D30004180478007C0804047800384444443844
:1001E30000FC242424180018242418FC007C080490
:1001F300040800485454542000043F444020003C69
:100203004040207C001C2040201C003C4030403CEF
:10021300004428102844001CA0A0A07C004464547F
:100223004C441414141414140000000000000000C3
:100233000000000000000000000000F800000000C3
:10024300000000333000000000100C06100C060004
:10025300000000000000000040C07840C07840006B
:10026300043F04043F040400007088FC08300000CD
:10027300001820FF211E0000F008F000E018000025
:1002830000211C031E211E0000F0088870000000DE
:100293001E2123241927211010160E000000000030
:1002A3000000000000000000000000E0180402004D
:1002B300000000071820400000020418E0000000BE
:1002C3000040201807000000404080F080404000BC
:1002D3000202010F01020200000000F00000000012
:1002E3000101011F010101000000000000000000E6
:1002F30080B070000000000000000000000000005B
:1003030000010101010101010000000000000000E3
:10031300003030000000000000000000806018047E
:10032300006018060100000000E010080810E0005B
:10033300000F102020100F00001010F80000000024
:100343000020203F2020000000700808088870006B
:1003530000302824222130000030088888483000EB
:100363000018202020110E000000C02010F800000B
:1003730000070424243F240000F8088888080800A4
:100383000019212020110E0000E0108888180000B9
:10039300000F112020110E0000380808C83808008B
:1003A3000000003F0000000000708808088870000B
:1003B300001C222121221C0000E010080810E0008C
:1003C3000000312222110F00000000C0C000000015
:1003D300000000303000000000000080000000003A
:1003E3000000806000000000000080402010080032
:1003F30000010204081020004040404040404000FB
:1004030004040404040404000008102040800000D5
:100413000020100804020100007048080808F000DA
:100423000000003036010000C030C828E810E000AA
:100433000718272423140B000000C038E000000035
:10044300203C23020227382008F88888887000009F
:10045300203F202020110E00C03008080808380073
:10046300071820202010080008F808080810E000EA
:10047300203F202020100F0008F88888E80810008B
:10048300203F20202320180008F88888E80810005F
:10049300203F200003000000C03008080838000097
:1004A30007182020221E020008F808000008F80898
:1004B300203F210101213F20000808F8080800001F
:1004C3000020203F2020000000000808F808080052
:1004D300C08080807F00000008F888C028180800CA
:1004E300203F20012638200008F808000000000003
:1004F300203F20202020300008F8F800F8F80800FA
:10050300203F003F003F200008F830C00008F808F3
:10051300203F200007183F00E01008080810E00003
:100523000F10202020100F0008F808080808F0001A
:10053300203F210101010000E01008080810E0003D
:100543000F18242438504F0008F8888888887000D2
:10055300203F2000030C3020007088080808380072
:100563000038202121221C00180808F80808180068
:100573000000203F2000000008F808000008F808E9
:10058300001F202020201F000878880000C838089A
:10059300000007380E010000F80800F80008F80012
:1005A300033C0700073C03000818688080681808AC
:1005B30020302C03032C30200838C800C83808002A
:1005C3000000203F2000000010080808C838080079
:1005D3002038262120201800000000FE020202001D
:1005E3000000007F40404000000C30C000000000CD
:1005F300000000010638C00000020202FE000000F5
:10060300004040407F00000000000402020204009A
:1006130000000000000000000000000000000000D7
:1006230080808080808080800002020400000000BF
:1006330000000000000000000000808080800000B7
:100643000019242222223F2008F8008080000000A5
:10065300003F112020110E00000000808080000068
:10066300000E112020201100000000808088F80077
:10067300000E112020103F200000808080800000A9
:10068300001F222222221300008080F0888888180D
:100693000020203F20200000000080808080800018
:1006A300006B94949493600008F8008080800000AD
:1006B300203F210000203F20008098980000000088
:1006C3000020203F202000000000008098980000B8
:1006D30000C08080807F000008F8000080808000D8
:1006E300203F24022D302000000808F800000000FD
:1006F3000020203F202000008080808080808000B8
:10070300203F20003F20003F808000808080000049
:10071300203F210000203F200000808080800000D7
:10072300001F202020201F00808000808000000008
:1007330080FFA12020110E00000000808080800037
:10074300000E112020A0FF80808080008080800028
:1007530020203F2120000100000080808080800055
:100763000033242424241900008080E080800000CA
:100773000000001F20200000808000000080800017
:10078300001F202020103F20808080000080808078
:1007930000010E3008060100808000800080808008
:1007A3000F300C030C300F0000808000808080002D
:1007B3000020312E0E312000808080000080808058
:1007C30080818E7018060100008080808080800008
:1007D3000021302C2221300000000000807C020226
:1007E30000000000003F404000000000FF00000048
:1007F30000000000FF0000000002027C80000000F7
:100803000040403F00000000000601010202040412
:1008130000000000000000000000000000000000D5
:1008230000000000000000000000000000000000C5
:1008330000000000000000000000000000000000B5
:1008430000000000000000000000000000000000A5
:10085300000000000000000000FE225A860888689D
:10086300180FE8080808080000FF04080720110D06
:1008730041817F010509300040404242424242FE2D
:10088300424242424240400080804020100C03001C
:10089300030C1020408080000000F88888888808B6
:1008A30008FF08090AC8080080601F0010201F8085
:0808B300402116182641F8004F
:10185600EF4E60157D087C07ED1DAA0470011C4A39
:0918660070F6EF1F70EA1E80E726
:01186F002256
:101870008F1DE51D7006FD7FA612179EE51DB401A4
:0918800007E4FD7FA712179E2268
:1017C7008F1DE51D700DFD7FC812179EE4FD7FA1DB
:1017D70012179EE51DB4010EE4FD7FC012179EE4AB
:0717E700FD7FA012179E22F6
:0818F8007F01AE071FEE70FA3C
:0119000022C4
:0F18B600D2B3D2B21218F8C2B31218F8C2B222CB
:0A18EE00C2B3D2B21218F8D2B3222E
:0F18C500D2B31218F8D2B21218F8C2B20218F841
:0217EE00AD0745
:1017F000E4FCC2B2ED30E704D2B38002C2B31218E7
:10180000F8D2B21218F8C2B2ED25E0FD0CBC08E225
:0118100022B5
:0D17910012179EE4FDFF12179EE4FD7F106D
:10179E00AB05AA071218B67F781217EE1218C5EB12
:1017AE0060047F408002E4FF1217EE1218C5AF02EC
:0917BE001217EE1218C50218EE14
:10183400A907ED24B0FFE4FD12179EE954F0C45447
:101844000F4410FFE4FD12179EE9540FFFE4FD025C
:02185400179EDD
:1018A100E4FD7F8D12179EE4FD7F1412179EE4FD67
:0518B1007FAF02179E4D
:0E18D400E4FD7F8D121797E4FD7FAE02179E94
:10181100E4F9E924B0FFE4FD121791E4F51D7D011F
:10182100E4FF12179E051DE51DC3948040F009B920
:0218310008E0CD
:011833002292
:0412F6008F1D8D1E9D
:1012FA00E4F521E520C313FDF522E4F523F524E501
:10130A0020B408087525007526068029E5201313E0
:10131A0013541FFF7E00E5205407600590000180EA
:10132A0003900000E5822FFFE5833EFE7C00121445
:10133A00C88E258F26EB24E0F521AD1EAF1D1218AD
:10134A0034E4F523F524C3E5249526E523952550B1
:10135A0067E522FD7C00AE23AF241214DAED4C704F
:10136A000FE52064086009AD1E051EAF1D12183472
:10137A00E520B4081075F006E521A42403F582E5FA
:10138A00F034008013E520B4102E75F010E521A486
:10139A00242BF582E5F03402F583E5822524F582D3
:1013AA00E5833523F583E493FF7D0112179E052417
:0813BA00E52470920523808EEA
:0113C2002208
:041889008F2EA905F0
:10188D007F017E00AD0119ED6009AD2E7C001214B3
:03189D00C880F10F
:0118A0002225
:081657008F138D148A158B1608
:10165F00E4F51BF51CE518B40803751B02E4F51936
:10166F00E519C395175069C3E517951914FD7F0A3E
:10167F00121889AC15AD16CFCDCFCECCCE1214DA51
:10168F007C007D0A1214DA8D1AE51C7025E51714FB
:10169F00FFE519C39F501BE51A7014E518C31325F6
:1016AF001B8519F0A42513FF8518207B2080187542
:1016BF001C01E518C313251B8519F0A42513FFE59D
:1016CF001A2430FB851820AD141212F605198090DC
:0116DF0022E8
:0A1748008F278D288B298A2A892B10
:10175200E4F52DAB29AA2AA92B852D8275830012C7
:10176200149B602AAF2D052D8F8275830012149B66
:10177200FB852C20AD28AF271212F6E52CB4080405
:0E17820074068004E52CC3132527F52780C5C7
:011790002236
:0615CC008F1D8D1E8B1F18
:1015D200E520131313541FFF7E00E52054077C00FF
:1015E20060047D0180027D00ED2FFFEC3EFEAD2008
:1015F2007C001214C88E238F24E4F521F522C3E562
:10160200229524E5219523504BE520FD7C00AE2157
:10161200AF221214DAED4C7009AD1E051EAF1D1279
:101622001834E520B4102DE51FC43354E0241BF513
:1016320082E43408F583E5822522F582E5833521AB
:10164200F583E493FF7D0112179E0522E52270AE19
:04165200052180AA44
:011656002271
:0616E0008F088D098B0A42
:1016E600E4F50FF510E50B131313541FFFE50B5428
:1016F6000760047E0180027E00EF2EF50BE4F511F3
:10170600E511C3950B503AE5112509FDAF081218EE
:1017160034E4F512E512C3950A5022AB0CAA0DA9C2
:101726000E0510E510AE0F7002050F14F5828E83BC
:1017360012149BFF7D0112179E051280D70511809A
:01174600BFE3
:01174700227F
:1013C3007FC87E00121856E4FD7FAE121791E4FD2C
:1013D3007F4012179EE4FD7F8112179EE4FD7FCFAD
:1013E30012179EE4FD7FA112179EE4FD7FC812171A
:1013F3009EE4FD7FA612179EE4FD7FA812179EE4CC
:10140300FD7F3F12179EE4FD7FD312179EE4FDFF7D
:1014130012179EE4FD7FD512179EE4FD7F801217FD
:101423009EE4FD7FD912179EE4FD7FF112179EE41F
:10143300FD7FDA12179EE4FD7F1212179EE4FD7FF3
:10144300DB12179EE4FD7F4012179EE4FD7F2012FE
:10145300179EE4FD7F0212179EE4FD7F8D12179EF7
:10146300E4FD7F1412179EE4FD7FA412179EE4FD92
:0F1473007FA612179E121811E4FD7FAF02179E7D
:1010A200EFD3940740037F0122121482FED39403EC
:1010B20040037F0222EF7041EE700B900001121488
:1010C2009BF452935294121482B4010B90000112B9
:1010D200149B4293F45294121482FEB4020A9000BA
:1010E2000112149B42934294EEB4030D900001123C
:1010F200149BFEF45293EE4294EF64017043121477
:1011020082FE700B90000112149BF452915292EEE7
:10111200B4010B90000112149B4291F452921214EA
:1011220082B4020A90000112149B4291429212145C
:1011320082B4030D90000112149BFEF45291EE4210
:1011420092EF64027043121482FE700B900001123F
:10115200149BF452955296EEB4010B9000011214B6
:101162009B4295F45296121482B4020A9000011224
:10117200149B42954296121482B4030D9000011200
:10118200149BFEF45295EE4296EF640370431214E0
:1011920082FE700B90000112149BF452B152B2EE17
:1011A200B4010B90000112149B42B1F452B212141A
:1011B20082B4020A90000112149B42B142B212148C
:1011C20082B4030D90000112149BFEF452B1EE4260
:1011D200B2EF64047043121482FE700B900001128D
:1011E200149BF452B352B4EEB4010B9000011214EA
:1011F2009B42B3F452B4121482B4020A9000011258
:10120200149B42B342B4121482B4030D9000011233
:10121200149BFEF452B3EE42B4EF64057043121411
:1012220082FE700B90000112149BF452C952CAEE56
:10123200B4010B90000112149B42C9F452CA121459
:1012420082B4020A90000112149B42C942CA1214CB
:1012520082B4030D90000112149BFEF452C9EE42B7
:10126200CAEF64067043121482FE700B90000112E2
:10127200149BF452CB52CCEEB4010B900001121429
:101282009B42CBF452CC121482B4020A9000011297
:10129200149B42CB42CC121482B4030D9000011273
:1012A200149BFEF452CBEE42CCEF6407704312144F
:1012B20082FF700B90000112149BF452E152E2EF94
:1012C200B4010B90000112149B42E1F452E2121499
:1012D20082B4020A90000112149B42E142E212140B
:1012E20082B4030D90000112149BFFF452E1EF420D
:0412F200E27F002275
:10148200BB010689828A83E0225002E722BBFE0268
:09149200E32289828A83E493229B
:10149B00BB010CE58229F582E5833AF583E0225006
:1014AB0006E92582F8E622BBFE06E92582F8E22250
:0D14BB00E58229F582E5833AF583E493226A
:1014C800EF8DF0A4A8F0CF8CF0A428CE8DF0A42E38
:0214D800FE22F2
:1014DA00BC000BBE0029EF8DF084FFADF022E4CCF6
:1014EA00F875F008EF2FFFEE33FEEC33FCEE9DECBF
:1014FA00984005FCEE9DFE0FD5F0E9E4CEFD22ED05
:10150A00F8F5F0EE8420D21CFEADF075F008EF2F4E
:10151A00FFED33FD4007985006D5F0F222C398FD3F
:05152A000FD5F0EA22DC
:00000001FF
