:0210AD001040F1
:0210AF00107DB2
:0210B1000FF43A
:0210B300100E1D
:100EF9002564D0D0A3AC2564C1D02055500D0A007B
:100F09002564D0D0A3AC2564C1D020446F776E0D81
:100F19000A007461736B5F332073746172740D0A14
:0E0F2900007461736B5F3320656E640D0A0007
:0A109E00080E000000000000000032
:0110B5002218
:100F64007523407524017528007527C275260175FF
:100F74002500752A01E4F52B752C01F52DF52EFBC2
:090F84007A0079237F01020AC6FC
:0F108F001210B5120F6412102712106AD2AF227E
:080003008F69120F8DAF692215
:100EBB008F3D8D3E7BFF7A0E79F97558008F5975F2
:100ECB005A00853E5B120088E53D7007E53E7003D6
:100EDB00050E22E53D7008E53EB40103150E22E533
:0E0EEB003D700AE53EB402057F0312060622A2
:10000E007BFF7A0F79097558008F59AF05755A0025
:05001E008F5B02008869
:1010400012108F7F011204F47F021204F47F031246
:0710500004F4E4FF02057D3A
:10107D007B007A007936120C7C7D047F0212062DDE
:02108D0080EEF3
:100FF400E4F554740E2554F8E6FDAF54120DCE05F5
:0A10040054E554C3940840EB80E665
:10100E007BFF7A0F791B1200887F0112062D7BFF62
:09101E007A0F792A12008880E79C
:03000B0002038766
:10038200C2AF80FE3212038685D00B75D008AAE078
:10039200C28CE58A24F7F58AE58C34D8F58CD28CA8
:1003A200EC2473F8E6BC030274FFC39581B4140015
:1003B20040CE7904786A16E608700BC2AFE630E1E7
:1003C200034418F6D2AF08D9EDEA8BD030120122DD
:1003D200D50DFCC0E0C0D0C0F0C083C082C000C058
:1003E20001C002C003C004C005C006C007E50C235B
:1003F200246BF87440C2AF46F6D2AFD212E50CFFBE
:1004020023246BF80F0808BF04047F00786BE630E2
:10041200E4F200E50CC39F5020050C7472250CF821
:10042200E6FDA68108E6AE0CBE030274FFCDF8E835
:100432006D60E008E6C0E080F6E50CD39F4027E55A
:100442000C2473F8E6AE0CBE030274FFFD18E6CD71
:10045200F8E5816D6006D0E0F61880F5E50C2472AF
:10046200C8F6150C80D3750D05E50C23246BF87FB7
:1004720004C2AFE610E61E30E00310E20C7F00304B
:05048200E10730E30476
:100487007F0854F4547CC6D2AF54804207C212226C
:10049700F6D2AFD007D006D005D004D003D002D013
:1004A70001D000D082D083D0F0D0D0D0E0C21222C9
:1004B7007872A68174036006FF0876FFDFFB7F046E
:1004C700E4786AF608F608DFFA786B76309010ADB4
:1004D700740193C0E0E493C0E0750D05438901758D
:0D04E7008AF0758CD8D28CD2AFD2A9220336
:1004F400EFD3940340037FFF22746B2F2FF8E62081
:10050400E5F4C2AFE64430F6D2AFAE0CEEC39F5072
:10051400210E74722EF8E6F908E618BE030274FF81
:10052400FDED69600909E71919F7090980F3161641
:1005340080DAEED39F400405810581EED39F4022EB
:1005440074722EF808E6F9EEB50C02A981180606B5
:10055400E6FDED6960091919E70909F71980F31E29
:1005640080D9EF2472F8E604F8EF2F049010AD93CD
:09057400F608EF2F93F67F002238
:10057D00EFD3940340037FFF22EF23246BF8E63083
:10058D00E5F4C2AFE6548CF6D2AFE50CB5070A74AC
:10059D00722FF8E6F5810203FD502E74732FF8E6E5
:1005AD00BF030274FFFD18E6F974722FF8FBE6FC29
:1005BD00E96C6008A805E7F61D1980F4A803A605E7
:1005CD001FE50CB507E37F002274732FF8E6FD18C5
:1005DD0086010F74722FF8A601088604E50CB50785
:1005ED0002AC81ED6C60080D09A805E6F780F4E515
:0905FD000CB507DE89817F0022A4
:10060600EFD3940340037FFF22EF23246BF8C2AF9E
:10061600E630E50530E002D2E4D2E2C6D2AF7F0092
:0706260030E2010F0203D1D5
:10062D008FF0E4FFFEE50C23246AF8C2A930F70D24
:10063D007F08E6600B2DF660325030800730F106F2
:10064D00EDF660277E020830F010C2AFE610E72508
:10065D000E30E20CD2AF7F048014C2AFE610E71566
:10066D0054EC4EF6D2AFD2A90203FD7F0808EF4439
:0F067D0083F4C2AF56C6D2AFD2A954804FFF222A
:10068C00EFD3940740037F01221208E0FED39403BA
:10069C0040037F0222EF7041EE700B9000011208B4
:1006AC00F9F4529352941208E0B4010B9000011229
:1006BC0008F94293F452941208E0FEB4020A900036
:1006CC00011208F942934294EEB4030D900001120A
:1006DC0008F9FEF45293EE4294EF64017043120851
:1006EC00E0FE700B9000011208F9F452915292EE58
:1006FC00B4010B9000011208F94291F452921208C5
:10070C00E0B4020A9000011208F9429142921208D8
:10071C00E0B4030D9000011208F9FEF45291EE4280
:10072C0092EF640270431208E0FE700B900001120D
:10073C0008F9F452955296EEB4010B900001120890
:10074C00F94295F452961208E0B4020A9000011294
:10075C0008F9429542961208E0B4030D900001127C
:10076C0008F9FEF45295EE4296EF640370431208BA
:10077C00E0FE700B9000011208F9F452B152B2EE87
:10078C00B4010B9000011208F942B1F452B21208F4
:10079C00E0B4020A9000011208F942B142B2120808
:1007AC00E0B4030D9000011208F9FEF452B1EE42D0
:1007BC00B2EF640470431208E0FE700B900001125B
:1007CC0008F9F452B352B4EEB4010B9000011208C4
:1007DC00F942B3F452B41208E0B4020A90000112C8
:1007EC0008F942B342B41208E0B4030D90000112B0
:1007FC0008F9FEF452B3EE42B4EF640570431208EC
:10080C00E0FE700B9000011208F9F452C952CAEEC6
:10081C00B4010B9000011208F942C9F452CA120833
:10082C00E0B4020A9000011208F942C942CA120847
:10083C00E0B4030D9000011208F9FEF452C9EE4227
:10084C00CAEF640670431208E0FE700B90000112B0
:10085C0008F9F452CB52CCEEB4010B900001120803
:10086C00F942CBF452CC1208E0B4020A9000011207
:10087C0008F942CB42CC1208E0B4030D90000112EF
:10088C0008F9FEF452CBEE42CCEF64077043120829
:10089C00E0FF700B9000011208F9F452E152E2EF04
:1008AC00B4010B9000011208F942E1F452E2120873
:1008BC00E0B4020A9000011208F942E142E2120887
:1008CC00E0B4030D9000011208F9FFF452E1EF427D
:0408DC00E27F002295
:060AC6008B2F8A308931FC
:100ACC00EF64016003020C79751601F517F518F542
:100ADC0019F51AF51BF51C7F80900080E4F0A3DF5C
:100AEC00FC7F80900000E4F0A3DFFCAB2FAA30A9C0
:100AFC003190000A1208F9FED3940340037F0222BE
:100B0C00EE700553B7EFC2BC90000A1208F9B4019D
:100B1C000553B7EFD2BC90000A1208F9FFB40205D6
:100B2C0043B710C2BCEFB4030543B710D2BC1208D4
:100B3C00E0D394C040037F02221208E0FFE59854F2
:100B4C003F4FF598EF64C06008EF64406003020CFF
:100B5C000E900002120A187F807E8D7D5B7C001245
:100B6C0009628F358E348D338C32E4FFFE7D01FCAF
:100B7C00AB35AA34A933A832C31209F440037F025F
:100B8C0022C3E49535F535E49534F5347401953389
:100B9C00F533E49532F532AB2FAA30A93190000130
:100BAC001208F9FB6401702CC28E538EFE5389BF60
:100BBC005389CF438E40AF35AE34AD33AC32780869
:100BCC00120A058F8D85358BC2AB5389BF538FFDB0
:100BDC00D28E8062EB64027026538EEF438E0153EB
:100BEC008EF7438E04AF35AE34AD33AC3278081289
:100BFC000A058FD68535D753AFFB438E1080377FD0
:100C0C000222AB2FAA30A9311208E0FF701390001A
:100C1C00081208F9B40105438E20801A538EDF8028
:100C2C0015EFB480119000081208F9B40105438740
:100C3C0080800353877FAB2FAA30A9319000091213
:100C4C0008F9B40104D2AC8002C2AC9000071208BF
:100C5C00F9B40104D29C8002C29C90000B1208F9DA
:0F0C6C0054C0FFE5A2543F4FF5A27F00227F0244
:010C7B002256
:100F8D0074802518F582E43400F583EFF00518E53B
:100F9D0018C394804003E4F518E51970057519011F
:030FAD00D29922B4
:101057001208E0FF600C120F8D740129F9E43AFAC7
:0310670080EE22F6
:03002300020E5278
:100E5200C0E0C083C082C0D075D000C007309824E3
:100E6200C298E51C701EE51AC394804003751A00EF
:100E7200AF1A051A74002FF582E43400F583E59960
:100E8200F0751B05309927C299E5176518601C7427
:100E9200802517F582E43400F583E0F5990517E51E
:100EA20017C3948040087517008003751900D00796
:090EB200D0D0D082D083D0E03210
:0410A800021DFFFF27
:100FB000EF7005A28333FF22BF0104A2868010BF19
:100FC0000204A2878009BF0304A2978002A283E4DF
:030FD00033FF22CA
:100F3700EF7008C2B4D2B5D2C0D2C1BF0108D2B4D3
:100F4700C2B5D2C0D2C1BF0208D2B4D2B5C2C0D2D4
:0D0F5700C1BF0308D2B4D2B5D2C0C2C122BE
:1010270053943753933753B2CF53B1CF53B4FC5381
:09103700B3FC53927F53917F2218
:060C7C008B388A39893A29
:100C8200E4F53CAF3C120F37E4F53BAF3B120FB03B
:100C9200EF7049E53C25E025E0253BFFAE1DE51E52
:100CA200A807088005CEC313CE13D8F930E02DADC6
:100CB2003BAF3C12000EE53C25E025E0253BFF7EE4
:100CC200007401A807088005C333CE33CED8F9F4E7
:100CD200FFEEF4FEEF521EEE521D804BAF3B120FA1
:100CE200B0EF64017041E53C25E025E0253BFFAE15
:100CF2001DE51EA807088005CEC313CE13D8F92020
:100D0200E025AD3BAF3C120EBBE53C25E025E025DE
:100D12003BFF7E007401A807088005C333CE33CEA3
:100D2200D8F9421EEE421D053BE53BC39404500335
:0F0D3200020C8D053CE53CC394045003020C8574
:010D4100228F
:100FD300C0F9A4B0999282F880907FBF7924301928
:100FE30012027800108883C6A1868E89F1C78C9877
:010FF300C13C
:10106A0053B3EF53B4EF53B3F753B4F753B3FB533C
:03107A00B4FB22A2
:020DCE00A90773
:100DD000E4FCC374079CFF7E007401A8070880052B
:100DE000C333CE33CED8F9FFED900FD393FBEF5B37
:100DF0006004D2C48002C2C4C2C20000D2C20000D9
:100E00000CBC08CEE4FCC374079CFF7E007401A8F0
:100E100007088005C333CE33CED8F9FBAA067E007F
:100E20007401A801088005C333CE33CED8F9FFEE94
:100E30005AFEEF5B4E6004D2C48002C2C4C2C2003C
:100E400000D2C200000CBC08BDC2C30000D2C30067
:010E500000A1
:010E5100227E
:03000000020D42AC
:0C0D4200787FE4F6D8FD758175020D89FC
:1008E000BB010689828A83E0225002E722BBFE0216
:0908F000E32289828A83E4932249
:1008F900BB010CE58229F582E5833AF583E02250B4
:1009090006E92582F8E622BBFE06E92582F8E222FD
:0D091900E58229F582E5833AF583E4932217
:1009260075F008758200EF2FFFEE33FECD33CDCC88
:1009360033CCC58233C5829BED9AEC99E58298400B
:100946000CF582EE9BFEED9AFDEC99FC0FD5F0D6E8
:10095600E4CEFBE4CDFAE4CCF9A88222B800C1B912
:100966000059BA002DEC8BF084CFCECDFCE5F0CB50
:10097600F97818EF2FFFEE33FEED33FDEC33FCEB89
:1009860033FB10D703994004EB99FB0FD8E5E4F944
:10099600FA227818EF2FFFEE33FEED33FDEC33FC31
:1009A600C933C910D7059BE99A4007EC9BFCE99A25
:1009B600F90FD8E0E4C9FAE4CCFB2275F010EF2F6A
:1009C600FFEE33FEED33FDCC33CCC833C810D7076A
:1009D6009BEC9AE899400AED9BFDEC9AFCE899F8A5
:0E09E6000FD5F0DAE4CDFBE4CCFAE4C8F92238
:1009F400EB9FF5F0EA9E42F0E99D42F0E89C45F059
:010A040022CF
:100A0500E8600FECC313FCED13FDEE13FEEF13FFCF
:030A1500D8F122F3
:100A1800BB010DE58229F582E5833AF583020A6771
:100A28005007E92582F8020A5ABBFE07E92582F831
:100A3800020A73E58229F582E5833AF583020A8082
:10002600E5642458F8E605642278553010027858BD
:10003600E475F001120A900208E02009EB7F2ED247
:10004600098018EF540F2490D43440D4FF300D0BA0
:10005600EF24BFB41A0050032461FFE56560021562
:10006600650568E5687002056730100D7855E4751A
:10007600F001120A90EF020A480200037403D2103C
:100086008003E4C210F5648B558A568957E4F565FA
:10009600F567F568E56560077F2012006180F575F4
:1000A60066FFC20AC209C20BC20CC20EC20FC2113F
:1000B60012002FFF700D3010057F00120072AF681E
:1000C600AE6722B4255FC2D5C20D12002FFF24D021
:1000D600B40A00501A75F00A786530D50508B6FFDF
:1000E6000106C6A426F620D5047002D20C80D924B7
:1000F600CFB41A00EF5004C2E5D20D020272D20A42
:1001060080C6D20980C0D20B80BCD2D580BAD20EAE
:1001160080B47F20120061200B077401B565004092
:10012600F1120026FF12006102009AD211D20F804E
:1001360095120026FB120026FA120026F94A4B7089
:100146000679437A037BFF200B2EE565602A7E0045
:100156008E827583001208F960060EEE656670F0F1
:10016600C2D5EBC0E0EAC0E0E9C0E0EE1202B9D0C9
:10017600E0F9D0E0FAD0E0FB1208E0FF60AAEBC09D
:10018600E0EAC0E0E9C0E0120061D0E02401F9D065
:10019600E03400FAD0E0FBE5660460DCD566D98081
:1001A600877BFF7A0279B5D20B809C791080027921
:1001B60008C20FC2118008D2D5790A8004790AC212
:1001C600D5E566047002F566E4FAFDFEFF12002628
:1001D600FC7B08200A13120026FD7B1030090A1248
:1001E6000026FE120026FF7B20EC3382D592D550E6
:1001F60013C3E43009069FFFE49EFEE4200A039D34
:10020600FDE49CFCE4CBF8C20AEC700CCFCECDCC5E
:10021600E824F8F870F38017C3EF33FFEE33FEEDF2
:1002260033FDEC33FCEB33FB994002FB0FD8E9EBD3
:10023600300A05F8D0E0C448B20AC0E00AEC4D4ED8
:100246004F78207B0070C2EAB5660040BCC0E01261
:1002560002BBD0F0D0E0200A04C4C0E0C4B20AC099
:10026600F012004AD0F0D5F0EB02009A120AA00173
:10027600375301B15801084C01044201B54F01BD85
:0F0286004401BD49011D4301C35501A74601A70E
:100295004501A747036350010C2D01102E01332B97
:1002A500011423013120034C2A00CC480000012B06
:1002B5003F3F3F00790AA2D5200C14300E09B91032
:1002C500020404B9080104A2D5200F02500104203C
:1002D5000B68920BB565005034C0E07F20300C19D7
:1002E5007F30A20B720F720E500F120312C20BC297
:1002F5000FC20EC2117F30800F300E03E9C0E0122D
:100305000061300E03D0E0F9D0E0B565CC300E17B2
:100315007F30B9100C1200617F58300D077F78804F
:1003250003B90803120061300B057F2D0200617FC0
:10033500202011F87F2B200FF322920B80CF286EFF
:10034500756C6C2900D20A120026300AF8C20A78A8
:100355006530D50108F60200CC2D504349581200EE
:10036500262403B405004001E490035E9312005275
:0D037500743A120052D20C7565040201B1F9
:100D4E000204B7E493A3F8E493A34003F68001F200
:100D5E0008DFF48029E493A3F85407240CC8C333A6
:100D6E00C4540F4420C8834004F456800146F6DF75
:100D7E00E4800B010204081020408090109EE47E57
:100D8E00019360BCA3FF543F30E509541FFEE4936A
:100D9E00A360010ECF54C025E060A840B8E493A331
:100DAE00FAE493A3F8E493A3C8C582C8CAC583CA5C
:100DBE00F0A3C8C582C8CAC583CADFE9DEE780BE14
:0110AC000043
:100A4800BB010689828A83F0225002F722BBFE018D
:020A5800F32287
:0D0A5A00E6FB08E6F908E6FA08E6CBF8220C
:0C0A6700E0F8A3E0F9A3E0FAA3E0FB2212
:0D0A7300E2FB08E2F908E2FA08E2CBF82203
:100A8000E493F8740193F9740293FA740393FB22CC
:100A9000FAE6FB0808E6F925F0F618E6CA3AF62267
:100AA000D083D082F8E4937012740193700DA3A3E5
:100AB00093F8740193F5828883E4737402936860F9
:060AC000EFA3A3A380DFF9
:00000001FF
