:1002BC007508037509027B007A007908E4FF0200D7
:0102CC00032E
:10029D001202BCD2AFD2817FFA1202CD7FFA1202C6
:0F02AD00CDC2817FFA1202CD7FFA1202CD80E618
:0F02CD007D607C09ED1D70011C144C70F7DFF192
:0102DC0022FF
:10000300EFD3940740037F0122120257FED39403D8
:1000130040037F0222EF7041EE700B900001120249
:1000230070F452935294120257B4010B90000112D0
:1000330002704293F45294120257FEB4020A9000E3
:100043000112027042934294EEB4030D9000011228
:100053000270FEF45293EE4294EF64017043120275
:1000630057FE700B900001120270F452915292EEFF
:10007300B4010B9000011202704291F452921202E9
:1000830057B4020A90000112027042914292120286
:1000930057B4030D900001120270FEF45291EE4228
:1000A30092EF64027043120257FE700B900001122C
:1000B3000270F452955296EEB4010B9000011202B5
:1000C300704295F45296120257B4020A900001123C
:1000D300027042954296120257B4030D900001122A
:1000E3000270FEF45295EE4296EF640370431202DF
:1000F30057FE700B900001120270F452B152B2EE2F
:10010300B4010B90000112027042B1F452B2120218
:1001130057B4020A90000112027042B142B21202B5
:1001230057B4030D900001120270FEF452B1EE4277
:10013300B2EF64047043120257FE700B9000011279
:100143000270F452B352B4EEB4010B9000011202E8
:100153007042B3F452B4120257B4020A900001126F
:10016300027042B342B4120257B4030D900001125D
:100173000270FEF452B3EE42B4EF64057043120210
:1001830057FE700B900001120270F452C952CAEE6E
:10019300B4010B90000112027042C9F452CA120258
:1001A30057B4020A90000112027042C942CA1202F5
:1001B30057B4030D900001120270FEF452C9EE42CF
:1001C300CAEF64067043120257FE700B90000112CF
:1001D3000270F452CB52CCEEB4010B900001120228
:1001E3007042CBF452CC120257B4020A90000112AF
:1001F300027042CB42CC120257B4030D900001129D
:100203000270FEF452CBEE42CCEF6407704312024D
:1002130057FF700B900001120270F452E152E2EFAB
:10022300B4010B90000112027042E1F452E2120297
:1002330057B4020A90000112027042E142E2120234
:1002430057B4030D900001120270FFF452E1EF4224
:04025300E27F002224
:030000000202DD1C
:0C02DD00787FE4F6D8FD75810902029DCF
:10025700BB010689828A83E0225002E722BBFE02A5
:09026700E32289828A83E49322D8
:10027000BB010CE58229F582E5833AF583E0225043
:1002800006E92582F8E622BBFE06E92582F8E2228D
:0D029000E58229F582E5833AF583E49322A7
:00000001FF
