:100EAF00120E3F120BC9120EC7D2AF12052430001B
:080EBF00FAC200120C0780F3D7
:100E3F0043BA8053B2FC43B10390FE077480F09025
:0D0E4F00FE07E030E0F9E4F5DC75F49022D8
:1000CE00EFD3940740037F01221208C5FED3940399
:1000DE0040037F0222EF7041EE700B900001120878
:1000EE00DEF4529352941208C5B4010B9000011223
:1000FE0008DE4293F452941208C5FEB4020A900030
:10010E00011208DE42934294EEB4030D90000112E8
:10011E0008DEFEF45293EE4294EF6401704312082F
:10012E00C5FE700B9000011208DEF452915292EE51
:10013E00B4010B9000011208DE4291F452921208A3
:10014E00C5B4020A9000011208DE429142921208D2
:10015E00C5B4030D9000011208DEFEF45291EE427A
:10016E0092EF640270431208C5FE700B90000112EC
:10017E0008DEF452955296EEB4010B90000112086F
:10018E00DE4295F452961208C5B4020A900001128E
:10019E0008DE429542961208C5B4030D9000011276
:1001AE0008DEFEF45295EE4296EF64037043120899
:1001BE00C5FE700B9000011208DEF452B152B2EE81
:1001CE00B4010B9000011208DE42B1F452B21208D3
:1001DE00C5B4020A9000011208DE42B142B2120802
:1001EE00C5B4030D9000011208DEFEF452B1EE42CA
:1001FE00B2EF640470431208C5FE700B900001123A
:10020E0008DEF452B352B4EEB4010B9000011208A2
:10021E00DE42B3F452B41208C5B4020A90000112C1
:10022E0008DE42B342B41208C5B4030D90000112A9
:10023E0008DEFEF452B3EE42B4EF640570431208CA
:10024E00C5FE700B9000011208DEF452C952CAEEC0
:10025E00B4010B9000011208DE42C9F452CA120812
:10026E00C5B4020A9000011208DE42C942CA120841
:10027E00C5B4030D9000011208DEFEF452C9EE4221
:10028E00CAEF640670431208C5FE700B900001128F
:10029E0008DEF452CB52CCEEB4010B9000011208E2
:1002AE00DE42CBF452CC1208C5B4020A9000011201
:1002BE0008DE42CB42CC1208C5B4030D90000112E9
:1002CE0008DEFEF452CBEE42CCEF64077043120808
:1002DE00C5FF700B9000011208DEF452E152E2EFFE
:1002EE00B4010B9000011208DE42E1F452E2120852
:1002FE00C5B4020A9000011208DE42E142E2120881
:10030E00C5B4030D9000011208DEFFF452E1EF4276
:04031E00E27F002258
:100EC700C200438E805389F0758A40758CA2D28CFC
:030ED700D2A9227B
:03000B00020003ED
:03000300D20032F6
:100BC900E4FDFF120EDE7D817F01120EDE7D3F7F87
:100BD90007120EDE7D3F7F09120EDE7D077F0B12A5
:100BE9000EDE7D017F01120EDE9001087402F0E431
:0E0BF900A3F090010FF0A3F0C20143AF8022E1
:090E9400E4FD7F0E120EDE7F1159
:100E9D00E5FC20E7FBEF4480F5FCE5FC20E7FBAF2C
:010EAD00EC58
:010EAE002221
:040EDA007D407F11C7
:0F0EDE00E5FC20E7FBEF547FF5FCAF058FEC221E
:0D0C4500900114EBF0A3EAF0A3E9F0AE0774
:100C52007F16120E9DAD07AC05AF051DEF601BAFF1
:100C620006120E9D900114E0FBA3E475F001120937
:0C0C720033A9F0FAEF12090B80DFAF0489
:010C7E002253
:100C7F00900117EBF0A3EAF0A3E9F0AE0790011A89
:100C8F00E0FF14F0EF601BAF06900117E0FBA3E449
:100C9F0075F001120933A9F0FA1208C5FD120EDE24
:030CAF0080DB22C5
:0300CB0002072306
:10072300C0E0C0F0C083C082C0D075D000C000C09C
:0D07330001C002C003C004C005C006C0071D
:100740007F06120E9D900111EFF07F02120E9DA305
:10075000EFF07F04120E9DA3EFF0900111E030E165
:1007600003120009900111E030E203120D4B9001D9
:1007700012E030E003120949900112E030E1031267
:100780000E5C900113E030E103120E00900111E0C5
:0607900030E00312000A34
:10079600D007D006D005D004D003D002D001D000B7
:0B07A600D0D0D082D083D0F0D0E03261
:0100090022D4
:100D4B00E4FDFF120EDE9001087402F0E4A3F00D37
:100D5B007F0E120EDE7D487F11120EDE7D017F0E9F
:100D6B00120EDE7D907F14120EDEE4FD7F0E020E5E
:010D7B00DE99
:01000A0022D3
:10094900120E94AE07EE30E20D54DFFD7F11120E48
:10095900DEE4900109F0EE30E408547FFD7F1112C6
:100969000EDE900109E024FD6047146047240470FD
:1009790046EE30E0427B017A0179007F20120C4576
:10098900900106E0FEA3E0FF120E78900106EEF05A
:10099900A3EFF0900100E0546024E0600B24E060D4
:1009A9000A24407009020A34020D7C020F37020042
:0709B900BC0209C1120B3D55
:0109C0002214
:0D00BC009001097405F07D607F11020EDED9
:0C0F0D009001097403F0120EDA0209C111
:0D0F00009001097404F07D407F11020EDEA7
:0C0F1900E4900109F07D487F11020EDE1B
:1009C100120E94EF20E16B90010AE0FEA3E0FFD349
:1009D1009440EE940040067D407F408000900115D8
:1009E100EFF090010CE0FBA3E0FAA3E0F990011A0B
:1009F100EFF07F20120C7F900115E0FF7E00C39085
:100A0100010BE09FF090010AE09EF090010DEE8F46
:100A1100F012091D90010AE07002A3E0700D7D0A39
:100A21007F11120EDEE4900109F0227D027F111286
:020A31000EDED7
:010A330022A0
:100B3D00120E94EF30E04390010CE0FBA3E0FAA31A
:100B4D00E0F97F20120C45EFFDC390010BE09DF005
:100B5D0090010AE09400F090010DE48FF012091D50
:100B6D0090010AE07002A3E0700D7D487F11120E16
:0A0B7D00DEE4900109F022120EDA06
:010B8700224B
:100EED00ED2420FF120C45AE07E4FD7F14120EDE3B
:020EFD00AF063E
:010EFF0022D0
:100E5C007D01120E96AE07EE30E503120EDAEE307F
:0B0E6C00E207E4FD7F11120EDEC20160
:010E77002258
:100E00007D017F0E120EDE7F14120E9DAE07EE30B6
:100E1000E6077D807F14120EDEEE30E003120D181F
:010E200022AF
:10000E001201000200000040BF3403FF0001010294
:10001E0000010902290001010080320904000002DA
:10002E0003010100092101010001224100070581A0
:10003E000308000A0705010301000A05010906A1CC
:10004E0001050719E029E7150025017501950881BD
:10005E000275089501810119002965150025657540
:10006E00089506810005081901290315002501755B
:10007E000195039102750595019101C004030904D0
:10008E00080353005400430022035300540043005E
:10009E00200055005300420020004B0065007900FF
:0E00AE0062006F00610072006400000001003B
:080F25004101240041012500F7
:100D7C00900101E024FE601714601A24FA600D142F
:100D8C006010146013240A7012020CB2020CE502FB
:0F0D9C000DAB020E21020006020F2E1200BC2228
:100CB200900108E0B40408900100E064A16003021E
:100CC20000BC90010C7401F0A37400F0A37400F056
:100CD200900106E0FFA3E090010ACFF0A3EFF0122B
:030CE2000F0D22D1
:100CE500900108E0B40408900100E064216003026B
:100CF50000BC90010C7401F0A37400F0A37400F023
:100D0500900106E0FFA3E090010ACFF0A3EFF012F7
:030D15000F0022AA
:100DAB00900108E0B40408900100E064A160030224
:100DBB0000BC90010C7401F0A37401F0A37426F035
:0C0DCB0090010AE4F0A304F0120F0D22C6
:100E2100900108E0B40408900100E064216003022D
:0E0E310000BC900103E0900126F0120F192280
:030006000200BC39
:030F2E000200BC02
:100D18007B017A0079007D01120EEDEF64017022EB
:100D280053B4FE53B3FE53CC1F53CB1FC2C0900025
:100D380000E0FF13B392EFEFA2E1B392EEA2E2B3A9
:020D480092ED2A
:010D4A002286
:10052400900108E0640460030205EE300103020553
:10053400EE2002030205EEC20290011BF0A3F0A319
:10054400F0A3F0A3F0A3F0A3F0A3F0900124E0241F
:1005540081605324C0604724E0603B24F0602F2472
:10056400F8602324FC601724FE600B14703E900195
:100574001D741EF0803690011D741FF0802E9001B2
:100584001D7420F0802690011D7421F0801E9001BE
:100594001D7422F0801690011D7423F0800E9001CA
:1005A4001D7424F0800690011D7425F053AF7FD292
:1005B400017D017F0E120EDEE4900123F0900123F1
:1005C400E0FFC394085019741B2FF582E43401F53D
:1005D40083E0FD7F21120EDE900123E004F080DD34
:0A05E4007D017F11120EDE43AF808F
:0105EE0022EA
:100C0700E4F594F5937580FFC2860000E580540FE4
:100C1700FFD286C2870000E580540FC454F04FFF0F
:100C2700D287900124E06F6007EFF0A37414F022DD
:0D0C3700900125E0600714F0E07002D20289
:010C4400228D
:100A3400900101E0B40D00504F900A44F828287347
:100A4400020A6B020A6E020A8C020A71020A8C0202
:100A54000A74020A77020A7A020A7D020A80020AEA
:100A640083020A86020A890203220205EF02068A29
:100A7400020AEC020439020F31020A9002083D0214
:0C0A84000B88020DD7020F341200BC22B8
:10032200900100E030E770900103E0706A900102F2
:10033200E07064900106E07004A3E06402600302CE
:100342000432900100E0540F14601914603C24023E
:100352006003020432900105E07006900104E0603F
:1003620019020432900108E0B4040C900105E07017
:1003720006900104E0600302043290010C74FFF065
:10038200A37400F0A374B8020424900108E0B4043A
:1003920006900105E06003020432900104E0FE547D
:1003A2000F900114F0EE14604124806003020430C7
:1003B200900114E0FF7E007401A807088005C33392
:1003C200CE33CED8F9FF90010FE0FDEF5D90010C26
:1003D200600C74FFF0A37400F0A374BA800A74FF77
:1003E200F0A37400F0A374B88038900114E0FF7E8B
:1003F200007401A807088005C333CE33CED8F9FFB5
:10040200900110E0FDEF5D90010C600C74FFF0A311
:100412007400F0A374BA800A74FFF0A37400F0A30E
:1004220074B8F090010AE4F0A37402F08005800031
:060432000200BC120F0DD8
:0104380022A1
:1005EF00900108E064047023900100E0B4021C90B5
:1005FF000105E07016900103E07079900102E07040
:10060F0073900106E07002A3E0600280679001041E
:10061F00E0FE540F900114F0EE1460292480705402
:10062F0090010FE0FF900114E0FDF87401088002C3
:10063F00C333D8FCF45F90010FF07F0E120EDE7DF6
:10064F00407F118023900110E0FF900114E0FDF82E
:10065F007401088002C333D8FCF45F900110F07F5F
:10066F000E120EDE7D807F14120EDEE4FD7F0E1261
:0A067F000EDE80030200BC120F190A
:01068900224E
:10068A00900108E064047023900100E0B4021C9019
:10069A000105E0707D900103E07077900102E0703F
:1006AA0071900106E07002A3E06002806590010487
:1006BA00E0FE540F900114F0EE146028248070526A
:1006CA0090010FE0FF900114E0FDF8740108800228
:1006DA00C333D8FC4F90010FF07F0E120EDE7D104F
:1006EA007F118022900110E0FF900114E0FDF87460
:1006FA0001088002C333D8FC4F900110F07F0E121C
:10070A000EDE7D207F14120EDEE4FD7F0E120EDE59
:08071A0080030200BC120F195C
:0107220022B4
:100AEC00900100E07025900105E0701F900104E07A
:100AFC007019900103E07013900102E0C3948050D0
:100B0C000A900106E07002A3E060030200BC9001B1
:100B1C0002E0900114F0FDE4FF120EDE900114E0EF
:100B2C0090010860057403F080037402F0120F1931
:010B3C002296
:10043900900100E020E703020503900103E024FE98
:10044900602B14604124E170030204EA2421600353
:1004590002050390010C74FFF0A37400F0A3740E5D
:10046900F090010AE4F0A37412F002050690010C61
:1004790074FFF0A37400F0A37420F090010AE4F073
:10048900A37429F08077900102E01460201460368B
:100499002402704B90010C74FFF0A37400F0A37454
:1004A9008AF090010AE4F0A37404F0805090010CE2
:1004B90074FFF0A37400F0A3748EF090010AE4F0C5
:1004C900A37408F0803790010C74FFF0A37400F056
:1004D900A37496F090010AE4F0A37422F0801E80C0
:1004E9001990010C74FFF0A37400F0A37449F09003
:1004F900010AE4F0A37441F080030200BC900106F4
:10050900E0FEA3E0FFD390010BE09F90010AE09E7B
:0B0519004005EEF0A3EFF0120F0D22E2
:030F31000200BCFF
:100A9000900100E064807024900103E0701E9001DA
:100AA00002E07018900105E07012900104E0700CF3
:100AB000900106E07004A3E0640160030200BC90B2
:100AC0000108E090010CB4040C74FFF0A37400F072
:100AD000A374BA800A74FFF0A37400F0A374B8F092
:0C0AE00090010AE4F0A304F0120F0D22B4
:10083D00900108E064026022900100E0701C9001BC
:10084D0003E07016900105E07010900104E0700A4D
:10085D00900106E07002A3E060030200BC9001026B
:10086D00E06401900108703F7404F0E490010FF012
:10087D00900110F07D017F0E120EDE7D207F121291
:10088D000EDE7D087F10120EDE7D017F0E120EDE54
:10089D00E4FD7F12120EDE7D087F13120EDEE4FDE5
:1008AD007F0E120EDE800D7403F090010F74FFF0B9
:0808BD00900110F0120F192246
:100B8800900108E0B4041D900100E0B481169001C2
:100B980003E07010900105E0700AA3E07004A3E080
:100BA800640160030200BC90010C74FFF0A37400A0
:100BB800F0A374B8F090010AE4F0A304F0120F0D4A
:010BC800220A
:100DD700900108E0B4041B900100E0B401149001F5
:100DE70003E0700E900105E07008A3E07002A3E035
:090DF70060030200BC120F192276
:030F34000200BCFC
:030F37000200BCF9
:080E7800900114EEF0A3EFF06D
:100E8000E0A3F0900114E0900117F0900116E0FE4D
:030E9000A3E0FFDD
:010E9300223C
:030000000207B143
:0C07B100787FE4F6D8FD7581200207F87F
:1008C500BB010689828A83E0225002E722BBFE0231
:0908D500E32289828A83E4932264
:1008DE00BB010CE58229F582E5833AF583E02250CF
:1008EE0006E92582F8E622BBFE06E92582F8E22219
:0D08FE00E58229F582E5833AF583E4932233
:10090B00BB010689828A83F0225002F722BBFE01CB
:02091B00F322C5
:10091D00C5F0F8A3E028F0C5F0F8E5821582700265
:06092D001583E038F02202
:10093300A3F8E0C5F025F0F0E58215827002158377
:06094300E0C838F0E822D4
:1007BD00020EAFE493A3F8E493A34003F68001F295
:1007CD0008DFF48029E493A3F85407240CC8C3333D
:1007DD00C4540F4420C8834004F456800146F6DF0C
:1007ED00E4800B0102040810204080900F25E47E68
:1007FD00019360BCA3FF543F30E509541FFEE49301
:10080D00A360010ECF54C025E060A840B8E493A3C7
:10081D00FAE493A3F8E493A3C8C582C8CAC583CAF2
:10082D00F0A3C8C582C8CAC583CADFE9DEE780BEAA
:010F2D0000C3
:00000001FF
