:020F3F000F0F92
:020F41000F217E
:020F43000F4A53
:100EAC002564D0D0A3AC2564C1D02055500D0A00C8
:100EBC002564D0D0A3AC2564C1D020446F776E0DCF
:020ECC000A001A
:010F4C002282
:100E3D007522407523017527007526C2752501752C
:100E4D002400752901E4F52A752B01F52CF52DFBF0
:090E5D007A0079227F01020A9F4C
:0C0F3300120F4C120E3D120ECED2AF2257
:080003008F50120E66AF50226F
:10000E007BFF7A0E79AC753F008F40AF05754100CE
:05001E008F4202008882
:100EE7007BFF7A0E79BC753F008F40AF05754100D7
:050EF7008F420200889B
:100F0F00120F337F011204F47F021204F4E4FF0284
:020F1F00057D4E
:100F21007B007A007935120C557D047F021206068A
:020F310080EE50
:020F4A0080FE27
:03000B0002038766
:10038200C2AF80FE3212038685D00B75D008AAE078
:10039200C28CE58A24F7F58AE58C34D8F58CD28CA8
:1003A200EC241EF8E6BC020274FFC39581B414006B
:1003B20040CE7903781716E608700BC2AFE630E13B
:1003C200034418F6D2AF08D9EDEA8BD030090122E6
:1003D200D50DFCC0E0C0D0C0F0C083C082C000C058
:1003E20001C002C003C004C005C006C007E50C235B
:1003F2002418F87440C2AF46F6D2AFD209E50CFF1A
:10040200232418F80F0808BF03047F007818E63089
:10041200E4F200E50CC39F5020050C741D250CF876
:10042200E6FDA68108E6AE0CBE020274FFCDF8E836
:100432006D60E008E6C0E080F6E50CD39F4027E55A
:100442000C241EF8E6AE0CBE020274FFFD18E6CDC7
:10045200F8E5816D6006D0E0F61880F5E50C241D04
:10046200C8F6150C80D3750D05E50C232418F87F0A
:1004720004C2AFE610E61E30E00310E20C7F00304B
:05048200E10730E30476
:100487007F0854F4547CC6D2AF54804207C2092275
:10049700F6D2AFD007D006D005D004D003D002D013
:1004A70001D000D082D083D0F0D0D0D0E0C20922D2
:1004B700781DA68174026006FF0876FFDFFB7F03C5
:1004C700E47817F608F608DFFA78187630900F3FC9
:1004D700740193C0E0E493C0E0750D05438901758D
:0D04E7008AF0758CD8D28CD2AFD2A9220237
:1004F400EFD3940240037FFF2274182F2FF8E620D5
:10050400E5F4C2AFE64430F6D2AFAE0CEEC39F5072
:10051400210E741D2EF8E6F908E618BE020274FFD7
:10052400FDED69600909E71919F7090980F3161641
:1005340080DAEED39F400405810581EED39F4022EB
:10054400741D2EF808E6F9EEB50C02A9811806060A
:10055400E6FDED6960091919E70909F71980F31E29
:1005640080D9EF241DF8E604F8EF2F04900F3F9391
:09057400F608EF2F93F67F002238
:10057D00EFD3940240037FFF22EF232418F8E630D7
:10058D00E5F4C2AFE6548CF6D2AFE50CB5070A74AC
:10059D001D2FF8E6F5810203FD502E741E2FF8E68F
:1005AD00BF020274FFFD18E6F9741D2FF8FBE6FC7F
:1005BD00E96C6008A805E7F61D1980F4A803A605E7
:1005CD001FE50CB507E37F0022741E2FF8E6FD181A
:1005DD0086010F741D2FF8A601088604E50CB507DA
:1005ED0002AC81ED6C60080D09A805E6F780F4E515
:0905FD000CB507DE89817F0022A4
:100606008FF0E4FFFEE50C232417F8C2A930F70D9E
:100616007F08E6600B2DF660325030800730F10619
:10062600EDF660277E020830F010C2AFE610E7252F
:100636000E30E20CD2AF7F048014C2AFE610E7158D
:1006460054EC4EF6D2AFD2A90203FD7F0808EF4460
:0F06560083F4C2AF56C6D2AFD2A954804FFF2251
:10066500EFD3940740037F01221208B9FED3940308
:1006750040037F0222EF7041EE700B9000011208DB
:10068500D2F4529352941208B9B4010B900001129E
:1006950008D24293F452941208B9FEB4020A9000AB
:1006A500011208D242934294EEB4030D9000011258
:1006B50008D2FEF45293EE4294EF6401704312089F
:1006C500B9FE700B9000011208D2F452915292EECD
:1006D500B4010B9000011208D24291F45292120813
:1006E500B9B4020A9000011208D24291429212084E
:1006F500B9B4030D9000011208D2FEF45291EE42F6
:1007050092EF640270431208B9FE700B900001125B
:1007150008D2F452955296EEB4010B9000011208DE
:10072500D24295F452961208B9B4020A9000011209
:1007350008D2429542961208B9B4030D90000112F1
:1007450008D2FEF45295EE4296EF64037043120808
:10075500B9FE700B9000011208D2F452B152B2EEFC
:10076500B4010B9000011208D242B1F452B2120842
:10077500B9B4020A9000011208D242B142B212087D
:10078500B9B4030D9000011208D2FEF452B1EE4245
:10079500B2EF640470431208B9FE700B90000112A9
:1007A50008D2F452B352B4EEB4010B900001120812
:1007B500D242B3F452B41208B9B4020A900001123D
:1007C50008D242B342B41208B9B4030D9000011225
:1007D50008D2FEF452B3EE42B4EF6405704312083A
:1007E500B9FE700B9000011208D2F452C952CAEE3C
:1007F500B4010B9000011208D242C9F452CA120882
:10080500B9B4020A9000011208D242C942CA1208BC
:10081500B9B4030D9000011208D2FEF452C9EE429C
:10082500CAEF640670431208B9FE700B90000112FE
:1008350008D2F452CB52CCEEB4010B900001120851
:10084500D242CBF452CC1208B9B4020A900001127C
:1008550008D242CB42CC1208B9B4030D9000011264
:1008650008D2FEF452CBEE42CCEF64077043120877
:10087500B9FF700B9000011208D2F452E152E2EF79
:10088500B4010B9000011208D242E1F452E21208C1
:10089500B9B4020A9000011208D242E142E21208FC
:1008A500B9B4030D9000011208D2FFF452E1EF42F2
:0408B500E27F0022BC
:060A9F008B2E8A2F893026
:100AA500EF64016003020C52750E01F50FF510F5A8
:100AB50011F512F513F5147F80900080E4F0A3DFA3
:100AC500FC7F80900000E4F0A3DFFCAB2EAA2FA9E9
:100AD5003090000A1208D2FED3940340037F02220D
:100AE500EE700553B7EFC2BC90000A1208D2B401EC
:100AF5000553B7EFD2BC90000A1208D2FFB4020525
:100B050043B710C2BCEFB4030543B710D2BC1208FB
:100B1500B9D394C040037F02221208B9FFE5985467
:100B25003F4FF598EF64C06008EF64406003020B27
:100B3500E79000021209F17F807E8D7D5B7C0012BB
:100B4500093B8F348E338D328C31E4FFFE7D01FC01
:100B5500AB34AA33A932A831C31209CD40037F02B1
:100B650022C3E49534F534E49533F53374019532B5
:100B7500F532E49531F531AB2EAA2FA9309000015D
:100B85001208D2FB6401702CC28E538EFE5389BFAE
:100B95005389CF438E40AF34AE33AD32AC31780894
:100BA5001209DE8F8D85348BC2AB5389BF538FFD00
:100BB500D28E8062EB64027026538EEF438E015312
:100BC5008EF7438E04AF34AE33AD32AC31780812B4
:100BD50009DE8FD68534D753AFFB438E1080377F20
:100BE5000222AB2EAA2FA9301208B9FF701390006C
:100BF500081208D2B40105438E20801A538EDF8077
:100C050015EFB480119000081208D2B4010543878E
:100C150080800353877FAB2EAA2FA930900009123D
:100C250008D2B40104D2AC8002C2AC90000712080D
:100C3500D2B40104D29C8002C29C90000B1208D24F
:0F0C450054C0FFE5A2543F4FF5A27F00227F026B
:010C5400227D
:100E660074802510F582E43400F583EFF00510E573
:100E760010C394804003E4F510E511700575110167
:030E8600D29922DC
:100EFC001208B9FF600C120E66740129F9E43AFA73
:030F0C0080EE2252
:03002300020DA724
:100DA700C0E0C083C082C0D075D000C0073098248F
:100DB700C298E514701EE512C394804003751200B3
:100DC700AF12051274002FF582E43400F583E5991C
:100DD700F0751305309927C299E50F6510601C74EB
:100DE70080250FF582E43400F583E0F599050FE5DA
:100DF7000FC394804008750F008003751100D0075A
:090E0700D0D0D082D083D0E032BB
:040F45000215FFFF93
:100E8900EF7005A28333FF22BF0104A2868010BF41
:100E99000204A2878009BF0304A2978002A283E407
:030EA90033FF22F2
:100E1000EF7008C2B4D2B5D2C0D2C1BF0108D2B4FB
:100E2000C2B5D2C0D2C1BF0208D2B4D2B5C2C0D2FC
:0D0E3000C1BF0308D2B4D2B5D2C0C2C122E6
:100ECE0053943753933753B2CF53B1CF53B4FC53DC
:090EDE00B3FC53927F53917F2273
:060C55008B378A38893953
:100C5B00E4F53BAF3B120E10E4F53AAF3A120E89B6
:100C6B00EF7049E53B25E025E0253AFFAE15E5168B
:100C7B00A807088005CEC313CE13D8F930E02DADED
:100C8B003AAF3B120EE7E53B25E025E0253AFF7E28
:100C9B00007401A807088005C333CE33CED8F9F40E
:100CAB00FFEEF4FEEF5216EE5215804BAF3A120EDA
:100CBB0089EF64017041E53B25E025E0253AFFAE65
:100CCB0015E516A807088005CEC313CE13D8F92057
:100CDB00E025AD3AAF3B12000EE53B25E025E025C4
:100CEB003AFF7E007401A807088005C333CE33CECC
:100CFB00D8F94216EE4215053AE53AC3940450036F
:0F0D0B00020C66053BE53BC394045003020C5EEB
:010D1A0022B6
:03000000020D1BD3
:0C0D1B00787FE4F6D8FD758150020D626F
:1008B900BB010689828A83E0225002E722BBFE023D
:0908C900E32289828A83E4932270
:1008D200BB010CE58229F582E5833AF583E02250DB
:1008E20006E92582F8E622BBFE06E92582F8E22225
:0D08F200E58229F582E5833AF583E493223F
:1008FF0075F008758200EF2FFFEE33FECD33CDCCB0
:10090F0033CCC58233C5829BED9AEC99E582984032
:10091F000CF582EE9BFEED9AFDEC99FC0FD5F0D60F
:10092F00E4CEFBE4CDFAE4CCF9A88222B800C1B939
:10093F000059BA002DEC8BF084CFCECDFCE5F0CB77
:10094F00F97818EF2FFFEE33FEED33FDEC33FCEBB0
:10095F0033FB10D703994004EB99FB0FD8E5E4F96B
:10096F00FA227818EF2FFFEE33FEED33FDEC33FC58
:10097F00C933C910D7059BE99A4007EC9BFCE99A4C
:10098F00F90FD8E0E4C9FAE4CCFB2275F010EF2F91
:10099F00FFEE33FEED33FDCC33CCC833C810D70791
:1009AF009BEC9AE899400AED9BFDEC9AFCE899F8CC
:0E09BF000FD5F0DAE4CDFBE4CCFAE4C8F9225F
:1009CD00EB9FF5F0EA9E42F0E99D42F0E89C45F080
:0109DD0022F7
:1009DE00E8600FECC313FCED13FDEE13FEEF13FFF7
:0309EE00D8F1221B
:1009F100BB010DE58229F582E5833AF583020A40C0
:100A01005007E92582F8020A33BBFE07E92582F87F
:100A1100020A4CE58229F582E5833AF583020A59F7
:10002600E54B243FF8E6054B22783C300702783F43
:10003600E475F001120A690208B92000EB7F2ED29E
:10004600008018EF540F2490D43440D4FF30040BB2
:10005600EF24BFB41A0050032461FFE54C6002157B
:100066004C054FE54F7002054E30070D783CE475A0
:10007600F001120A69EF020A210200037403D20793
:100086008003E4C207F54B8B3C8A3D893EE4F54C80
:10009600F54EF54FE54C60077F2012006180F5753F
:1000A6004DFFC201C200C202C203C205C206C20897
:1000B60012002FFF700D3007057F00120072AF4F40
:1000C600AE4E22B4255FC2D5C20412002FFF24D043
:1000D600B40A00501A75F00A784C30D50508B6FFF8
:1000E6000106C6A426F620D5047002D20380D924C0
:1000F600CFB41A00EF5004C2E5D204020272D20154
:1001060080C6D20080C0D20280BCD2D580BAD205C9
:1001160080B47F201200612002077401B54C0040B4
:10012600F1120026FF12006102009AD208D2068060
:1001360095120026FB120026FA120026F94A4B7089
:100146000679437A037BFF20022EE54C602A7E0067
:100156008E827583001208D260060EEE654D70F031
:10016600C2D5EBC0E0EAC0E0E9C0E0EE1202B9D0C9
:10017600E0F9D0E0FAD0E0FB1208B9FF60AAEBC0C4
:10018600E0EAC0E0E9C0E0120061D0E02401F9D065
:10019600E03400FAD0E0FBE54D0460DCD54DD980B3
:1001A600877BFF7A0279B5D202809C79108002792A
:1001B60008C206C2088008D2D5790A8004790AC224
:1001C600D5E54D047002F54DE4FAFDFEFF1200265A
:1001D600FC7B08200113120026FD7B1030000A125A
:1001E6000026FE120026FF7B20EC3382D592D550E6
:1001F60013C3E43000069FFFE49EFEE42001039D46
:10020600FDE49CFCE4CBF8C201EC700CCFCECDCC67
:10021600E824F8F870F38017C3EF33FFEE33FEEDF2
:1002260033FDEC33FCEB33FB994002FB0FD8E9EBD3
:10023600300105F8D0E0C448B201C0E00AEC4D4EEA
:100246004F78207B0070C2EAB54D0040BCC0E0127A
:1002560002BBD0F0D0E0200104C4C0E0C4B201C0AB
:10026600F012004AD0F0D5F0EB02009A120A79019A
:10027600375301B15801084C01044201B54F01BD85
:0F0286004401BD49011D4301C35501A74601A70E
:100295004501A747036350010C2D01102E01332B97
:1002A500011423013120034C2A00CC480000012B06
:1002B5003F3F3F00790AA2D5200314300509B91044
:1002C500020404B9080104A2D52006025001042045
:1002D50002689202B54C005034C0E07F203003190B
:1002E5007F30A20272067205500F120312C202C2BB
:1002F50006C205C2087F30800F300503E9C0E01251
:100305000061300503D0E0F9D0E0B54CCC300517DD
:100315007F30B9100C1200617F583004077F788058
:1003250003B908031200613002057F2D0200617FC9
:10033500202008F87F2B2006F322920280CF286E1A
:10034500756C6C2900D2011200263001F8C20178C3
:100355004C30D50108F60200CC2D50434958120007
:10036500262403B405004001E490035E9312005275
:0D037500743A120052D203754C040201B11B
:100D27000204B7E493A3F8E493A34003F68001F227
:100D370008DFF48029E493A3F85407240CC8C333CD
:100D4700C4540F4420C8834004F456800146F6DF9C
:100D5700E4800B0102040810204080900F45E47ED8
:100D6700019360BCA3FF543F30E509541FFEE49391
:100D7700A360010ECF54C025E060A840B8E493A358
:100D8700FAE493A3F8E493A3C8C582C8CAC583CA83
:100D9700F0A3C8C582C8CAC583CADFE9DEE780BE3B
:010F490000A7
:100A2100BB010689828A83F0225002F722BBFE01B4
:020A3100F322AE
:0D0A3300E6FB08E6F908E6FA08E6CBF82233
:0C0A4000E0F8A3E0F9A3E0FAA3E0FB2239
:0D0A4C00E2FB08E2F908E2FA08E2CBF8222A
:100A5900E493F8740193F9740293FA740393FB22F3
:100A6900FAE6FB0808E6F925F0F618E6CA3AF6228E
:100A7900D083D082F8E4937012740193700DA3A30C
:100A890093F8740193F5828883E473740293686020
:060A9900EFA3A3A380DF20
:00000001FF
