:1009F100751A027519037B007A007919E4FF020464
:010A0100A054
:1009C80075215D7522BFE4F53375470475490875CF
:1009D8001E70F52DF52E753D01754C01754A01FB0C
:0909E8007A0079197F0202000374
:10093F00E4F5181209F11209C8D2AF0518E518C36A
:10094F0094644003E4F518AF18E4FCFDFE7BBF7A16
:10095F005DF9F812079DE47B64FAF9F81209848EA9
:10096F00128F137B007A0079087F021208BA7F0A70
:05097F00120A0280C60F
:0F0A02007D607C09ED1D70011C144C70F7DFF155
:010A110022C2
:1004A000EFD3940740037F01221206F4FED3940396
:1004B00040037F0222EF7041EE700B9000011207A3
:1004C0000DF4529352941206F4B4010B90000112F1
:1004D000070D4293F452941206F4FEB4020A9000FF
:1004E0000112070D42934294EEB4030D90000112E5
:1004F000070DFEF45293EE4294EF6401704312062E
:10050000F4FE700B90000112070DF452915292EE1E
:10051000B4010B90000112070D4291F452921206A1
:10052000F4B4020A90000112070D429142921206A1
:10053000F4B4030D90000112070DFEF45291EE4247
:1005400092EF640270431206F4FE700B90000112E9
:10055000070DF452955296EEB4010B90000112076C
:100560000D4295F452961206F4B4020A900001125C
:10057000070D429542961206F4B4030D9000011245
:10058000070DFEF45295EE4296EF64037043120697
:10059000F4FE700B90000112070DF452B152B2EE4E
:1005A000B4010B90000112070D42B1F452B21206D1
:1005B000F4B4020A90000112070D42B142B21206D1
:1005C000F4B4030D90000112070DFEF452B1EE4297
:1005D000B2EF640470431206F4FE700B9000011237
:1005E000070DF452B352B4EEB4010B9000011207A0
:1005F0000D42B3F452B41206F4B4020A9000011290
:10060000070D42B342B41206F4B4030D9000011278
:10061000070DFEF452B3EE42B4EF640570431206C8
:10062000F4FE700B90000112070DF452C952CAEE8D
:10063000B4010B90000112070D42C9F452CA120610
:10064000F4B4020A90000112070D42C942CA120610
:10065000F4B4030D90000112070DFEF452C9EE42EE
:10066000CAEF640670431206F4FE700B900001128C
:10067000070DF452CB52CCEEB4010B9000011207DF
:100680000D42CBF452CC1206F4B4020A90000112CF
:10069000070D42CB42CC1206F4B4030D90000112B8
:1006A000070DFEF452CBEE42CCEF64077043120606
:1006B000F4FF700B90000112070DF452E152E2EFCB
:1006C000B4010B90000112070D42E1F452E2120650
:1006D000F4B4020A90000112070D42E142E2120650
:1006E000F4B4030D90000112070DFFF452E1EF4244
:0406F000E27F002283
:10000300EF640160030202C643BA8090002912071D
:100013000DFED394035027EE700653B6FB53B5FB86
:10002300EEB4010653B6FB43B504EEB4020643B681
:100033000453B5FBEEB4030643B60443B504900082
:100043002A12070DFED394035027EE700653B6F71A
:1000530053B5F7EEB4010653B6F743B508EEB40251
:100063000643B60853B5F7EEB4030643B60843B5E3
:100073000890002B12070DFED394035027EE700651
:1000830053EEEF53DFEFEEB4010653EEEF43DF1011
:10009300EEB4020643EE1053DFEFEEB4030643EE75
:1000A3001043DF1090002C12070DFED3940350274A
:1000B300EE700653EEDF53DFDFEEB4010653EEDFDF
:1000C30043DF20EEB4020643EE2053DFDFEEB4033A
:1000D3000643EE2043DF2090FECCE4F0A3F01206AB
:1000E300F4FE90FEC8E0548F4EF090000112070D0D
:1000F300FE90FEC9E0548F4EF090000212070DFEF1
:1001030090FECAE0548F4EF090000312070DFE904C
:10011300FECBE0548F4EF090002712070D90FEC8DF
:10012300B40106E04408F08004E054F7F09000289E
:1001330012070D90FEC8B40106E04404F08004E009
:1001430054FBF090001B12070D90FECCB40106E0A7
:100153004401F08004E054FEF090001C12070D905F
:10016300FECCB40106E04404F08004E054FBF090BC
:10017300001D12070D90FECCB40106E04410F08080
:1001830004E054EFF090001E12070D90FECCB40172
:1001930006E04440F08004E054BFF090001F1207D3
:1001A3000D90FECDB40106E04401F08004E054FE5E
:1001B300F090002012070D90FECDB40106E0440438
:1001C300F08004E054FBF090002112070D90FECD67
:1001D300B40106E04410F08004E054EFF0900022F4
:1001E30012070D90FECDB40106E04440F08004E018
:1001F30054BFF0900008120765FD90FED2E5F0F0C1
:10020300A3EDF090000A120765FD90FED5E5F0F02E
:10021300A3EDF090000C120765FD90FED7E5F0F01A
:10022300A3EDF090000E120765FD90FED9E5F0F006
:10023300A3EDF0900010120765FD90FEDBE5F0F0F2
:10024300A3EDF090002F12070D90FEC17007E0544C
:10025300FEFEF08005E04401FEF090FEC1EEF0905A
:10026300003012070D90FEB2F090002E12070D9091
:10027300FEB1F090001A12070D90FEDEF0900032EE
:1002830012070D90FEDDB40106E04410F08004E097
:1002930054EFF090003312070D90FEDDB40106E039
:1002A3004480F08004E0547FF090003112070D90F9
:1002B300FEC0B40107E04401F0020497E054FEF0ED
:1002C300020497EF6402600302049D43BA80900026
:1002D3002D12070DFFD394035027EF700653EEBF83
:1002E30053DFBFEFB4010653EEBF43DF40EFB40269
:1002F3000643EE4053DFBFEFB4030643EE4043DF54
:100303004090FEECE4F0A3F090000412070DFF9080
:10031300FEE8E0548F4FF090000512070DFF90FEAA
:10032300E9E0548F4FF090000612070DFF90FEEAAC
:10033300E0548F4FF090000712070DFF90FEEBE0A3
:10034300548F4FF090002712070D90FEE8B401067A
:10035300E04408F08004E054F7F090002812070D01
:1003630090FEE8B40106E04404F08004E054FBF09E
:1003730090002312070D90FEECB40106E04401F057
:100383008004E054FEF090002412070D90FEECB4BC
:100393000106E04410F08004E054EFF090002512D1
:1003A300070D90FEEDB40106E04401F08004E05433
:1003B300FEF090002612070D90FEEDB40106E04416
:1003C30010F08004E054EFF0900008120765FF90EE
:1003D300FEF2E5F0F0A3EFF0900012120765FF9034
:1003E300FEF5E5F0F0A3EFF0900014120765FF901F
:1003F300FEF7E5F0F0A3EFF0900016120765FF900B
:10040300FEF9E5F0F0A3EFF0900018120765FF90F6
:10041300FEFBE5F0F0A3EFF090002F12070D90FE26
:10042300C17007E054FEFFF08005E04401FFF09047
:10043300FEC1EFF090003012070D90FEB6F0900071
:100443002E12070D90FEB5F090001A12070D90FEC4
:10045300FEF090003212070D90FEFDB40106E04459
:1004630010F08004E054EFF090003312070D90FE7B
:10047300FDB40106E04480F08004E0547FF0900076
:100483003112070D90FEE0B40106E04401F0800450
:0D049300E054FEF053BA7F7F00227F02226A
:1008BA0043BA80EF6401703912073AFF90FED5E51A
:1008CA00F0F0A3EFF0900002120765FF90FED7E563
:1008DA00F0F0A3EFF0900004120765FF90FED9E54F
:1008EA00F0F0A3EFF0900006120765FF90FEDB80A0
:1008FA003A900008120765FF90FEF5E5F0F0A3EFC5
:10090A00F090000A120765FF90FEF7E5F0F0A3EFFA
:10091A00F090000C120765FF90FEF9E5F0F0A3EFE6
:10092A00F090000E120765FF90FEFBE5F0F0A3EFD2
:05093A00F053BA7F221A
:03000000020A12DF
:0C0A1200787FE4F6D8FD75814C02093FA6
:1006F400BB010689828A83E0225002E722BBFE0204
:09070400E32289828A83E4932236
:10070D00BB010CE58229F582E5833AF583E02250A1
:10071D0006E92582F8E622BBFE06E92582F8E222EB
:0D072D00E58229F582E5833AF583E4932205
:10073A00BB010A89828A83E0F5F0A3E0225006878A
:10074A00F009E71922BBFE07E3F5F009E31922894C
:0B075A00828A83E493F5F0740193227F
:10076500BB0110E58229F582E5833AF583E0F5F0D2
:10077500A3E0225009E92582F886F008E622BBFEAF
:100785000AE92582F8E2F5F008E222E5832AF583F5
:08079500E993F5F0A3E99322BA
:10079D00E88FF0A4CC8BF0A42CFCE98EF0A42CFCFB
:1007AD008AF0EDA42CFCEA8EF0A4CDA8F08BF0A479
:1007BD002DCC3825F0FDE98FF0A42CCD35F0FCEBD8
:1007CD008EF0A4FEA9F0EB8FF0A4CFC5F02ECD399D
:0F07DD00FEE43CFCEAA42DCE35F0FDE43CFC220A
:10098400C2D5E830E70FB2D5E4C39BFBE49AFAE49E
:1009940099F9E498F8EC30E717B2D51209BA1208BD
:1009A40028E4C39BFBE49AFAE499F9E498F88003F9
:1009B40012082830D50DE4C39FFFE49EFEE49DFD9C
:0409C400E49CFC2291
:1007EC0075F008758200EF2FFFEE33FECD33CDCCC4
:1007FC0033CCC58233C5829BED9AEC99E582984047
:10080C000CF582EE9BFEED9AFDEC99FC0FD5F0D623
:10081C00E4CEFBE4CDFAE4CCF9A88222B800C1B94D
:10082C000059BA002DEC8BF084CFCECDFCE5F0CB8B
:10083C00F97818EF2FFFEE33FEED33FDEC33FCEBC4
:10084C0033FB10D703994004EB99FB0FD8E5E4F97F
:10085C00FA227818EF2FFFEE33FEED33FDEC33FC6C
:10086C00C933C910D7059BE99A4007EC9BFCE99A60
:10087C00F90FD8E0E4C9FAE4CCFB2275F010EF2FA5
:10088C00FFEE33FEED33FDCC33CCC833C810D707A5
:10089C009BEC9AE899400AED9BFDEC9AFCE899F8E0
:0E08AC000FD5F0DAE4CDFBE4CCFAE4C8F92273
:00000001FF
