:0D000E0048656C6C6F20576F72640D0A001E
:03000300010F00EA
:100EB100E4F537753808FB7A0079377F050206FAC1
:10006600753740753801753C00753BC2753A0175A8
:100076003900753E01E4F53F754001F541F542FB57
:090086007A0079377F01020B6C4E
:100E8000E4F537F538753901F53AF53B753CA2754F
:0E0E90003D40753E01FB7A007937FF020402F7
:03000700020E5D89
:0F0ED100E50FB401097BFF7A00790E12010822A8
:100E1700120EB1120066120E80D2AF7F0A120EC1F7
:100E2700E50DD3940040F4D50DF1E50CD3940040C3
:100E370020E4F536E536C3950C501674002536F5D3
:100E470082E43400F583E0FFF50F120E5D0536806E
:060E5700E3E4F50C80C588
:0F0EC1007D607C09ED1D70011C144C70F7DFF192
:010ED00022FF
:1006FA00EFD3940740037F012212094EFED39403DD
:10070A0040037F0222EF7041EE700B900001120944
:10071A0067F45293529412094EB4010B90000112DD
:10072A0009674293F4529412094EFEB4020A9000E9
:10073A000112096742934294EEB4030D900001122C
:10074A000967FEF45293EE4294EF64017043120972
:10075A004EFE700B900001120967F452915292EE0C
:10076A00B4010B9000011209674291F452921209E6
:10077A004EB4020A9000011209674291429212098C
:10078A004EB4030D900001120967FEF45291EE4235
:10079A0092EF6402704312094EFE700B9000011230
:1007AA000967F452955296EEB4010B9000011209B2
:1007BA00674295F4529612094EB4020A9000011249
:1007CA0009674295429612094EB4030D9000011230
:1007DA000967FEF45295EE4296EF640370431209DC
:1007EA004EFE700B900001120967F452B152B2EE3C
:1007FA00B4010B90000112096742B1F452B2120916
:10080A004EB4020A90000112096742B142B21209BB
:10081A004EB4030D900001120967FEF452B1EE4284
:10082A00B2EF6404704312094EFE700B900001127D
:10083A000967F452B352B4EEB4010B9000011209E5
:10084A006742B3F452B412094EB4020A900001127C
:10085A00096742B342B412094EB4030D9000011263
:10086A000967FEF452B3EE42B4EF6405704312090D
:10087A004EFE700B900001120967F452C952CAEE7B
:10088A00B4010B90000112096742C9F452CA120955
:10089A004EB4020A90000112096742C942CA1209FB
:1008AA004EB4030D900001120967FEF452C9EE42DC
:1008BA00CAEF6406704312094EFE700B90000112D3
:1008CA000967F452CB52CCEEB4010B900001120925
:1008DA006742CBF452CC12094EB4020A90000112BC
:1008EA00096742CB42CC12094EB4030D90000112A3
:1008FA000967FEF452CBEE42CCEF6407704312094B
:10090A004EFF700B900001120967F452E152E2EFB8
:10091A00B4010B90000112096742E1F452E2120994
:10092A004EB4020A90000112096742E142E212093A
:10093A004EB4030D900001120967FFF452E1EF4231
:04094A00E27F002226
:060B6C008B438A44894519
:100B7200EF64016003020D1F750801F509F50AF51E
:100B82000BF50CF50DF50E7F80900080E4F0A3DFED
:100B9200FC7F80900000E4F0A3DFFCAB43AA44A9F1
:100BA2004590000A120967FED3940340037F022294
:100BB200EE700553B7EFC2BC90000A120967B40188
:100BC2000553B7EFD2BC90000A120967FFB40205C1
:100BD20043B710C2BCEFB4030543B710D2BC12092D
:100BE2004ED394C040037F022212094EFFE598546F
:100BF2003F4FF598EF64C06008EF64406003020C59
:100C0200B4900002120ABE7F807E8D7D5B7C001252
:100C12000A088F498E488D478C46E4FFFE7D01FC11
:100C2200AB49AA48A947A846C3120A9A40037F02C1
:100C320022C3E49549F549E49548F548740195477E
:100C4200F547E49546F546AB43AA44A94590000111
:100C5200120967FB6401702CC28E538EFE5389BF4A
:100C62005389CF438E40AF49AE48AD47AC46780872
:100C7200120AAB8F8D85498BC2AB5389BF538FFD4F
:100C8200D28E8062EB64027026538EEF438E015344
:100C92008EF7438E04AF49AE48AD47AC4678081292
:100CA2000AAB8FD68549D753AFFB438E1080377F6F
:100CB2000222AB43AA44A94512094EFF70139000C9
:100CC20008120967B40105438E20801A538EDF8013
:100CD20015EFB48011900008120967B4010543872B
:100CE20080800353877FAB43AA44A9459000091231
:100CF2000967B40104D2AC8002C2AC9000071209A9
:100D020067B40104D29C8002C29C90000B12096756
:0F0D120054C0FFE5A2543F4FF5A27F00227F029D
:010D210022AF
:100E5D007480250AF582E43400F583EFF0050AE588
:100E6D000AC394804003E4F50AE50B7005750B0188
:030E7D00D29922E5
:100E9E0012094EFF600C120E5D740129F9E43AFA44
:030EAE0080EE22B1
:03002300020DAE1D
:100DAE00C0E0C083C082C0D075D000C00730982488
:100DBE00C298E50E701EE50CC394804003750C00BE
:100DCE00AF0C050C74002FF582E43400F583E59921
:100DDE00F0750D05309927C299E509650A601C74F6
:100DEE00802509F582E43400F583E0F5990509E5DF
:100DFE0009C3948040087509008003750B00D00765
:090E0E00D0D0D082D083D0E032B4
:03000B00020026CA
:10002600C0E0C0F0C083C082C0D075D000C000C0A0
:1000360001C002C003C004C005C006C007120ED12D
:10004600D007D006D005D004D003D002D001D0000E
:0B005600D0D0D082D083D0F0D0E032B8
:03001B0002001EC2
:03001E00B2EE320D
:0300630002008F09
:03008F00B2ED329D
:03009B00020092CE
:03009200B2EC329B
:0300A300020095C3
:03009500B2EB3299
:10040200AD07EDD3940440037F0122ED60030204A3
:10041200C4C28C900002120967B40104D2A98002FE
:10042200C2A9900001120967FED3940340037F0220
:1004320022EE700553B7FDC2B9900001120967B4EC
:10044200010553B7FDD2B9900001120967FFB4024A
:100452000543B702C2B9EFB4030543B702D2B912DA
:10046200094EFEC3940340037F0222E58954FC4EE9
:10047200F589900003120967FFB40103538E7FEFE1
:100482007003438E80EFB4020543890480035389CD
:10049200FB900004120967B40105438F01800353E6
:1004A2008FFE900005120994E5F0F58C900005127C
:1004B2000994F58A900007120967B40102D28C7F71
:1004C2000022ED64016003020582C28E90000212D6
:1004D2000967B40104D2AB8002C2AB9000011209D9
:1004E20067FED3940340037F0222EE700553B7F7F1
:1004F200C2BB900001120967B4010553B7F7D2BB22
:10050200900001120967FFB4020543B708C2BBEFAE
:10051200B4030543B708D2BB12094EFEC39403408D
:10052200037F0222EEC454F0FFE58954CF4FF589D0
:10053200900003120967FFB40103538EBFEF7003EB
:10054200438E40EFB4020543894080035389BF9034
:100552000004120967B40105438F028003538FFD23
:10056200900005120994E5F0F58D900005120994AA
:10057200F58B900007120967B40102D28E7F002228
:10058200ED64027078538EEF900002120967B40195
:100592000543AF04800353AFFB900003120967FECB
:1005A200D3940240037F0222EEB40103538EFB90E8
:1005B20000031209677003438E0490000312096757
:1005C200B40205438E088003538EF790000412098B
:1005D20067B40105438F048003538FFB900005121B
:1005E2000994E5F0F5D6900005120994F5D790002C
:1005F20007120967B40103438E107F0022ED6403E2
:10060200707853D1F7900002120967B4010543AF25
:1006120020800353AFDF900003120967FED39402D8
:1006220040037F0222EEB4010353D1FD9000031276
:100632000967700343D102900003120967B40205EF
:1006420043D104800353D1FB900004120967B40123
:100652000543D101800353D1FE900005120994E5B0
:10066200F0F5D4900005120994F5D590000712090F
:1006720067B4010343D1087F0022ED64047076530E
:10068200D17F900002120967B4010543AF40800395
:1006920053AFBF900003120967FED3940240037F59
:1006A2000222EEB4010353D1DF90000312096770F6
:1006B2000343D120900003120967B4020543D140DD
:1006C200800353D1BF900004120967B4010543D1DE
:1006D20010800353D1EF900005120994FDACF0ECA9
:1006E200F5D2AF058FD3900007120967B401034317
:0806F200D1807F00227F02226B
:03000000020D22CC
:0C0D2200787FE4F6D8FD758149020D6968
:10094E00BB010689828A83E0225002E722BBFE02A7
:09095E00E32289828A83E49322DA
:10096700BB010CE58229F582E5833AF583E0225045
:1009770006E92582F8E622BBFE06E92582F8E2228F
:0D098700E58229F582E5833AF583E49322A9
:10099400BB0110E58229F582E5833AF583E0F5F0A1
:1009A400A3E0225009E92582F886F008E622BBFE7E
:1009B4000AE92582F8E2F5F008E222E5832AF583C4
:0809C400E993F5F0A3E9932289
:1009CC0075F008758200EF2FFFEE33FECD33CDCCE2
:1009DC0033CCC58233C5829BED9AEC99E582984065
:1009EC000CF582EE9BFEED9AFDEC99FC0FD5F0D642
:1009FC00E4CEFBE4CDFAE4CCF9A88222B800C1B96C
:100A0C000059BA002DEC8BF084CFCECDFCE5F0CBA9
:100A1C00F97818EF2FFFEE33FEED33FDEC33FCEBE2
:100A2C0033FB10D703994004EB99FB0FD8E5E4F99D
:100A3C00FA227818EF2FFFEE33FEED33FDEC33FC8A
:100A4C00C933C910D7059BE99A4007EC9BFCE99A7E
:100A5C00F90FD8E0E4C9FAE4CCFB2275F010EF2FC3
:100A6C00FFEE33FEED33FDCC33CCC833C810D707C3
:100A7C009BEC9AE899400AED9BFDEC9AFCE899F8FE
:0E0A8C000FD5F0DAE4CDFBE4CCFAE4C8F92291
:100A9A00EB9FF5F0EA9E42F0E99D42F0E89C45F0B2
:010AAA002229
:100AAB00E8600FECC313FCED13FDEE13FEEF13FF29
:030ABB00D8F1224D
:100ABE00BB010DE58229F582E5833AF583020B0D24
:100ACE005007E92582F8020B00BBFE07E92582F8E4
:100ADE00020B19E58229F582E5833AF583020B268E
:1000A600E5312425F8E60531227822300702782545
:1000B600E475F001120B3602094E2000EB7F2ED2BA
:1000C600008018EF540F2490D43440D4FF30040B32
:1000D600EF24BFB41A0050032461FFE53260021515
:1000E600320535E5357002053430070D7822E475A2
:1000F600F001120B36EF020AEE0200077403D20774
:100106008003E4C207F5318B228A238924E4F53281
:10011600F534F535E53260077F201200E180F5758C
:1001260033FFC201C200C202C203C205C206C20830
:100136001200AFFF700D3007057F001200F2AF35D9
:10014600AE3422B4255FC2D5C2041200AFFF24D05C
:10015600B40A00501A75F00A783230D50508B6FF91
:100166000106C6A426F620D5047002D20380D9243F
:10017600CFB41A00EF5004C2E5D2040202F2D20153
:1001860080C6D20080C0D20280BCD2D580BAD20549
:1001960080B47F201200E12002077401B5320040CE
:1001A600F11200A6FF1200E102011AD208D206805F
:1001B600951200A6FB1200A6FA1200A6F94A4B7089
:1001C6000679C37A037BFF20022EE532602A7E0081
:1001D6008E8275830012096760060EEE653370F035
:1001E600C2D5EBC0E0EAC0E0E9C0E0EE120339D0C8
:1001F600E0F9D0E0FAD0E0FB12094EFF60AAEBC0AE
:10020600E0EAC0E0E9C0E01200E1D0E02401F9D064
:10021600E03400FAD0E0FBE5330460DCD533D98066
:10022600877BFF7A037935D202809C791080027928
:1002360008C206C2088008D2D5790A8004790AC2A3
:10024600D5E533047002F533E4FAFDFEFF1200A68D
:10025600FC7B082001131200A6FD7B1030000A1259
:1002660000A6FE1200A6FF7B20EC3382D592D55065
:1002760013C3E43000069FFFE49EFEE42001039DC5
:10028600FDE49CFCE4CBF8C201EC700CCFCECDCCE7
:10029600E824F8F870F38017C3EF33FFEE33FEED72
:1002A60033FDEC33FCEB33FB994002FB0FD8E9EB53
:1002B600300105F8D0E0C448B201C0E00AEC4D4E6A
:1002C6004F78207B0070C2EAB5330040BCC0E01214
:1002D600033BD0F0D0E0200104C4C0E0C4B201C0AA
:1002E600F01200CAD0F0D5F0EB02011A120B46014B
:1002F600B75302315801884C01844202354F023D02
:0F03060044023D49019D43024355022746022709
:100315004502274703E350018C2D01902E01B32B95
:1003250001942301B12003CC2A014C48000001AB04
:100335003F3F3F00790AA2D5200314300509B910C3
:10034500020404B9080104A2D520060250010420C4
:1003550002689202B532005034C0E07F20300319A4
:100365007F30A20272067205500F120392C202C2BA
:1003750006C205C2087F30800F300503E9C0E012D0
:1003850000E1300503D0E0F9D0E0B532CC300517F7
:100395007F30B9100C1200E17F583004077F788058
:1003A50003B908031200E13002057F2D0200E17F49
:1003B500202008F87F2B2006F322920280CF286E9A
:1003C500756C6C2900D2011200A63001F8C20178C3
:1003D5003230D50108F602014C2D50434958120020
:1003E500A62403B405004001E49003DE931200D275
:0D03F500743A1200D2D203753204020231B4
:100D2E00020E17E493A3F8E493A34003F68001F2B6
:100D3E0008DFF48029E493A3F85407240CC8C333C6
:100D4E00C4540F4420C8834004F456800146F6DF95
:100D5E00E4800B0102040810204080900003E47E22
:100D6E00019360BCA3FF543F30E509541FFEE4938A
:100D7E00A360010ECF54C025E060A840B8E493A351
:100D8E00FAE493A3F8E493A3C8C582C8CAC583CA7C
:100D9E00F0A3C8C582C8CAC583CADFE9DEE780BE34
:0100060000F9
:100AEE00BB010689828A83F0225002F722BBFE01E7
:020AFE00F322E1
:0D0B0000E6FB08E6F908E6FA08E6CBF82265
:0C0B0D00E0F8A3E0F9A3E0FAA3E0FB226B
:0D0B1900E2FB08E2F908E2FA08E2CBF8225C
:100B2600E493F8740193F9740293FA740393FB2225
:100B3600FAE6FB0808E6F925F0F618E6CA3AF622C0
:100B4600D083D082F8E4937012740193700DA3A33E
:100B560093F8740193F5828883E473740293686052
:060B6600EFA3A3A380DF52
:00000001FF
