:10070200E4F50A750B1CFB7A00790A7F04020026C5
:1006B600750A40750B01750F00750EC2750D017533
:1006C6000C00751101E4F512751301F514F515FB0F
:0906D6007A00790A7F0102027A20
:1005CE001207021206B6D2AF750880750920E4FD37
:1005DE00C374079DFF7E007401A807088005C3330E
:1005EE00CE33CED8F9FFE508FBEF5B6004D2C480B2
:1005FE0002C2C4C2C20000D2C200000DBD08D1E4C6
:10060E00FDC374079DFF7E007401A807088005C313
:10061E0033CE33CED8F9FFE509FBEF5B6004D2C4CD
:10062E008002C2C4C2C20000D2C200000DBD08D1F9
:0F063E00C2C30000D2C300007F64120712808F76
:10002600EFD3940740037F0122120430FED39403DA
:1000360040037F0222EF7041EE700B900001120424
:1000460049F452935294120430B4010B90000112F9
:1000560004494293F45294120430FEB4020A90000A
:100066000112044942934294EEB4030D900001122A
:100076000449FEF45293EE4294EF64017043120475
:1000860030FE700B900001120449F452915292EE28
:10009600B4010B9000011204494291F452921204E9
:1000A60030B4020A900001120449429142921204AD
:1000B60030B4030D900001120449FEF45291EE4251
:1000C60092EF64027043120430FE700B900001122E
:1000D6000449F452955296EEB4010B9000011204B5
:1000E600494295F45296120430B4020A9000011265
:1000F600044942954296120430B4030D9000011251
:100106000449FEF45295EE4296EF640370431204DE
:1001160030FE700B900001120449F452B152B2EE57
:10012600B4010B90000112044942B1F452B2120418
:1001360030B4020A90000112044942B142B21204DC
:1001460030B4030D900001120449FEF452B1EE42A0
:10015600B2EF64047043120430FE700B900001127B
:100166000449F452B352B4EEB4010B9000011204E8
:100176004942B3F452B4120430B4020A9000011298
:10018600044942B342B4120430B4030D9000011284
:100196000449FEF452B3EE42B4EF64057043120410
:1001A60030FE700B900001120449F452C952CAEE97
:1001B600B4010B90000112044942C9F452CA120458
:1001C60030B4020A90000112044942C942CA12041C
:1001D60030B4030D900001120449FEF452C9EE42F8
:1001E600CAEF64067043120430FE700B90000112D1
:1001F6000449F452CB52CCEEB4010B900001120428
:100206004942CBF452CC120430B4020A90000112D7
:10021600044942CB42CC120430B4030D90000112C3
:100226000449FEF452CBEE42CCEF6407704312044D
:1002360030FF700B900001120449F452E152E2EFD4
:10024600B4010B90000112044942E1F452E2120497
:1002560030B4020A90000112044942E142E212045B
:1002660030B4030D900001120449FFF452E1EF424D
:04027600E27F002201
:06027A008B168A1789189B
:10028000EF6401600302042D751D01F51EF51FF5D5
:1002900020F521F522F5237F80900080E4F0A3DF94
:1002A000FC7F80900000E4F0A3DFFCAB16AA17A946
:1002B0001890000A120449FED3940340037F0222DF
:1002C000EE700553B7EFC2BC90000A120449B401A6
:1002D0000553B7EFD2BC90000A120449FFB40205DF
:1002E00043B710C2BCEFB4030543B710D2BC12042D
:1002F00030D394C040037F0222120430FFE59854AB
:100300003F4FF598EF64C06008EF6440600302035C
:10031000C29000021205687F807E8D7D5B7C00129A
:1003200004B28F1C8E1B8D1A8C19E4FFFE7D01FC1C
:10033000AB1CAA1BA91AA819C312054440037F02CB
:1003400022C3E4951CF51CE4951BF51B7401951A5A
:10035000F51AE49519F519AB16AA17A9189000011A
:10036000120449FB6401702CC28E538EFE5389BF68
:100370005389CF438E40AF1CAE1BAD1AAC19780821
:100380001205558F8D851C8BC2AB5389BF538FFDD2
:10039000D28E8062EB64027026538EEF438E01533F
:1003A0008EF7438E04AF1CAE1BAD1AAC1978081241
:1003B00005558FD6851CD753AFFB438E1080377FF2
:1003C0000222AB16AA17A918120430FF701390006E
:1003D00008120449B40105438E20801A538EDF8031
:1003E00015EFB48011900008120449B40105438749
:1003F00080800353877FAB16AA17A91890000912B3
:100400000449B40104D2AC8002C2AC9000071204CB
:1004100049B40104D29C8002C29C90000B12044992
:0F04200054C0FFE5A2543F4FF5A27F00227F0298
:01042F0022AA
:1006DF007480251FF582E43400F583EFF0051FE5E4
:1006EF001FC394804003E4F51FE5207005752001BA
:0306FF00D299226B
:10000300120430FF600C1206DF740129F9E43AFA96
:0300130080EE225A
:0300230002064D85
:10064D00C0E0C083C082C0D075D000C007309824F0
:10065D00C298E523701EE521C394804003752100E7
:10066D00AF21052174002FF582E43400F583E5995F
:10067D00F0752205309927C299E51E651F601C741F
:10068D0080251EF582E43400F583E0F599051EE51D
:10069D001EC394804008751E008003752000D0078E
:0906AD00D0D0D082D083D0E0321D
:0F0712007D607C09ED1D70011C144C70F7DFF148
:0107210022B5
:03000000020016E5
:0C001600787FE4F6D8FD7581230205CE4A
:10043000BB010689828A83E0225002E722BBFE02CA
:09044000E32289828A83E49322FD
:10044900BB010CE58229F582E5833AF583E0225068
:1004590006E92582F8E622BBFE06E92582F8E222B2
:0D046900E58229F582E5833AF583E49322CC
:1004760075F008758200EF2FFFEE33FECD33CDCC3D
:1004860033CCC58233C5829BED9AEC99E5829840C0
:100496000CF582EE9BFEED9AFDEC99FC0FD5F0D69D
:1004A600E4CEFBE4CDFAE4CCF9A88222B800C1B9C7
:1004B6000059BA002DEC8BF084CFCECDFCE5F0CB05
:1004C600F97818EF2FFFEE33FEED33FDEC33FCEB3E
:1004D60033FB10D703994004EB99FB0FD8E5E4F9F9
:1004E600FA227818EF2FFFEE33FEED33FDEC33FCE6
:1004F600C933C910D7059BE99A4007EC9BFCE99ADA
:10050600F90FD8E0E4C9FAE4CCFB2275F010EF2F1E
:10051600FFEE33FEED33FDCC33CCC833C810D7071E
:100526009BEC9AE899400AED9BFDEC9AFCE899F859
:0E0536000FD5F0DAE4CDFBE4CCFAE4C8F922EC
:10054400EB9FF5F0EA9E42F0E99D42F0E89C45F00D
:010554002284
:10055500E8600FECC313FCED13FDEE13FEEF13FF84
:03056500D8F122A8
:10056800BB010DE58229F582E5833AF5830205A5ED
:100578005007E92582F8020598BBFE07E92582F8AD
:100588000205B1E58229F582E5833AF5830205BEC5
:0D059800E6FB08E6F908E6FA08E6CBF822D3
:0C05A500E0F8A3E0F9A3E0FAA3E0FB22D9
:0D05B100E2FB08E2F908E2FA08E2CBF822CA
:1005BE00E493F8740193F9740293FA740393FB2293
:00000001FF
