:0C000E0001110A01130101120001100091
:1006FC00E4F508750920FB7A0079087F0412039E43
:10070C00E4F508750920FB7A0079087F0102039E45
:10071C00E4F508F509750A01F50BF50C750DA275D4
:0E072C000E40750F01FB7A007908FF0200A64F
:10006600E512C395135004C2958002D2950512E598
:1000760012B51103E4F512E510B464050513E4F5B1
:0E008600100510E513D3940A4003E4F513228D
:0E073A001206FC12071CD2AFC2C5C29580FE8B
:10039E00EFD3940740037F012212067EFED394030F
:1003AE0040037F0222EF7041EE700B9000011206A7
:1003BE0097F45293529412067EB4010B90000112E0
:1003CE0006974293F4529412067EFEB4020A9000EF
:1003DE000112069742934294EEB4030D900001125F
:1003EE000697FEF45293EE4294EF640170431206A8
:1003FE007EFE700B900001120697F452915292EE0F
:10040E00B4010B9000011206974291F4529212061B
:10041E007EB4020A90000112069742914292120691
:10042E007EB4030D900001120697FEF45291EE4237
:10043E0092EF6402704312067EFE700B9000011262
:10044E000697F452955296EEB4010B9000011206E7
:10045E00974295F4529612067EB4020A900001124B
:10046E0006974295429612067EB4030D9000011235
:10047E000697FEF45295EE4296EF64037043120611
:10048E007EFE700B900001120697F452B152B2EE3E
:10049E00B4010B90000112069742B1F452B212064B
:1004AE007EB4020A90000112069742B142B21206C1
:1004BE007EB4030D900001120697FEF452B1EE4287
:1004CE00B2EF6404704312067EFE700B90000112B0
:1004DE000697F452B352B4EEB4010B90000112061B
:1004EE009742B3F452B412067EB4020A900001127F
:1004FE00069742B342B412067EB4030D9000011269
:10050E000697FEF452B3EE42B4EF64057043120642
:10051E007EFE700B900001120697F452C952CAEE7D
:10052E00B4010B90000112069742C9F452CA12068A
:10053E007EB4020A90000112069742C942CA120600
:10054E007EB4030D900001120697FEF452C9EE42DE
:10055E00CAEF6406704312067EFE700B9000011205
:10056E000697F452CB52CCEEB4010B90000112065A
:10057E009742CBF452CC12067EB4020A90000112BE
:10058E00069742CB42CC12067EB4030D90000112A8
:10059E000697FEF452CBEE42CCEF64077043120680
:1005AE007EFF700B900001120697F452E152E2EFBB
:1005BE00B4010B90000112069742E1F452E21206CA
:1005CE007EB4020A90000112069742E142E2120640
:1005DE007EB4030D900001120697FFF452E1EF4234
:0405EE00E27F002286
:03000B0002001ED2
:10001E00C0E0C0F0C083C082C0D075D000C000C0A8
:10002E0001C002C003C004C005C006C007120066AE
:10003E00D007D006D005D004D003D002D001D00016
:0B004E00D0D0D082D083D0F0D0E032C0
:03001B00020003DD
:03000300B2EE3228
:0300630002000692
:03000600B2ED3226
:03009B0002005907
:03005900B2EC32D4
:0300A30002005CFC
:03005C00B2EB32D2
:1000A600AD07EDD3940440037F0122ED6003020106
:1000B60068C28C900002120697B40104D2A980028D
:1000C600C2A9900001120697FED3940340037F0253
:1000D60022EE700553B7FDC2B9900001120697B41F
:1000E600010553B7FDD2B9900001120697FFB4027D
:1000F6000543B702C2B9EFB4030543B702D2B9123A
:10010600067EFEC3940340037F0222E58954FC4E1B
:10011600F589900003120697FFB40103538E7FEF13
:100126007003438E80EFB40205438904800353892C
:10013600FB900004120697B40105438F0180035318
:100146008FFE9000051206C4E5F0F58C90000512AE
:1001560006C4F58A900007120697B40102D28C7F76
:100166000022ED64016003020226C28E9000021294
:100176000697B40104D2AB8002C2AB90000112060E
:1001860097FED3940340037F0222EE700553B7F720
:10019600C2BB900001120697B4010553B7F7D2BB54
:1001A600900001120697FFB4020543B708C2BBEFE1
:1001B600B4030543B708D2BB12067EFEC3940340C0
:1001C600037F0222EEC454F0FFE58954CF4FF58930
:1001D600900003120697FFB40103538EBFEF70031E
:1001E600438E40EFB4020543894080035389BF9094
:1001F6000004120697B40105438F028003538FFD56
:100206009000051206C4E5F0F58D9000051206C4AF
:10021600F58B900007120697B40102D28E7F00225A
:10022600ED64027078538EEF900002120697B401C7
:100236000543AF04800353AFFB900003120697FEFD
:10024600D3940240037F0222EEB40103538EFB9047
:1002560000031206977003438E049000031206975C
:10026600B40205438E088003538EF79000041206ED
:1002760097B40105438F048003538FFB900005124A
:1002860006C4E5F0F5D69000051206C4F5D7900031
:1002960007120697B40103438E107F0022ED640314
:1002A600707853D1F7900002120697B4010543AF58
:1002B60020800353AFDF900003120697FED394020B
:1002C60040037F0222EEB4010353D1FD90000312D6
:1002D6000697700343D102900003120697B40205F5
:1002E60043D104800353D1FB900004120697B40156
:1002F6000543D101800353D1FE9000051206C4E5E3
:10030600F0F5D49000051206C4F5D5900007120644
:1003160097B4010343D1087F0022ED64047076533D
:10032600D17F900002120697B4010543AF408003C7
:1003360053AFBF900003120697FED3940240037F8B
:100346000222EEB4010353D1DF9000031206977028
:100356000343D120900003120697B4020543D1400F
:10036600800353D1BF900004120697B4010543D110
:1003760010800353D1EF9000051206C4FDACF0ECDB
:10038600F5D2AF058FD3900007120697B401034349
:08039600D1807F00227F0222CA
:030000000205F204
:0C05F200787FE4F6D8FD7581130206390D
:10067E00BB010689828A83E0225002E722BBFE027A
:09068E00E32289828A83E49322AD
:10069700BB010CE58229F582E5833AF583E0225018
:1006A70006E92582F8E622BBFE06E92582F8E22262
:0D06B700E58229F582E5833AF583E493227C
:1006C400BB0110E58229F582E5833AF583E0F5F074
:1006D400A3E0225009E92582F886F008E622BBFE51
:1006E4000AE92582F8E2F5F008E222E5832AF58397
:0806F400E993F5F0A3E993225C
:1005FE0002073AE493A3F8E493A34003F68001F2D2
:10060E0008DFF48029E493A3F85407240CC8C333FD
:10061E00C4540F4420C8834004F456800146F6DFCC
:10062E00E4800B010204081020408090000EE47E4E
:10063E00019360BCA3FF543F30E509541FFEE493C1
:10064E00A360010ECF54C025E060A840B8E493A388
:10065E00FAE493A3F8E493A3C8C582C8CAC583CAB3
:10066E00F0A3C8C582C8CAC583CADFE9DEE780BE6B
:01001A0000E5
:00000001FF
