:1000030031323836342CB4F8D6D0CEC4D7D6BFE28A
:10001300003136583136BCF2CCE5BABAD7D6BFE296
:100023002C00BBF238583136B5E3D5F3415343497D
:10003300492C00BBF2355837B5E3D5F34153434957
:1000430049C2EB00D6D0BEB0D4B0B5E7D7D300D603
:10005300F7D2AAC9FAB2FA4F4C4544C4A3BFE90088
:10006300B9CBBFCDD6C1C9CFD5E6B3CFB7FECEF19D
:1000730000B3CFD0C5D3EBD6CAC1BFB5DAD2BBA3C9
:10008300A100474232333132BCF2CCE5D7D6BFE2CE
:10009300BCB000D3D0CDBCD0CDB9A6C4DCA3ACBF1B
:1000A300C9D7D400B1E0B4F3D7D6BBF2CDBCCFF1FE
:1000B300BBF2C9FA00C6A7D7D6A3ACC0C8E7A3BA98
:1000C300003C21402324255E262A28295F2D2B5D11
:1000D3002F003C21402324255E262A28295F2D2B2F
:1000E3005D2F3B2E2C3F5B00585920656C65637474
:1000F300726F6E69637320436F2E2C20004C7464FF
:100103002E2065737461626C697368656420617421
:100113002020007965617220323031302E466F63C2
:100123007573204F4C454420004D6F62696C653AEE
:1001330031333236353538353937350054656C3A15
:10014300303735352D333239313037313500B0A1C1
:10015300B0A2B0A3B0A4B0A5B0A6B0A7B0A800B099
:10016300A9B0AAB0ABB0ACB0ADB0AEB0AFB0B00058
:10017300B0B1B0B2B0B3B0B4B0B5B0B6B0B7B0B858
:1001830000B0B9B0BAB0BBB0BCB0BDB0BEB0BFB0C8
:10019300C000F7DFF7E0F7E1F7E2F7E3F7E4F7E5AD
:1001A300F7E600F7E7F7E8F7E9F7EAF7EBF7ECF735
:1001B300EDF7EE00F7EFF7F0F7F1F7F2F7F3F7F4F7
:1001C300F7F5F7F600F7FEF7F8F7FAF7FBF7FCF7A2
:1001D300F7F7F7F90000060AFE0AC600E000F00090
:1001E300F8000000000000FE7DBBC7EFEFEFEFEF6C
:1001F300EFEFC7BB7DFE0000000000000000000021
:1002030000000000000000000000000000000000EB
:1002130000000000000000000000000000000000DB
:1002230000000000000000000000000000000000CB
:1002330000000000080CFEFE0C082060FEFE60209B
:100243000000007848FE82BABA82BABA82BABA8289
:10025300BABA82FE000000000000000000000000A7
:100263000000000000000000010101010101010183
:100273000101010101000000000000000000000076
:10028300000000000000000000000000000000006B
:10029300000000000000000000000000000000005B
:1002A300000000000000000000000000000000004B
:1002B300000000000000000000000000000000003B
:1002C300000000000000000000000000000000002B
:1002D300000000000000000000000000000000001B
:1002E300000000000000000000000000000000000B
:1002F300000000FEFF030303030303030303FFFFE5
:100303000000FEFF030303030303030303FFFE00D5
:10031300000000C0C0C000000000FEFF0303030391
:100323000303030303FFFE0000FEFF0303030303B2
:1003330003030303FFFE00000000000000000000B1
:1003430000000000000000000000000000000000AA
:10035300000000000000000000000000000000009A
:10036300000000000000000000000000000000008A
:10037300000000FFFF000000000000000000FFFF7E
:100383000000FFFF0C0C0C0C0C0C0C0C0CFFFF0002
:10039300000000E1E1E100000000FFFF00000000B9
:1003A3000000000000FFFF0000FFFF0C0C0C0C0C12
:1003B3000C0C0C0CFFFF000000000000000000000C
:1003C300000000000000000000000000000000002A
:1003D300000000000000000000000000000000001A
:1003E300000000000000000000000000000000000A
:1003F3000000000F1F1818181818181818181F0FC6
:1004030000000F1F1818181818181818181F0F00B5
:10041300000000000000000000000F1F181818184B
:1004230018181818181F0F00000F1F18181818187D
:10043300181818181F0F000000000000000000002B
:1004430000000000000000000000000000000000A9
:100453000000000000000000000000000000000099
:100463000000000000000000000000000000000089
:1004730000000000000000000000E2928A860000F5
:100483007C8282827C00FE008292AAC60000C0C0E9
:10049300007C8282827C0000020202FE0000C0C057
:1004A300007C8282827C0000FE00000000000000CD
:1004B3000000000000000000000000000000000039
:1004C3000000000000000000000000000000000029
:1004D30000000000000024A42E24E4242EA4240001
:1004E3000000F84A4C48F8484C4AF8000000000065
:1004F30000000000000000000000000000000000F9
:1005030000000000000000000000000000000000E8
:1005130000000000000000000000000000000000D8
:1005230000000000000000000000000000000000C8
:1005330000000000000000000000000000000000B8
:1005430000C0201010101020C00000C02010101098
:100553001020C0000000120A07027F02070A1200DF
:1005630000000B0A0A0A7F0A0A0A0B0000000000B7
:100573000000000000000000000000000000000078
:100583000000000000000000000000000000000068
:100593000000000000000000000000000000000058
:1005A3000000000000000000000000000000000048
:1005B3000000000000000000000000000000000038
:1005C300001F2040404050205F80001F20404040DB
:0505D30050205F8000D4
:1014FE006020004400FE8242A29E8A82868AB262E8
:10150E0002FE0000007F40407F40404040407F4050
:10151E00407F000060200064808080BFA5A5A53FAD
:10152E00A5A5A5BF808080007F24243F24247F00B2
:08153E007F24243F24247F00D8
:1016AF00E4F593F594F591F592F595F596F5B1F579
:1016BF00B2F5B3F5B4F5C9F5CAF5CBF5CCF5E1F54F
:0216CF00E22215
:100F1F00900000120923000000001216AF1213D424
:100F2F00E4FF1216EFE4FF12165C1216867BFF7AAF
:100F3F000179D812162E7FF47E0112170B7BFF7AE0
:100F4F00007903E4FDFF12098E7BFF7A0079147D8F
:100F5F0002E4FF12098E7BFF7A0079257D04E4FFFE
:100F6F0012098E7BFF7A0079367D06E4FF12098E17
:100F7F007FF47E0112170B1216867BFF7A007947DA
:100F8F00E4FD7F1812098E7BFF7A0079527D02E40F
:100F9F00FF12098E7BFF7A0079637D04E4FF12094B
:100FAF008E7BFF7A0079747D06E4FF12098E7FF441
:100FBF007E0112170B1216867BFF7A007985E4FDEE
:100FCF00FF12098E7BFF7A0079967D02E4FF1209EA
:100FDF008E7BFF7A0079A77D04E4FF12098E7BFFD9
:100FEF007A0079B87D06E4FF12098E7B017A0079C9
:100FFF00447D067F6112158F7B017A0079647D062F
:10100F007F7112158F7FF47E0112170B1216867BDC
:10101F00FF7A0079C4E4FDFF12098E7BFF7A007915
:10102F00D57D02E4FF1212B37BFF7A0079EB7D03CB
:10103F00E4FF1212B37BFF7A0179007D04E4FF1203
:10104F0012B37BFF7A0179167D05E4FF1212B37B91
:10105F00FF7A01792C7D06E4FF1212B37BFF7A0130
:10106F00793F7D07E4FF1212B37FF47E0112170B55
:10107F001216867BFF7A017951E4FDFF12098E7BF0
:10108F00FF7A0179627D02E4FF12098E7BFF7A01FC
:10109F0079737D04E4FF12098E7BFF7A0179847DD9
:1010AF0006E4FF12098E7FF47E0112170B121686CB
:1010BF007BFF7A017995E4FDFF12098E7BFF7A01A0
:1010CF0079A67D02E4FF12098E7BFF7A0179B77D45
:1010DF0004E4FF12098E7BFF7A0179C87D06E4FFD5
:1010EF0012098E7FF47E0112170B121686020F3C27
:10173F002E00300031003200330034003500360007
:06174F00370038003900EC
:0715460044009400000000C6
:10170B00EF4E60157D087C07ED1DAA0470011C4A85
:09171B0070F6EF1F70EA1E80E772
:0117240022A2
:1016EF00900004EFF07006FD7FA61216059000041F
:0C16FF00E0B40107E4FD7FA712160522ED
:10165C00900004EFF0700DFD7FC8121605E4FD7FBD
:10166C00A1121605900004E0B4010EE4FD7FC01237
:0A167C001605E4FD7FA012160522FA
:10175500E4FD7F8D121605E4FD7F14121605E4FDE8
:051765007FAF02160534
:10176A00E4FD7F8D121605E4FD7F10121605E4FDD7
:05177A007FAE02160520
:0615FF0012075FFF7D01F1
:10160500ED6004D2968002C296C2C7E4FEC2C8EF5E
:1016150030E704D2938002C293D2C8EF25E0FF0ED3
:08162500EEB408E9D2C7D29629
:01162D00229A
:10168600E4FCEC24B0FFE4FD1216057F10121605EB
:10169600E4FF121605E4FB7D01E4FF1216050BEBD1
:0816A600B480F40CECB408DA86
:0116AE002219
:1016D100AC07ED24B0FFE4FD121605EC54F0C45440
:0E16E1000F4410FF121605EC540FFF02160501
:10162E00E4900004F0900004E0FDC39408501EE422
:10163E00FF1216D1E4FC1215FF740129F9E43AFAEF
:0D164E000CECB480F1900004E004F080D8B2
:01165B00226C
:08158F0090003DEFF0A3EDF028
:10159700E4A3F090003DE0FFA3E0FD1216D1E4FCC8
:1015A7001215FF740129F9E43AFA0CECB410F19022
:0F15B700003EE004F0A3E004F0E0C3940240D44F
:0115C6002202
:0815C70090003DEFF0A3EDF0F0
:1015CF00E4A3F090003DE0FFA3E0FD1216D1E4FC90
:1015DF001215FF740129F9E43AFA0CECB408F190F2
:0F15EF00003EE004F0A3E004F0E0C3940240D417
:0115FE0022CA
:10177F001216D1E4FC1215FF740129F9E43AFA0CA0
:04178F00ECB406F1BF
:011793002233
:10172500E4FEC2C8EF30E704D2938002C293EF25EE
:09173500E0FFD2C80EEEB408E991
:01173E002288
:10179400E4FFFEC2C8EF25E0FF3091010FD2C80E6E
:0417A400EEB408EFA8
:0117A800221E
:02154E00AC07E8
:10155000C2907F03121725AF04121725AF0512178B
:1015600025AF03121725E4FD900043E0FFEDC39F74
:10157000501A121794900040E0FBA3E0FAA3E0F9A0
:0E1580008D82758300EF1207A50D80DCD290DE
:01158E00223A
:10098E00900004EFF0A3EDF0A3EBF0A3EAF0A3E9DF
:01099E00F068
:10099F00E4A3F0900006E0FBA3E0FAA3E0F9A3E0E4
:1009AF00F582758300120778FFD394005003020C71
:1009BF00CAEF94B05003020A6BEFD394F7400302CF
:1009CF000A6B900009E02401FFE433FE8F828E83CF
:1009DF00120778C394A15003020A6B900006A3A3D9
:1009EF00A3E0F5827583001207782450FFE434FFEB
:1009FF00FE7C007D5E1207C7EE3395E0FDFC900094
:100A0F0094120917900094E0F8A3E0F9A3E0FAA379
:100A1F00E0FBC000C001C002C003900009E0240148
:100A2F00FFE433FE900006E0FBA3E0FAA3E0F98FAA
:100A3F00828E83120778245FFFE434FFCF244ECFDA
:100A4F003403FEE4FCFDD003D002D001D000EB2F25
:100A5F00FFEA3EFEED39FDEC38020B25900006E073
:100A6F00FBA3E0FAA3E0F9A3E0F582758300120778
:100A7F0078FFC394A15003020BC6EFD394A3400396
:100A8F00020BC6900009E02401FFE433FE8F828E33
:100A9F0083120778C394A15003020BC6900006A3DC
:100AAF00A3A3E0F582758300120778245FFFE43477
:100ABF00FFFE7C007D5E1207C7EE3395E0FDFC90D4
:100ACF000094120917900094E0F8A3E0F9A3E0FA5C
:100ADF00A3E0FBC000C001C002C003900009E024E6
:100AEF0001FFE433FE900006E0FBA3E0FAA3E0F978
:100AFF008F828E83120778245FFFE434FFFE3395D5
:100B0F00E0FDFCD003D002D001D000EB2FFFEA3E76
:100B1F00FEE93DFDE83CFC9000941209179000940B
:100B2F00E0FCA3E0FDA3E0FEA3E0FFE47B20FAF9E5
:100B3F00F81207D9900094120917900094A3E0FDC2
:100B4F00A3A3E4FFFEE4FC781012090490000AEF5F
:100B5F00F0FA900094A3A3E0FEA3E4FFE4FDFC7879
:100B6F000812090490000BEFF0F9900094E0FCA339
:100B7F00A3E0FEA3E0FF90000CEFF0FBAF02AD018E
:100B8F009000407401F0A37400F0A3740DF0A374EF
:100B9F0020F012154E900004E0FFA3E0FD7B017AD8
:100BAF0000790D12158F900004E02410F0900009C9
:100BBF00E02402F00209A2900006E0FBA3E0FAA3F2
:100BCF00E0F9A3E0F582758300120778FFC3942044
:0E0BDF005003020CC1EFD3947E4003020CC100
:100BED00900006A3A3A3E0F5827583001207782475
:100BFD00E0FFE434FFFE3395E0FDFC900094120914
:100C0D0017900094E0FCA3E0FDA3E0FEA3E0FFE459
:100C1D007B10FAF9F81207D9900094120917900079
:100C2D0094E0FCA3E0FDA3E0FEA3E02480FFEE34FE
:100C3D00CFFEED3403FDE43CFC90009412091790B7
:100C4D000094A3E0FDA3A3E4FFFEE4FC78101209D9
:100C5D000490000AEFF0FA900094A3A3E0FEA3E441
:100C6D00FFE4FDFC780812090490000BEFF0F990F9
:100C7D000094E0FCA3A3E0FEA3E0FF90000CEFF0D6
:100C8D00FBAF02AD019000407401F0A37400F0A31E
:100C9D00742DF0A37410F012154E900004E0FFA314
:100CAD00E0FD7B017A00792D1215C7900004E02438
:020CBD0008F03D
:0B0CBF008000900009E004F00209A290
:010CCA002207
:1012B300900004EFF0A3EDF0A3EBF0A3EAF0A3E9B1
:0112C300F03A
:1012C400E4A3F0900006E0FBA3E0FAA3E0F9A3E0B6
:1012D400F582758300120778FFD39400500302133C
:1012E400D3EF942050030213CAEFD3947E40030239
:0212F40013CA1B
:1012F600900006A3A3A3E0F5827583001207782465
:10130600E0FFE434FFFE3395E0FDFC900094120903
:1013160017900094E0FCA3E0FDA3E0FEA3E0FFE449
:101326007B08FAF9F81207D9900094120917900071
:1013360094E0FCA3E0FDA3E0FEA3E024C0FFEE34AE
:10134600BFFEED3403FDE43CFC90009412091790B7
:101356000094A3E0FDA3A3E4FFFEE4FC78101209C9
:101366000490000AEFF0FA900094A3A3E0FEA3E431
:10137600FFE4FDFC780812090490000BEFF0F990E9
:101386000094E0FCA3A3E0FEA3E0FF90000CEFF0C6
:10139600FBAF02AD019000407401F0A37400F0A30E
:1013A600740DF0A37408F012154E900004E0FFA32C
:1013B600E0FD7B017A00790D12177F900004E0248E
:0213C60006F02F
:0B13C8008000900009E004F00212C752
:0113D30022F7
:0A10FF00900085EDF0900084EFF002
:1011090090008AE075F008A42F2408900084F0E488
:10111900FFFE7DC87C42900086E0F8A3E0F9A3E0D9
:10112900FAA3E0FB1205D81206DE90009012091707
:10113900900084E024E8FFA3E0FD7BFF7A17793F64
:1011490012098EE490008BF090008AE0FFA3E0C3BF
:101159009F40030212B2E47B0AFAF9F8900090E08A
:10116900FCA3E0FDA3E0FEA3E0FF120864AC00AD20
:1011790001AE02AF0390008C120917900090E0FCB9
:10118900A3E0FDA3E0FEA3E0FFE47B0AFAF9F8126D
:101199000864900090120917900084E024F8F090F8
:1011A900008BE0B40207900084E024F8F090008CF2
:1011B900E0FCA3E0FDA3E0FEA3E0FF12095412073F
:1011C90000000000121800000001122800000002AF
:1011D90012380000000312480000000412580000F1
:1011E9000005126800000006127800000007128846
:1011F90000000008129800000009000012A99000E0
:1012090084E0FFA3E0FD7BFF7A1779410212A690E3
:101219000084E0FFA3E0FD7BFF7A177943807E908D
:101229000084E0FFA3E0FD7BFF7A177945806E908B
:101239000084E0FFA3E0FD7BFF7A177947805E9089
:101249000084E0FFA3E0FD7BFF7A177949804E9087
:101259000084E0FFA3E0FD7BFF7A17794B803E9085
:101269000084E0FFA3E0FD7BFF7A17794D802E9083
:101279000084E0FFA3E0FD7BFF7A17794F801E9081
:101289000084E0FFA3E0FD7BFF7A177951800E907F
:101299000084E0FFA3E0FD7BFF7A17795312098EE2
:0912A90090008BE004F0021151E9
:0112B2002219
:1013D400D2C7D2907FC87E0012170BE4FD7FAE12F5
:1013E4001605E4FF1216057F101216057F4012162B
:1013F400057F811216057FCF1216057FA1121605EF
:101404007FC81216057FA61216057FA81216057F3F
:101414003F1216057FD3121605E4FF1216057FD579
:101424001216057F801216057FD91216057FF11258
:1014340016057FDA1216057F121216057FDB1216C7
:10144400057F401216057F201216057F021216052D
:101454007F8D1216057F141216057FA41216057FC0
:0E146400A6121605121686E4FD7FAF021605CD
:100CCB00EFD3940740037F012212075FFED39403F7
:100CDB0040037F0222EF7041EE700B900001120770
:100CEB0078F45293529412075FB4010B90000112E7
:100CFB0007784293F4529412075FFEB4020A9000F5
:100D0B000112077842934294EEB4030D9000011246
:100D1B000778FEF45293EE4294EF6401704312078E
:100D2B005FFE700B900001120778F452915292EE15
:100D3B00B4010B9000011207784291F45292120702
:100D4B005FB4020A90000112077842914292120797
:100D5B005FB4030D900001120778FEF45291EE423E
:100D6B0092EF6402704312075FFE700B900001124A
:100D7B000778F452955296EEB4010B9000011207CE
:100D8B00784295F4529612075FB4020A9000011252
:100D9B0007784295429612075FB4030D900001123B
:100DAB000778FEF45295EE4296EF640370431207F8
:100DBB005FFE700B900001120778F452B152B2EE45
:100DCB00B4010B90000112077842B1F452B2120732
:100DDB005FB4020A90000112077842B142B21207C7
:100DEB005FB4030D900001120778FEF452B1EE428E
:100DFB00B2EF6404704312075FFE700B9000011298
:100E0B000778F452B352B4EEB4010B900001120701
:100E1B007842B3F452B412075FB4020A9000011285
:100E2B00077842B342B412075FB4030D900001126E
:100E3B000778FEF452B3EE42B4EF64057043120729
:100E4B005FFE700B900001120778F452C952CAEE84
:100E5B00B4010B90000112077842C9F452CA120771
:100E6B005FB4020A90000112077842C942CA120706
:100E7B005FB4030D900001120778FEF452C9EE42E5
:100E8B00CAEF6406704312075FFE700B90000112ED
:100E9B000778F452CB52CCEEB4010B900001120741
:100EAB007842CBF452CC12075FB4020A90000112C5
:100EBB00077842CB42CC12075FB4030D90000112AE
:100ECB000778FEF452CBEE42CCEF64077043120767
:100EDB005FFF700B900001120778F452E152E2EFC2
:100EEB00B4010B90000112077842E1F452E21207B1
:100EFB005FB4020A90000112077842E142E2120746
:100F0B005FB4030D900001120778FFF452E1EF423A
:040F1B00E27F00224F
:1005D800EC4D6011E8497017ED33EC3304600DE41D
:1005E800FCFFFEFD22E933E8330470F802074A12E3
:1005F800071558046009E4CC2481500628500902E4
:100608000754284003020751C0E0EB4A7044B98000
:1006180006D0E0FB020740EF4E701CBD8008EBFFE0
:10062800EAFEE9FD80EBE98DF0A4FEE5F00206C1E3
:10063800E9CDF9EAFEEBFFEF89F0A4FCE5F0CE89FD
:10064800F0A42EFFE435F0CD89F0A42DFEE435F0BA
:100658008067EF4E7005BD80D780C3EF8BF0A4ACE8
:10066800F0EE8BF0A42CFCE435F0F8EF8AF0A42C23
:10067800E5F038FCE433CB8DF0A42CFCE5F03BF836
:10068800EE8AF0A42CFCE5F038F8E433CF89F0A426
:100698002CFCE5F038CF3400CE89F0A42FFFE5F02C
:1006A8003EFEE433C98DF0A42EFEE5F039CD8AF084
:1006B800A42FFFE5F03EFEE43DFD33D0E0FB5007FC
:1006C8000BBB000F020754EC2CFCEF33FFEE33FE9C
:0606D800ED33FD02072CCA
:1006DE00EDD2E7CD33EC3392D524814006E4FFFE14
:1006EE00FDFC22FCE4CFCECDCC24E0501174FF8073
:1006FE00EDC3CC13CCCD13CDCE13CECF13CF047010
:07070E00F030D5DE0208F611
:10071500E9D2E7C933E833F892D5EDD2E7CD33EC2A
:0707250033FC5002B2D522A3
:10072C00EC30E7100FBF000C0EBE00080DBD00042E
:10073C000BEB6014A2D5EB13FCED92E7FD2274FFDA
:10074C00FCFDFEFF22E480F8A2D574FF13FC7D8033
:03075C00E480EF47
:0300000002147275
:0C147200787FE4F6D8FD7581070214B9FC
:10075F00BB010689828A83E0225002E722BBFE0298
:09076F00E32289828A83E49322CB
:10077800BB010CE58229F582E5833AF583E0225036
:1007880006E92582F8E622BBFE06E92582F8E22280
:0D079800E58229F582E5833AF583E493229A
:1007A500F8BB010DE58229F582E5833AF583E8F08A
:1007B500225006E92582C8F622BBFE05E92582C836
:0207C500F2221E
:1007C700EF8DF0A4A8F0CF8CF0A428CE8DF0A42E46
:0207D700FE2200
:1007D900E88FF0A4CC8BF0A42CFCE98EF0A42CFCBF
:1007E9008AF0EDA42CFCEA8EF0A4CDA8F08BF0A43D
:1007F9002DCC3825F0FDE98FF0A42CCD35F0FCEB9C
:100809008EF0A4FEA9F0EB8FF0A4CFC5F02ECD3960
:0F081900FEE43CFCEAA42DCE35F0FDE43CFC22CD
:1008280075F008758200EF2FFFEE33FECD33CDCC87
:1008380033CCC58233C5829BED9AEC99E58298400A
:100848000CF582EE9BFEED9AFDEC99FC0FD5F0D6E7
:10085800E4CEFBE4CDFAE4CCF9A88222B800C1B911
:100868000059BA002DEC8BF084CFCECDFCE5F0CB4F
:10087800F97818EF2FFFEE33FEED33FDEC33FCEB88
:1008880033FB10D703994004EB99FB0FD8E5E4F943
:10089800FA227818EF2FFFEE33FEED33FDEC33FC30
:1008A800C933C910D7059BE99A4007EC9BFCE99A24
:1008B800F90FD8E0E4C9FAE4CCFB2275F010EF2F69
:1008C800FFEE33FEED33FDCC33CCC833C810D70769
:1008D8009BEC9AE899400AED9BFDEC9AFCE899F8A4
:0E08E8000FD5F0DAE4CDFBE4CCFAE4C8F92237
:0E08F600C3E49FFFE49EFEE49DFDE49CFC2213
:10090400E8600FECC313FCED13FDEE13FEEF13FFD1
:03091400D8F122F5
:0C091700ECF0A3EDF0A3EEF0A3EFF02253
:10092300A8828583F0D083D08212093A12093A1241
:10093300093A12093AE473E493A3C583C5F0C58366
:10094300C8C582C8F0A3C583C5F0C583C8C582C81E
:010953002281
:10095400D083D082E4937012740193700DA3A39397
:10096400F8740193F5828883E4737402936C7012B3
:100974007403936D700C7404936E70067405936F16
:0A09840060DDA3A3A3A3A3A380CA10
:10147E00020F1FE493A3F8E493A34003F68001F256
:10148E0008DFF48029E493A3F85407240CC8C3336F
:10149E00C4540F4420C8834004F456800146F6DF3E
:1014AE00E4800B01020408102040809014FEE47EBC
:1014BE00019360BCA3FF543F30E509541FFEE49333
:1014CE00A360010ECF54C025E060A840B8E493A3FA
:1014DE00FAE493A3F8E493A3C8C582C8CAC583CA25
:1014EE00F0A3C8C582C8CAC583CADFE9DEE780BEDD
:01154D00009D
:00000001FF
