:1003C300E4F50A750B20FB7A00790A7F0412000317
:1003D300E4F50A750BCFFB7A00790A7F021200035A
:1003E300E4F50A750B30FB7A00790A7F01020003FA
:100257001203C3C2C5E4F508F509E50945087003AB
:10026700C38001D392A7E509640145087003C380E1
:1002770001D392A6E509640245087003C38001D340
:100287009295E509640345087003C38001D39294EE
:10029700E509640445087003C38001D392A3E50907
:1002A700640545087003C38001D392A2E50964067B
:1002B70045087003C38001D392A1E5096407450887
:1002C7007003C38001D392A07FFA1203F30509E5F7
:1002D7000970020508C39408E508648094805003F8
:1002E700020261750800750908D3E5099400E5085D
:1002F70064809480500302025CE50945087002801F
:1003070001D392A7E509640145087003C38001D3AF
:1003170092A6E509640245087003C38001D392954C
:10032700E509640345087003C38001D39294E50986
:10033700640445087003C38001D392A3E5096405EB
:1003470045087003C38001D392A2E50964064508F6
:100357007003C38001D392A1E509640745087003C0
:10036700C38001D392A07FFA1203F3E50915097040
:060377000215080202F06D
:10000300EFD3940740037F012212037DFED39403B1
:1000130040037F0222EF7041EE700B900001120348
:1000230096F45293529412037DB4010B9000011283
:1000330003964293F4529412037DFEB4020A900095
:100043000112039642934294EEB4030D9000011201
:100053000396FEF45293EE4294EF6401704312034D
:100063007DFE700B900001120396F452915292EEB2
:10007300B4010B9000011203964291F452921203C1
:100083007DB4020A90000112039642914292120338
:100093007DB4030D900001120396FEF45291EE42DB
:1000A30092EF6402704312037DFE700B9000011205
:1000B3000396F452955296EEB4010B90000112038D
:1000C300964295F4529612037DB4020A90000112EF
:1000D30003964295429612037DB4030D90000112DC
:1000E3000396FEF45295EE4296EF640370431203B7
:1000F3007DFE700B900001120396F452B152B2EEE2
:10010300B4010B90000112039642B1F452B21203F0
:100113007DB4020A90000112039642B142B2120367
:100123007DB4030D900001120396FEF452B1EE422A
:10013300B2EF6404704312037DFE700B9000011252
:100143000396F452B352B4EEB4010B9000011203C0
:100153009642B3F452B412037DB4020A9000011222
:10016300039642B342B412037DB4030D900001120F
:100173000396FEF452B3EE42B4EF640570431203E8
:100183007DFE700B900001120396F452C952CAEE21
:10019300B4010B90000112039642C9F452CA120330
:1001A3007DB4020A90000112039642C942CA1203A7
:1001B3007DB4030D900001120396FEF452C9EE4282
:1001C300CAEF6406704312037DFE700B90000112A8
:1001D3000396F452CB52CCEEB4010B900001120300
:1001E3009642CBF452CC12037DB4020A9000011262
:1001F300039642CB42CC12037DB4030D900001124F
:100203000396FEF452CBEE42CCEF64077043120325
:100213007DFF700B900001120396F452E152E2EF5E
:10022300B4010B90000112039642E1F452E212036F
:100233007DB4020A90000112039642E142E21203E6
:100243007DB4030D900001120396FFF452E1EF42D7
:04025300E27F002224
:0F03F3007D607C09ED1D70011C144C70F7DFF16B
:0104020022D7
:03000000020403F4
:0C040300787FE4F6D8FD75810B020257EB
:10037D00BB010689828A83E0225002E722BBFE027E
:09038D00E32289828A83E49322B1
:10039600BB010CE58229F582E5833AF583E022501C
:1003A60006E92582F8E622BBFE06E92582F8E22266
:0D03B600E58229F582E5833AF583E4932280
:00000001FF
