:10248D0025642D25642D2564202564002025643ABE
:09249D0025643A2564200D0A00B3
:0E2556009001B9EFF01223A19001B9E0FF222D
:1024D000E4900191F0A3740CF07B017A0179917F73
:0424E000030213EAF6
:1022F9009001917440F0A37401F0A3120CF800014D
:10230900C2009001987401F0E4A3F0A304F0E4A3DF
:0E231900F0A3F07B017A0179917F0102163E5C
:102351009001937401F0900192F0E4900195F09056
:102361000194F0900191740DF090019C7430F07B18
:08237100017A0179910218388C
:10110A001224D01222F91223511200C2121CE7E44F
:10111A00FF122471E4FF122327D2AF9001877407CC
:10112A00F0A374E7F0A37404F0A37414F0A3740496
:10113A00F0A37409F0A3740DF0A314F078917C0164
:10114A007D017B017A0179877E007F08120A8E125F
:10115A001A3490018F7414F0A3741AF07B017A0187
:10116A007987121B207BFF7A24798D900187E0FF13
:10117A00A3E0900194CFF0A3EFF0900189E0FF90F3
:10118A000196E4F0A3EFF090018AE0FF900198E461
:10119A00F0A3EFF090018BE0FF90019AE4F0A3EF47
:1011AA00F0120E107BFF7A24799990018CE0FF905F
:1011BA000194E4F0A3EFF090018DE0FF900196E432
:1011CA00F0A3EFF090018EE0FF900198E4F0A3EF16
:1011DA00F0120E1090018FE0FF900187E0FAA3E071
:1011EA00FB9001957404F0A37410F0E4FD121C0C3A
:1011FA0090018FE02420FF90019E7410F07B2EE472
:10120A00FD121938900189E0C3940A90018FE050C9
:10121A00292424FF9001957401F0A37410F0E4FBD3
:10122A00FAFD121C0C90018FE0242CFF900189E03A
:10123A00FB7A009001957401800F2424FF900189A4
:10124A00E0FB7A009001957402F0A37410F0E4FDBB
:10125A00121C0C90018FE02436FF90019E7410F04E
:10126A007B2EE4FD12193890018AE0C3940A90019A
:10127A008FE05029243CFF9001957401F0A374106B
:10128A00F0E4FBFAFD121C0C90018FE02448FF9059
:10129A00018AE0FB7A009001957401800F243CFFDB
:1012AA0090018AE0FB7A009001957402F0A3741011
:1012BA00F0E4FD121C0C90018CE0C3940A9001909A
:1012CA00E0FF50279001957401F0A37410F0E4FB3D
:1012DA00FA7D04121C0C900190E02408FF90018C06
:1012EA00E0FB7A009001957401800C90018CE0FB80
:1012FA007A009001957402F0A37410F07D04121C18
:10130A000C900190E02410FF90019E7410F07B3A3B
:10131A007D0412193890018DE0C3940A900190E07F
:10132A00502A2418FF9001957401F0A37410F0E478
:10133A00FBFA7D04121C0C900190E02420FF90011E
:10134A008DE0FB7A009001957401800F2418FF90BC
:10135A00018DE0FB7A009001957402F0A37410F0FD
:10136A007D04121C0C900190E02428FF90019E74C9
:10137A0010F07B3A7D0412193890018EE0C3940A6A
:10138A00900190E0502A2430FF9001957401F0A357
:10139A007410F0E4FBFA7D04121C0C900190E02416
:1013AA0038FF90018EE0FB7A009001957401800F5E
:1013BA002430FF90018EE0FB7A009001957402F0D0
:1013CA00A37410F07D04121C0C7FFA12250A7FFA0E
:1013DA0012250A7FFA12250A7FFA12250A021166D5
:0F250A007D607C09ED1D70011C144C70F7DFF132
:01251900229F
:1013EA00EFD3940740037F0122120AB4FED3940379
:1013FA0040037F0222EF7041EE700B900001120A47
:10140A00CDF452935294120AB4B4010B9000011213
:10141A000ACD4293F45294120AB4FEB4020A90001E
:10142A0001120ACD42934294EEB4030D90000112C8
:10143A000ACDFEF45293EE4294EF64017043120A0D
:10144A00B4FE700B900001120ACDF452915292EE42
:10145A00B4010B900001120ACD4291F45292120A81
:10146A00B4B4020A900001120ACD42914292120AC1
:10147A00B4B4030D900001120ACDFEF45291EE426B
:10148A0092EF64027043120AB4FE700B90000112CC
:10149A000ACDF452955296EEB4010B900001120A4D
:1014AA00CD4295F45296120AB4B4020A900001127F
:1014BA000ACD42954296120AB4B4030D9000011265
:1014CA000ACDFEF45295EE4296EF64037043120A77
:1014DA00B4FE700B900001120ACDF452B152B2EE72
:1014EA00B4010B900001120ACD42B1F452B2120AB1
:1014FA00B4B4020A900001120ACD42B142B2120AF1
:10150A00B4B4030D900001120ACDFEF452B1EE42BA
:10151A00B2EF64047043120AB4FE700B9000011219
:10152A000ACDF452B352B4EEB4010B900001120A80
:10153A00CD42B3F452B4120AB4B4020A90000112B2
:10154A000ACD42B342B4120AB4B4030D9000011298
:10155A000ACDFEF452B3EE42B4EF64057043120AA8
:10156A00B4FE700B900001120ACDF452C952CAEEB1
:10157A00B4010B900001120ACD42C9F452CA120AF0
:10158A00B4B4020A900001120ACD42C942CA120A30
:10159A00B4B4030D900001120ACDFEF452C9EE4212
:1015AA00CAEF64067043120AB4FE700B900001126F
:1015BA000ACDF452CB52CCEEB4010B900001120AC0
:1015CA00CD42CBF452CC120AB4B4020A90000112F2
:1015DA000ACD42CB42CC120AB4B4030D90000112D8
:1015EA000ACDFEF452CBEE42CCEF64077043120AE6
:1015FA00B4FF700B900001120ACDF452E152E2EFEF
:10160A00B4010B900001120ACD42E1F452E2120A2F
:10161A00B4B4020A900001120ACD42E142E2120A6F
:10162A00B4B4030D900001120ACDFFF452E1EF4267
:04163A00E27F002229
:1018380043BA80900002120ACD6401704190FE8084
:10184800E04440F090FE82E4F0900003120ACD904C
:10185800FE817006E0547FF08004E04480F0120AB4
:10186800B4543FFF90FE80E054C04FF09000041243
:101878000ACD90FE88B4010302190D02190790FEE3
:1018880080E054BFF090FE84E4F0900005120ACD89
:1018980090FE83B40106E04440F08004E054BFF0B9
:1018A800900006120ACD90FE83B40106E04420F0B1
:1018B8008004E054DFF0900007120ACD90FE83B454
:1018C8000106E04410F08004E054EFF090000812A4
:1018D8000ACD90FE83B40106E04408F08004E05489
:1018E800F7F0900009120ACD25E0FF90FE85E0543C
:1018F800014FF090000A120ACD90FE85B40106E06F
:1019080054FEF08004E04401F090000B120ACDFF71
:10191800E5BA54CF4FF5BA900001120ACD90FE8077
:101928007006E0547FF08004E04480F053BA7F22D0
:0C25720090FE82E030E6F9E054BFF02259
:0925AC0090FE817401F002257219
:10000300AE0743BA801225AC7FA2120015122468F2
:02001300AF0636
:0E00150090FE86EFF090FE817402F0022572DC
:10245400E0FBA3E475F001120B95A9F0FA120AB49B
:04246400FF1200154E
:0924680090FE817403F00225725C
:0F251A0090FE817404F012257290FE87E0FF227C
:0E25640090FE82E4F090FE817405F002257274
:0F25290090FE827401F090FE817405F00225721D
:0925B50090FE817406F00225720B
:1023C8009001E1EBF0A3EAF0A3E9F0120003122474
:1023D800689001E11224549001E4E014F070F212C4
:0623E80025B553BA7F2267
:1021F4001200031224681225AC7FA31200151224C6
:102204006812251AEF120AFA740129F9E43AFA90CD
:1022140001E9E0640160031225649001E9E014F02F
:0C22240070DF1225291225B553BA7F2265
:0300C3000224E430
:0724E400C0D075D000C00755
:0724EB00AFBA43BA808FBABB
:0524F200D007D0D0323C
:102230009001A9EBF0A3EAF0A3E9F043BA801225DC
:10224000ACEF25E0122464AF05120015122468904B
:1022500001A91224549001ACE014F070F21225B5DB
:0422600053BA7F22CC
:10216000AE0743BA801225ACEE25E0122464AF0519
:102170001200151224681225ACAF06EF25E04401C9
:1021800012246412251AEF120AFA740129F9E43AAA
:10219000FA9001A0E0640160031225649001A0E0C0
:0E21A00014F070DF1225291225B553BA7F22E4
:0B163E0090019DEBF0A3EAF0A3E9F09F
:10164900EF6401600302183590000004F0E4A3F090
:10165900A3F0A3F0A3F0A3F0A3F07F80900087E4A8
:10166900F0A3DFFC7F80900007E4F0A3DFFC90018A
:101679009DE0FBA3E0FAA3E0F990000A120ACDFE6F
:10168900D3940340037F0222EE700553B7EFC2BC27
:1016990090000A120ACDB4010553B7EFD2BC9000ED
:1016A9000A120ACDFFB4020543B710C2BCEFB40356
:1016B9000543B710D2BC120AB4D394C040037F02C9
:1016C90022120AB4FFE598543F4FF598EF64C060C1
:1016D90008EF644060030217C0900002120CBC7F3F
:1016E900807E8D7D5B7C00120C069001A0120CECB3
:1016F900E4FFFE7D01FC9001A0E0F8A3E0F9A3E07E
:10170900FAA3E0FBC3120C9840037F02229001A0C8
:10171900E0F8A3E0F9A3E0FAA3E0FBC3E49BFFE44C
:101729009AFE740199FDE498FC9001A0120CEC90CA
:10173900019DE0FBA3E0FAA3E0F9900001120ACDB4
:10174900FB64017038C28E538EFE5389BF5389CF13
:10175900438E409001A0E0FCA3E0FDA3E0FEA3E0DE
:10176900FF7808120CA98F8D9001A0A3A3A3E0F51F
:101779008BC2AB5389BF538FFDD28E8073EB64024A
:101789007032538EEF438E01538EF7438E049001CE
:10179900A0E0FCA3E0FDA3E0FEA3E0FF7808120CA3
:1017A900A98FD69001A0A3A3A3E0F5D753AFFB431C
:1017B9008E10803C7F022290019DE0FBA3E0FAA3FA
:1017C900E0F9120AB4FF7013900008120ACDB401AF
:1017D90005438E20801A538EDF8015EFB480119057
:1017E9000008120ACDB40105438780800353877F1F
:1017F90090019DE0FBA3E0FAA3E0F9900009120A29
:10180900CDB40104D2AC8002C2AC900007120ACD5B
:10181900B40104D29C8002C29C90000B120ACD54E0
:0E182900C0FFE5A2543F4FF5A27F00227F02D0
:01183700228E
:1023A100900002E02487F582E43400F583EFF09099
:1023B1000002E004F0C394804002E4F0900003E0E6
:0723C100700404F0D2992220
:1024F700120AB4FF600C1223A1740129F9E43AFA15
:0325070080EE2241
:03002300021F6B4E
:101F6B00C0E0C083C082C0D075D000C006C00730AF
:101F7B00982DC298900006E07025900004E0C39461
:101F8B00804002E4F0900004E0FF04F074072FF5AA
:101F9B0082E43400F583E599F09000057405F03088
:101FAB009930C299900002E0FF900001E0FE6F6053
:101FBB001C74872EF582E43400F583E0F5999000CC
:101FCB0001E004F0C394804009E4F0800590000325
:0F1FDB00E4F0D007D006D0D0D082D083D0E0324F
:1023EE00616C61726D3A2025640D0A0074696D6529
:1023FE00723A2025640D0A0063616C6C3A202564E4
:04240E00200D0A0093
:0100C200221B
:101A3400900198E0FF75F00A84C454F0FEEF75F04D
:101A44000A84E5F02EA3F0900197E0FF75F00A8474
:101A5400C454F0FEEF75F00A84E5F02E90019AF07C
:101A6400900196E0FF75F00A84C454F0FEEF75F01F
:101A74000A84E5F02E90019BF0900194E0FF75F04C
:101A84000A84C454F0FEEF75F00A84E5F02E900148
:101A94009CF0900195E090019DF0900191E0FAA3F3
:101AA400E0FBC394D0EA940740047F0180027F00E6
:101AB400900193E0FE75F00A84C454F0FDEE75F0D5
:101AC4000A84E5F02DFEEFC433333354802E9001A5
:101AD4009EF07C007D64AF03AE02120B407E007F5B
:101AE4000ACFCDCFCECCCE120B40EFC4F8540FC8E2
:101AF40068FFAB07900191E0FEA3E0FF7C007D0A44
:101B0400120B40ED2B90019FF07B017A01799990A3
:0C1B140001AC7407F07D027F510222300A
:0B1B2000900191EBF0A3EAF0A3E9F0C4
:101B2B007B017A0179949001A07407F07D027F51BB
:101B3B00122160900194E0FFC4540775F00AA4FED3
:101B4B00EF540F2EFF900191E0FBA3E0FAA3E0F915
:101B5B00900007EF120B0C900195E0FFC454077532
:101B6B00F00AA4FEEF540F2E900006120B0C9001FE
:101B7B0096E0FFC4540375F00AA4FEEF540F2E90A9
:101B8B000005120B0C900197E0FFC4540375F00A8B
:101B9B00A4FEEF540F2E900003120B0C900198E053
:101BAB005407900004120B0C900199E0FFC45401F0
:101BBB0075F00AA4FEEF540F2E900002120B0C903E
:101BCB000199E0C41313135401FDA3E0FCC4540F9B
:101BDB0075F00AA4FFEC540F7A002FFFEA35F0FEE4
:101BEB00ED7C0770047D6C80027DD0EF2DFFEE3C09
:101BFB00F9900191E0FBA3E0FAA3E0C98FF0020B8F
:011C0B00AB2D
:1020B6007B017A0179F39001A07401F0FD7F511242
:1020C60021609001F3E04402F0E04410F0E054F7A0
:1020D600F07B017A0179F39001AC7401F0FD7F5138
:1020E6001222307B017A0179F39001A07401F0FD90
:1020F6007F511221607BFF7A2379EE9001F3E0FF96
:0B210600900194E4F0A3EFF0020E1033
:101DAC009001BDE0FF75F00A84C454F0FEEF75F0AD
:101DBC000A84E5F02EFF9001C1E0B401047E00809E
:101DCC00027E80EF2E9001C2F09001BCE0FF75F016
:101DDC000A84C454F0FEEF75F00A84E5F02EFF90EF
:101DEC0001C0E0B401047E0080027E80EF2E9001E1
:101DFC00C3F09001BAE0FF75F00A84C454F0FEEF12
:101E0C0075F00A84E5F02EFF9001BEE0B401047E6B
:101E1C000080027E80EF2E9001C4F09001BFE0B4F0
:101E2C0001047F0080027F809001BBE02F9001C5F0
:101E3C00F07B017A0179C29001AC7404F07D097FCA
:041E4C0051022230ED
:0C257E009001EAEBF0A3EAF0A3E9F022E0
:1022CA007B017A0179F49001A07401F0FD7F51122B
:1022DA0021609001F4E054FDF0E054F7F07B017ABC
:0F22EA000179F49001AC7401F0FD7F51022230B4
:101EE3007B017A0179F59001A07401F0FD7F511215
:101EF30021609001F5E04401F0E04410F0E054FB70
:101F0300F07B017A0179F59001AC7401F0FD7F510A
:101F13001222307B017A0179F59001A07401F07DE2
:101F23000E7F511221609001F5E04480F07B017A2D
:101F33000179F59001AC7401F07D0E7F51122230CE
:101F43007B017A0179F59001A07401F0FD7F5112B4
:101F530021607BFF7A2379FA9001F5E0FF900194E9
:081F6300E4F0A3EFF0020E1000
:102111007B017A0179EF9001A07401F07D0E7F516E
:102121001221609001EFE0FF9001EDE0FEEF4E9093
:1021310001EFF07B017A0179EF9001AC7401F07D40
:102141000E7F511222309001EEE0A3F07B017A0163
:0F21510079EF9001AC7401F07D0F7F51022230C5
:0C258A009001F0EBF0A3EAF0A3E9F022CE
:10205A007B017A0179F69001A07401F0FD7F51129B
:10206A0021609001F6E054FEF0E054FBF07B017A27
:10207A000179F69001AC7401F0FD7F511222307B98
:10208A00017A0179F69001A07401F07D0E7F511258
:10209A0021609001F6E0547FF07B017A0179F69095
:0C20AA0001AC7401F07D0E7F5102223069
:102379007B017A0179F79001A07401F0FD7F511278
:1023890021607BFF7A2479069001F7E0FF900194A0
:08239900E4F0A3EFF0020E10C6
:1000C6000000000000000000002F000000000700F4
:1000D600070000147F147F1400242A7F2A1200626E
:1000E600640813230036495522500000050300001A
:1000F60000001C224100000041221C000014083EA2
:1001060008140008083E0808000000A06000000867
:1001160008080808000060600000002010080402BB
:10012600003E5149453E0000427F40000042615179
:100136004946002141454B31001814127F10002713
:1001460045454539003C4A494930000171090503D6
:1001560000364949493600064949291E0000363607
:10016600000000005636000000081422410000146A
:100176001414141400004122140800020151090647
:1001860000324959513E007C1211127C007F4949C8
:100196004936003E41414122007F4141221C007FF9
:1001A60049494941007F09090901003E4149497A07
:1001B600007F0808087F0000417F41000020404181
:1001C6003F01007F08142241007F40404040007FED
:1001D600020C027F007F0408107F003E4141413E31
:1001E600007F09090906003E4151215E007F091979
:1001F60029460046494949310001017F0101003F76
:100206004040403F001F2040201F003F4038403FF5
:100216000063140814630007087008070061514959
:10022600454300007F41410000552A552A550000EC
:1002360041417F000004020102040040404040406A
:10024600000001020400002054545478007F484402
:10025600443800384444442000384444487F003839
:100266005454541800087E0901020018A4A4A47C62
:10027600007F080404780000447D4000004080842C
:100286007D00007F102844000000417F4000007C74
:1002960004180478007C0804047800384444443880
:1002A60000FC242424180018242418FC007C0804CC
:1002B600040800485454542000043F444020003CA5
:1002C6004040207C001C2040201C003C4030403C2C
:1002D600004428102844001CA0A0A07C00446454BC
:1002E6004C44141414141414000000000000000000
:1002F6000000000000000000000000F80000000000
:10030600000000333000000000100C06100C060040
:10031600000000000000000040C07840C0784000A7
:10032600043F04043F040400007088FC0830000009
:10033600001820FF211E0000F008F000E018000061
:1003460000211C031E211E0000F00888700000001A
:100356001E2123241927211010160E00000000006C
:100366000000000000000000000000E01804020089
:10037600000000071820400000020418E0000000FA
:100386000040201807000000404080F080404000F8
:100396000202010F01020200000000F0000000004E
:1003A6000101011F01010100000000000000000022
:1003B60080B0700000000000000000000000000097
:1003C6000001010101010101000000000000000020
:1003D60000303000000000000000000080601804BB
:1003E600006018060100000000E010080810E00098
:1003F600000F102020100F00001010F80000000061
:100406000020203F202000000070080808887000A7
:100416000030282422213000003008888848300027
:100426000018202020110E000000C02010F8000047
:1004360000070424243F240000F8088888080800E0
:100446000019212020110E0000E0108888180000F5
:10045600000F112020110E0000380808C8380800C7
:100466000000003F00000000007088080888700047
:10047600001C222121221C0000E010080810E000C8
:100486000000312222110F00000000C0C000000051
:100496000000003030000000000000800000000076
:1004A600000080600000000000008040201008006E
:1004B6000001020408102000404040404040400037
:1004C6000404040404040400000810204080000012
:1004D6000020100804020100007048080808F00017
:1004E6000000003036010000C030C828E810E000E7
:1004F6000718272423140B000000C038E000000072
:10050600203C23020227382008F8888888700000DB
:10051600203F202020110E00C030080808083800AF
:10052600071820202010080008F808080810E00026
:10053600203F202020100F0008F88888E8081000C7
:10054600203F20202320180008F88888E80810009B
:10055600203F200003000000C030080808380000D3
:1005660007182020221E020008F808000008F808D4
:10057600203F210101213F20000808F8080800005B
:100586000020203F2020000000000808F80808008E
:10059600C08080807F00000008F888C02818080006
:1005A600203F20012638200008F80800000000003F
:1005B600203F20202020300008F8F800F8F8080036
:1005C600203F003F003F200008F830C00008F80830
:1005D600203F200007183F00E01008080810E00040
:1005E6000F10202020100F0008F808080808F00057
:1005F600203F210101010000E01008080810E0007A
:100606000F18242438504F0008F88888888870000E
:10061600203F2000030C30200070880808083800AE
:100626000038202121221C00180808F808081800A4
:100636000000203F2000000008F808000008F80825
:10064600001F202020201F000878880000C83808D6
:10065600000007380E010000F80800F80008F8004E
:10066600033C0700073C03000818688080681808E8
:1006760020302C03032C30200838C800C838080066
:100686000000203F2000000010080808C8380800B5
:100696002038262120201800000000FE0202020059
:1006A6000000007F40404000000C30C00000000009
:1006B600000000010638C00000020202FE00000031
:1006C600004040407F0000000000040202020400D7
:1006D6000000000000000000000000000000000014
:1006E60080808080808080800002020400000000FC
:1006F60000000000000000000000808080800000F4
:100706000019242222223F2008F8008080000000E1
:10071600003F112020110E000000008080800000A4
:10072600000E112020201100000000808088F800B3
:10073600000E112020103F200000808080800000E5
:10074600001F222222221300008080F08888881849
:100756000020203F20200000000080808080800054
:10076600006B94949493600008F8008080800000E9
:10077600203F210000203F200080989800000000C4
:100786000020203F202000000000008098980000F4
:1007960000C08080807F000008F800008080800014
:1007A600203F24022D302000000808F80000000039
:1007B6000020203F202000008080808080808000F4
:1007C600203F20003F20003F808000808080000086
:1007D600203F210000203F20000080808080000014
:1007E600001F202020201F00808000808000000045
:1007F60080FFA12020110E00000000808080800074
:10080600000E112020A0FF80808080008080800064
:1008160020203F2120000100000080808080800091
:100826000033242424241900008080E08080000006
:100836000000001F20200000808000000080800053
:10084600001F202020103F208080800000808080B4
:1008560000010E3008060100808000800080808044
:100866000F300C030C300F00008080008080800069
:100876000020312E0E312000808080000080808094
:1008860080818E7018060100008080808080800044
:100896000021302C2221300000000000807C020262
:1008A60000000000003F404000000000FF00000084
:1008B60000000000FF0000000002027C8000000033
:1008C6000040403F0000000000060101020204044F
:1008D60000000000000000000000F010101010FFE3
:1008E60010101010F000000000000F04040404FFB4
:1008F600040404040F0000004040405F5555557540
:100906005555555F404040000040200F0949897900
:100916000909090F2040000000FE02424ACA4A4A5D
:10092600CA4A4A4202FE000000FF40504C43404083
:100936004F50505C40FF00000000F888888888FF10
:1009460088888888F800000000001F080808087FCB
:10095600888888889F80F00080828282828282E2F4
:10096600A2928A8682808000000000000040807F7C
:100976000000000000000000101010FF1090088812
:100986008888FF88888808000444827F0180804028
:10099600432C1028468180000010101010D030FF24
:1009A60030D0121C1010000010080402010000FFD5
:0809B60000000102040810001A
:10247100900191EFF07006FD7FA6122275900191F7
:0C248100E0B40107E4FD7FA712227522E1
:10232700900191EFF0700DFD7FC8122275E4FD7FDB
:10233700A1122275900191E0B4010EE4FD7FC01255
:0A2347002275E4FD7FA0122275222A
:0825BE007F01AE071FEE70FA69
:0125C60022F2
:0F253800D2B3D2B21225BEC2B31225BEC2B22296
:0A25A200C2B3D2B21225BED2B3229A
:0F254700D2B31225BED2B21225BEC2B20225BE39
:02241200AD0714
:10241400E4FCC2B2ED30E704D2B38002C2B31225A9
:10242400BED2B21225BEC2B2ED25E0FD0CECB4085A
:01243400E1C6
:012435002284
:10226400F583E5822FF582E5833EF583E493FF7DD4
:012274000168
:102275009001A6EFF0ED7B017A0179A69001AC60A3
:10228500077401F07D4080057401F0E4FD7F3C1288
:03229500223022D2
:07229800E0FFA3E0FD04F0EC
:10229F009001A5EFF0ED24B0FFE4FD12227590013F
:1022AF00A5E054F0C4540F4410FFE4FD12227590C2
:0B22BF0001A5E0540FFFE4FD022275B2
:1024A600E4FD7F8D122275E4FD7F14122275E4FD92
:0524B6007FAF0222755A
:1024BB00E4FD7F8D122275E4FD7F10122275E4FD81
:0524CB007FAE02227546
:1021AE00E4900191F0900191E0FFC394085036EF56
:1021BE0024B0FFE4FD122275E4FDFF122275E4FD4A
:1021CE007F10122275E4900192F07D01E4FF12223D
:1021DE0075900192E004F0E0C3948040ED9001917F
:0521EE00E004F080C0D8
:0121F30022C9
:0819380090019BEFF0A3EDF01C
:10194000E490019FF090019EE0FFC313FD9001A081
:10195000F0E4A3F0A3F0EFB40809A3E4F0A3740645
:10196000F0803190019EE0FF131313541FF5827530
:101970008300EF54077E0060047F0180027F00EF48
:101980002582FFEE3583FE7C00120B2E9001A3EE24
:10199000F0A3EFF0EB24E090019FF090019BE0FFBB
:1019A000A3E0FD12229FE49001A1F0A3F09001A317
:1019B000E0FCA3E0FD9001A1E0FEA3E0FFC39DEEEB
:1019C0009C50709001A0E0FD7C00120B40ED4C702B
:1019D0000E90019EE06408600690019B1222989090
:1019E000019EE0B4081A9001A1E0FEA3E0FF90017F
:1019F0009FE075F006A424C6F582E5F03400801F50
:101A000090019EE0B4102C9001A1E0FEA3E0FF90B5
:101A1000019FE075F010A424EEF582E5F034021287
:101A200022649001A2E004F070069001A1E004F0AD
:031A30000219ADEB
:011A33002290
:0724360090019BEFF0A905E6
:10243D007F017E00AD0119ED600C90019BE0FD7CEC
:06244D0000120B2E80EED0
:012453002266
:0E1C0C00900191EFF0A3EDF0A3EAF0A3EBF04E
:101C1A00E4900199F0A3F0900196E0B408069001CF
:101C2A00997402F0E4900197F0900195E0FF900119
:101C3A0097E0FEC39F4003021CE6C3EF9E14FD7F9C
:101C4A000A122436900193E0FCA3E0FDCFCDCFCE5B
:101C5A00CCCE120B407C007D0A120B40900198ED0D
:101C6A00F090019AE0703C900195E014FF90019782
:101C7A00E0FEC39F502DA3E07023900196E0FCC3C1
:101C8A0013FF900199E02F8EF0A4FF900191E02FAD
:101C9A00FFA3E0FD90019EECF07B20803390019A37
:101CAA007401F0900196E0FEC313FF900199E02FB2
:101CBA00FF900197E0FDEF8DF0A4FF900191E02FD6
:101CCA00FFA3E0FD900198E02430FB90019EEEF026
:0C1CDA00121938900197E004F0021C334E
:011CE60022DB
:101FEA009001D9EFF0A3EDF0A3EBF0A3EAF0A3E997
:011FFA00F0F6
:101FFB00E49001DFF09001DBE0FBA3E0FAA3E0F952
:10200B009001DFE0F582758300120ACD60409001EC
:10201B00D9E0FFA3E0FD9001DFE0FE04F08E8275B6
:10202B008300120ACDFB9001DEE090019EF01219A5
:10203B00389001DEE0FFB408099001D9E02406F0E6
:0E204B0080B3EFC313FF9001D9E02FF080A700
:012059002264
:0B0026009001D1EFF0A3EDF0A3EBF090
:10003100A3E0FF131313541FFD7C00EF54077E0050
:1000410060047F0180027F00EF2DFFEE3CFE9001F6
:10005100D4E0FD7C00120B2E9001D7EEF0A3EFF05F
:10006100E49001D5F0A3F09001D7E0FCA3E0FD906E
:1000710001D5E0FEA3E0FFC39DEE9C50439001D467
:10008100E0FD7C00120B40ED4C70069001D1122274
:10009100989001D4E0B41028A3E0FEA3E0FF900102
:1000A100D3E0C43354E024DEF582E4340812226440
:1000B1009001D6E004F070AF9001D5E004F080A784
:0100C100221C
:0B1E50009001C6EFF0A3EDF0A3EBF053
:101E5B00E49001CDF0A3F09001C9E0FF13131354EC
:101E6B001FFEEF540760047F0180027F00EE2F906E
:101E7B0001C9F0E49001CFF09001C9E0FF9001CFD0
:101E8B00E0FEC39F50519001C6E0FFA3E0FDEE2D95
:101E9B00FD12229FE49001D0F09001C8E0FF900169
:101EAB00D0E0C39F50299001CAE0FBA3E0FAA3E066
:101EBB00F9A3E475F001120B9585F082F583120AF4
:101ECB00CDFF7D011222759001D0E004F080CA9005
:071EDB0001CFE004F080A13B
:011EE20022DD
:101CE700E4FD7FAE122275E4FDFF122275E4FD7F4D
:101CF70010122275E4FD7F40122275E4FD7F8112E8
:101D07002275E4FD7FCF122275E4FD7FA1122275B3
:101D1700E4FD7FC8122275E4FD7FA6122275E4FD5B
:101D27007FA8122275E4FD7F3F122275E4FD7FD361
:101D3700122275E4FDFF122275E4FD7FD51222758C
:101D4700E4FD7F80122275E4FD7FD9122275E4FD40
:101D57007FF1122275E4FD7FDA122275E4FD7F120E
:101D6700122275E4FD7FDB122275E4FD7F4012220B
:101D770075E4FD7F20122275E4FD7F02122275E4CF
:101D8700FD7F8D122275E4FD7F14122275E4FD7F1D
:101D9700A4122275E4FD7FA61222751221AEE4FD7E
:051DA7007FAF02227570
:0300000002259640
:0C259600787FE4F6D8FD75812102110A5F
:1009BE00E709F608DFFA8046E709F208DFFA803E1B
:1009CE0088828C83E709F0A3DFFA8032E309F60808
:1009DE00DFFA8078E309F208DFFA807088828C8370
:1009EE00E309F0A3DFFA806489828A83E0A3F60824
:1009FE00DFFA805889828A83E0A3F208DFFA804CFE
:100A0E0080D280FA80C680D4806980F280338010D4
:100A1E0080A680EA809A80A880DA80E280CA80333D
:100A2E0089828A83ECFAE493A3C8C582C8CCC583B5
:100A3E00CCF0A3C8C582C8CCC583CCDFE9DEE78085
:100A4E000D89828A83E493A3F608DFF9ECFAA9F004
:100A5E00EDFB2289828A83ECFAE0A3C8C582C8CC5A
:100A6E00C583CCF0A3C8C582C8CCC583CCDFEADE73
:100A7E00E880DB89828A83E493A3F208DFF980CCD5
:100A8E0088F0EF60010E4E60C388F0ED2402B404CE
:100A9E000050B9F582EB2402B4040050AF23234575
:060AAE008223900A0E7382
:100AB400BB010689828A83E0225002E722BBFE0240
:090AC400E32289828A83E4932273
:100ACD00BB010CE58229F582E5833AF583E02250DE
:100ADD0006E92582F8E622BBFE06E92582F8E22228
:0D0AED00E58229F582E5833AF583E4932242
:100AFA00BB010689828A83F0225002F722BBFE01DB
:020B0A00F322D4
:100B0C00F8BB010DE58229F582E5833AF583E8F01F
:100B1C00225006E92582C8F622BBFE05E92582C8CB
:020B2C00F222B3
:100B2E00EF8DF0A4A8F0CF8CF0A428CE8DF0A42EDB
:020B3E00FE2295
:100B4000BC000BBE0029EF8DF084FFADF022E4CC99
:100B5000F875F008EF2FFFEE33FEEC33FCEE9DEC62
:100B6000984005FCEE9DFE0FD5F0E9E4CEFD22EDA8
:100B7000F8F5F0EE8420D21CFEADF075F008EF2FF2
:100B8000FFED33FD4007985006D5F0F222C398FDE3
:050B90000FD5F0EA2280
:100B9500A3F8E0C5F025F0F0E58215827002158313
:060BA500E0C838F0E82270
:100BAB00BB010A89828A83F0E5F0A3F0225006F795
:0F0BBB0009A7F01922BBFE06F3E5F009F3192292
:100BCA0075F008758200EF2FFFEE33FECD33CDCCE2
:100BDA0033CCC58233C5829BED9AEC99E582984065
:100BEA000CF582EE9BFEED9AFDEC99FC0FD5F0D642
:100BFA00E4CEFBE4CDFAE4CCF9A88222B800C1B96C
:100C0A000059BA002DEC8BF084CFCECDFCE5F0CBA9
:100C1A00F97818EF2FFFEE33FEED33FDEC33FCEBE2
:100C2A0033FB10D703994004EB99FB0FD8E5E4F99D
:100C3A00FA227818EF2FFFEE33FEED33FDEC33FC8A
:100C4A00C933C910D7059BE99A4007EC9BFCE99A7E
:100C5A00F90FD8E0E4C9FAE4CCFB2275F010EF2FC3
:100C6A00FFEE33FEED33FDCC33CCC833C810D707C3
:100C7A009BEC9AE899400AED9BFDEC9AFCE899F8FE
:0E0C8A000FD5F0DAE4CDFBE4CCFAE4C8F92291
:100C9800EB9FF5F0EA9E42F0E99D42F0E89C45F0B2
:010CA8002229
:100CA900E8600FECC313FCED13FDEE13FEEF13FF29
:030CB900D8F1224D
:100CBC00BB010DE58229F582E5833AF583020D36F9
:100CCC005007E92582F8020D29BBFE07E92582F8B9
:100CDC00020D42E58229F582E5833AF583020D4F38
:0C0CEC00ECF0A3EDF0A3EEF0A3EFF0227B
:100CF800A8828583F0D083D082120D0F120D0F12B7
:100D08000D0F120D0FE473E493A3C583C5F0C583DB
:100D1800C8C582C8F0A3C583C5F0C583C8C582C845
:010D280022A8
:100DA500E5082494F582E43401F583E005082290F2
:100DB5000191300703900194E475F001120D5F0273
:100DC5000AB42000E97F2ED2008018EF540F24903A
:100DD500D43440D4FF30040BEF24BFB41A005003C1
:100DE5002461FFE50960021509050CE50C70020593
:100DF5000B30070E900191E475F001120D5FEF02C3
:100E05000AFA0225567403D2078003E4C207F508DF
:100E1500900191120D76E4F509F50BF50CE50960E5
:100E2500077F20120DE880F5750AFFC201C200C2D6
:100E350002C203C205C206C208120DB4FF700D300E
:100E450007057F00120DF9AF0CAE0B22B4255FC26A
:100E5500D5C204120DB4FF24D0B40A00501A75F09F
:100E65000A780930D50508B6FF0106C6A426F6207E
:100E7500D5047002D20380D924CFB41A00EF5004F0
:100E8500C2E5D204020FFAD20180C6D20080C0D2D8
:100E95000280BCD2D580BAD20580B47F20120DE87D
:100EA5002002077401B5090040F1120DA5FF120DCE
:100EB500E8020E22D208D2068095120DA5FB120D6E
:100EC500A5FA120DA5F94A4B700679CB7A107BFF6E
:100ED50020022EE509602A7E008E82758300120AA3
:100EE500CD60060EEE650A70F0C2D5EBC0E0EAC033
:100EF500E0E9C0E0EE121041D0E0F9D0E0FAD0E030
:100F0500FB120AB4FF60AAEBC0E0EAC0E0E9C0E06A
:100F1500120DE8D0E02401F9D0E03400FAD0E0FB6E
:100F2500E50A0460DCD50AD980877BFF7A10793D14
:100F3500D202809C791080027908C206C208800816
:100F4500D2D5790A8004790AC2D5E50A047002F57A
:100F55000AE4FAFDFEFF120DA5FC7B082001131221
:100F65000DA5FD7B1030000A120DA5FE120DA5FF83
:100F75007B20EC3382D592D55013C3E43000069F15
:100F8500FFE49EFEE42001039DFDE49CFCE4CBF818
:100F9500C201EC700CCFCECDCCE824F8F870F3800C
:100FA50017C3EF33FFEE33FEED33FDEC33FCEB33CC
:100FB500FB994002FB0FD8E9EB300105F8D0E0C4FE
:100FC50048B201C0E00AEC4D4E4F78207B0070C25C
:100FD500EAB50A0040BCC0E0121043D0F0D0E020D2
:100FE5000104C4C0E0C4B201C0F0120DD1D0F0D5E7
:100FF500F0EB020E22120D7F0EBF530F39580E90E3
:101005004C0E8C420F3D4F0F45440F45490EA543ED
:081015000F4B550F2F460F2F62
:10101D00450F2F4710EB500E942D0E982E0EBB2B17
:10102D000E9C230EB92010D42A0E544800000EB386
:10103D003F3F3F00790AA2D5200314300509B910AE
:10104D00020404B9080104A2D520060250010420AF
:10105D0002689202B509005034C0E07F20300319B8
:10106D007F30A20272067205500F12109AC202C290
:10107D0006C205C2087F30800F300503E9C0E012BB
:10108D000DE8300503D0E0F9D0E0B509CC300517F7
:10109D007F30B9100C120DE87F583004077F78802F
:1010AD0003B90803120DE83002057F2D020DE87F0C
:1010BD00202008F87F2B2006F322920280CF286E85
:1010CD00756C6C2900D201120DA53001F8C20178A2
:1010DD000930D50108F6020E542D50434958120D12
:1010ED00A52403B405004001E49010E693120DD938
:0D10FD00743A120DD9D203750904020F399F
:0D0D2900E6FB08E6F908E6FA08E6CBF8223A
:0C0D3600E0F8A3E0F9A3E0FAA3E0FB2240
:0D0D4200E2FB08E2F908E2FA08E2CBF82231
:100D4F00E493F8740193F9740293FA740393FB22FA
:100D5F00F8E0FBA3A3E0F925F0F0E582158270021D
:070D6F001583E0FA38F022C1
:090D7600EBF0A3EAF0A3E9F0227E
:100D7F00D083D082F8E4937012740193700DA3A303
:100D8F0093F8740193F5828883E473740293686017
:060D9F00EFA3A3A380DF17
:00000001FF
